:100000000C9403010C9434010C9434010C943401CD
:100010000C9434010C9434010C9434010C9434018C
:100020000C9434010C9434010C9434010C9434017C
:100030000C9434010C9434010C9434010C9434016C
:100040000C9434010C9434010C9434010C9434015C
:100050000C9434010C9434010C9434010C945C0D18
:100060000C9434010C94B2080C94F1080C943401F3
:100070000C9434010C9434010C9434010C9434012C
:100080000C9434010C9434010C9434010C9434011C
:100090000C9434010C9434010C9434010C9434010C
:1000A0000C9434010C9434010C9434010C943401FC
:1000B0000C9434010C9434010C9434010C943401EC
:1000C0000C9434010C9434010C9434010C943401DC
:1000D0000C9434010C9434010C9434010C943401CC
:1000E0000C94340100002100240027002A002D0078
:1000F0003000330001010000040107010A01000083
:100100002200250028002B002E00310034000201BF
:100110000000050108010B0100002000230026005B
:1001200029002C002F00320000010000030106010D
:10013000090105050505070508080808020202026D
:100140000A0A080804040404010101010101010173
:100150000303030303030303040707070C0C0C0C3E
:100160000C0C0C0C02020202060606060606060627
:100170000B0B0B0B0B0B0B0B0102102020080810B4
:100180002040102040800201020108040201010207
:1001900004081020408080402010080402018004E0
:1001A000020180402010080402010804020101023B
:1001B0000408102040800102040810204080000044
:1001C000090A02080B0C0D070603040100000000D9
:1001D000000000000000000000000000000000001F
:1001E0000000000000000000000011100F000000DF
:1001F00000000000000000000000000000000000FF
:1002000000000000D70A11241FBECFEFD1E2DEBFED
:10021000CDBF00E00CBF13E0A0E0B2E0E8EDFEE1EE
:1002200000E00BBF02C007900D92AC30B107D9F7C8
:1002300013E0ACE0B3E001C01D92AF38B107E1F7C5
:1002400012E0C6E0D2E000E006C022970109FE01FC
:100250000BBF0E94660FC430D10780E00807A9F7E2
:100260000E942F0C0C946A0F0C9400000F931F93A4
:10027000DC01ED91FC910288F389E02D20E030E073
:1002800000E010E019951F910F910895FC01838DF6
:10029000882371F00788F08DE02D208131818281E3
:1002A0009381281B390B848195812823392302C02F
:1002B0002FEF3FEFC9010895FC01838D882391F052
:1002C000018CF28DE02D2081318182819381281B68
:1002D000390B2095309584819581282339232F5F10
:1002E0003F4F02C02FEF3FEFC9010895FC01838DFE
:1002F000882351F00788F08DE02D208131818281A3
:1003000093812817390721F42FEF3FEFC901089592
:1003100082819381A681B781A80FB91F2C91828118
:10032000938101964481558184239523938382830D
:1003300030E0ECCFFC01838D882351F00788F08DED
:10034000E02D20813181828193812817390721F4A2
:100350002FEF3FEFC9010895828193810680F781D5
:10036000E02DE80FF91F208130E0F4CFFC01A789D0
:10037000B08D12968D919C91139711969C938E93AC
:10038000018CF28DE02D8081918193838283089589
:10039000FC01838D8823A9F1A18DB28D8D919C9153
:1003A0001197019614962D913C91159782239323D2
:1003B000248D222339F012962D913C9113978217A8
:1003C0009307F9F012962D913C911397821793079A
:1003D000C9F32D913C91119716960D90BC91A02DCB
:1003E000A20FB31F6C93A18DB28D11969C938E9327
:1003F000A289B3898C919689892B8C9321E030E076
:1004000002C020E030E0C901089521E030E002C0E0
:10041000220F331F8A95E2F780914C03822B809341
:100420004C0308956F927F928F92AF92CF92EF928A
:10043000FF920F931F93DF93CF93CDB7DEB73C01AD
:10044000862FFA01D30113961C921E92129748EE42
:1004500053E060E070E014964D935D936D937C9350
:1004600017974DED52E011965C934E931D96FC93B9
:10047000EE931C971F963C932E931E9751961C93B8
:100480000E9350975396FC92EE9252975496CC92BC
:1004900054975596AC92559756968C925697282F0E
:1004A00030E093E0220F331F9A95E1F7A901445FF2
:1004B0005C4F58965C934E935797245D3C4F5A96E9
:1004C0003C932E9359970E940502C30140E051EEE0
:1004D00060E070E00E943601CF91DF911F910F9193
:1004E000FF90EF90CF90AF908F907F906F90089596
:1004F0000F931F93CF93DF93EC011B821A828A81A3
:100500009B8199838883E1E021E030E001C0EF5FC7
:10051000A9010E2E02C0440F551F0A94E2F7862F40
:10052000972FF2E081309F0710F080E092E04817AB
:10053000590768F301E010E002C0000F111FEA95AF
:10054000E2F7015010408E819F81009739F02C8195
:100550003D812017310789F00E94C30C1D830C8355
:10056000C80101960E943E0C9C019F838E8381E00E
:100570002115310519F480E001C081E0DF91CF91B0
:100580001F910F910895AF92BF92CF92DF92EF9299
:10059000FF920F931F93CF93DF93EC015A016B01EE
:1005A00079018B8D8823A1F12115310539F4EF896B
:1005B000F88DE480F5800894E11CF11C011511050B
:1005C00031F4E98DFA8D048115810F5F1F4FEF899A
:1005D000F88D848195810196E816F90691F4E98DEC
:1005E000FA8D8481958101960817190751F4EA89DB
:1005F000FB8990818E892D89822B80958923808328
:1006000028C0E881F9810088F189E02DCE01199593
:100610008F89988DE114F10419F470E8E72EF12C1C
:10062000B7010E947802882361F0898D9A8D0115A7
:10063000110511F400E110E0B8010E94780288234E
:1006400041F4E881F9810088F189E02DCE01199506
:100650004CC0E98DFA8D138212828281938191833D
:100660008083EF89F88D1382128282819381918336
:10067000808381E08B8F1A141B041C041D0454F525
:10068000E889F98980E0A81681EEB80680E0C806FE
:1006900080E0D80631F181E090E00C8802C0880F3C
:1006A000991F0A94E2F7808360E079E08DE390E09F
:1006B000A60195010E94440F215030404040504017
:1006C0005695479537952795EC85FD853083EE85C2
:1006D000FF852083EA89FB8980819D89892B80831E
:1006E00004C0108220E130E0EFCFDF91CF911F9165
:1006F0000F91FF90EF90DF90CF90BF90AF90089553
:10070000CF93DF93EC011B821A828A819B819983AC
:1007100088831D821C828E819F81009721F00E9418
:10072000C30C1F821E82DF91CF910895CF93DF9378
:10073000EC01EA89FB8990818E892D89822B809535
:10074000892380838F89988D0E948003898D9A8D5B
:100750000E9480031B8EDF91CF910895CF93DF938A
:10076000EC0181E08A8384E090E09D838C8379872B
:1007700068871C86E881F9810190F081E02DCE0127
:100780001995E881F9812E850280F381E02DCE0153
:100790006A8140E050E01995E881F9810280F38197
:1007A000E02DCE016A8141E050E02D851995E88168
:1007B000F98128890280F381E02DCE016A8142E02F
:1007C00050E01995E881F9810280F381E02DCE0196
:1007D0006A8143E050E02F851995DF91CF9108950C
:1007E000CF93DF93EC01262F8C85882309F069C015
:1007F000E881F9814C815D810280F381E02DCE0199
:100800006A8119958C819D8101969D838C832C89A9
:100810003D898217930708F454C084E090E09D83DB
:100820008C83E881F981488559850480F581E02D24
:10083000CE016A8120E0199588859985019699876E
:1008400088872E893F892817390710F481E08C8723
:100850008A81813011F482E001C081E08A83E881DD
:10086000F9812E850280F381E02DCE016A8140E07E
:1008700050E01995E881F9810280F381E02DCE01E5
:100880006A8141E050E02D8519952F8538892F5FC9
:100890003F4F388B2F87E881F9810280F381E02D6B
:1008A000CE016A8142E050E0232F1995E881F98159
:1008B0000280F381E02DCE016A8143E050E02F8574
:1008C0001995DF91CF9108950F931F93CF93DF93E5
:1008D000EC018B01672F770F770BCE010E94F0039D
:1008E000CE01602F0E94F003DF91CF911F910F91F5
:1008F0000895EF92FF920F931F93CF93DF93EC0134
:100900007A018B01272F552727FD5095352F452F2D
:10091000622F0E94F0039801552737FD5095452F0F
:10092000CE01622F0E94F003552717FD5A95412FE3
:10093000302F2F2DCE01622F0E94F003CE016E2D9D
:100940000E94F003DF91CF911F910F91FF90EF90E4
:1009500008951F93CF93DF93EC0181E08B8384E0B4
:1009600090E09F838E837B876A87E881F98101907D
:10097000F081E02DCE011995E881F9814A855B85EA
:100980000680F781E02DCE016B8119958A859B85C4
:1009900001969B878A87E881F9810084F185E02DA3
:1009A000CE016B8140E050E01995182F8D871E868F
:1009B000E881F9810084F185E02DCE016B8141E071
:1009C00050E01995312F20E090E0822B932B9E87E9
:1009D0008D87E881F9810084F185E02DCE016B815E
:1009E00042E050E01995182F8F87188AE881F98125
:1009F0000084F185E02DCE016B8143E050E0199534
:100A0000312F20E090E0822B932B988B8F87DF9102
:100A1000CF911F9108950F931F93CF93DF93EC0114
:100A2000E881F9810190F081E02D1995E881F98143
:100A30004E815F810084F185E02DCE016B81199597
:100A4000182F8E819F8101969F838E832C893D89EB
:100A50008217930708F456C084E090E09F838E834A
:100A6000E881F9814A855B850680F781E02DCE011A
:100A70006B8119958A859B8501969B878A872E892C
:100A80003F892817390710F41B861A86E881F981F7
:100A90000084F185E02DCE016B8140E050E0199596
:100AA000082F8D871E86E881F9810084F185E02D6D
:100AB000CE016B8141E050E01995302F20E090E0AD
:100AC000822B932B9E878D87E881F9810084F185A5
:100AD000E02DCE016B8142E050E01995082F8F8701
:100AE000188AE881F9810084F185E02DCE016B81BF
:100AF00043E050E01995302F20E090E0822B932BBB
:100B0000988B8F87812FDF91CF911F910F9108953F
:100B1000EF92FF920F931F93CF93DF938C010E946C
:100B20000B05982F80E0EC01C8010E940B05282FCF
:100B300030E02C2B3D2BC901DF91CF911F910F91FC
:100B4000FF90EF900895EF92FF920F931F93CF9332
:100B5000DF93EC010E940B0590E0A0E0B0E0EE24F2
:100B6000F82E092F1A2FCE010E940B0590E0A0E06D
:100B7000B0E08E299F29A02BB12BEE24F82E092F4F
:100B80001A2FCE010E940B0590E0A0E0B0E08E2964
:100B90009F29A02BB12BEE24F82E092F1A2FCE015E
:100BA0000E940B05282F30E040E050E02E293F291D
:100BB000402B512BB901CA01DF91CF911F910F91A9
:100BC000FF90EF90089541E0FC0126893789FFE00E
:100BD0002F3F3F0708F440E0842F08951F93CF93E1
:100BE000DF93EC01162F888D998D009751F0DC0171
:100BF000ED91FC910190F081E02DBE0119958823C3
:100C0000D1F08091300185FFFCCF109336018091A7
:100C1000300187FFFCCF10913601A88DB98D109758
:100C200059F0ED91FC9111970280F381E02DCD01F7
:100C3000BE01199501C010E0812FDF91CF911F9166
:100C400008958CE161E00E940C0F08958CE160E052
:100C50000E940C0F0895FF920F931F93CF93DF9381
:100C6000EC01062F142FF52E0E942606013019F4F0
:100C7000CE0164ED02C0CE0166ED0E94EE05CE010C
:100C800060E00E94EE05CE016F2D0E94EE05CE01C0
:100C9000612F0E94EE05CE0160E00E94EE05CE01BC
:100CA00060E00E94EE05182FCE010E942106812FE0
:100CB000DF91CF911F910F91FF900895EF92FF92D6
:100CC0000F931F93CF93DF93EC01062F142FF52E74
:100CD000E22E0E942606013019F4CE0164E802C01B
:100CE000CE0167E80E94EE05CE0160E00E94EE05AD
:100CF000CE016F2D0E94EE05CE01612F0E94EE0500
:100D0000CE016E2D0E94EE05CE010E942106DF91DC
:100D1000CF911F910F91FF90EF9008951F93CF9364
:100D2000DF93EC010E942606CE016FE90E94EE05DA
:100D3000CE016FEF0E94EE05898BCE016FEF0E940E
:100D4000EE05182F8A8B1B8ACE016FEF0E94EE05ED
:100D5000312F20E090E0822B932B9B8B8A8BCE014E
:100D60006FEF0E94EE05CE010E942106DF91CF9128
:100D70001F9108951F93CF93DF93EC010E942606E5
:100D8000CE0167ED0E94EE05CE0160E00E94EE0507
:100D9000182FCE010E942106812FDF91CF911F9144
:100DA00008950E94BA06807808950F931F93CF93F9
:100DB000DF93EC018B010E942606CE0167EC0E94B6
:100DC000EE05CE0164E90E94EE05CE0160E80E94C6
:100DD000EE05CE016AE90E94EE05CE010E942106D1
:100DE000CE010E94260606C061E070E080E090E03F
:100DF000F8011995CE010E94D1068823A9F3CE01EE
:100E00000E942106DF91CF911F910F9108950F93BA
:100E10001F93CF93DF93EC018B010E942606CE0136
:100E200060E50E94EE058C899D8922E08030920762
:100E300069F4B80194E0769567959A95E1F7CE014B
:100E40000E94EE05602F6295607F0DC0B80183E0BF
:100E5000769567958A95E1F7CE010E94EE05602FA1
:100E60006295660F607ECE010E94EE05CE0160E0C5
:100E70000E94EE05CE010E942106CE010E942606A8
:100E8000CE010E94D1068823D9F3CE010E9421060B
:100E9000DF91CF911F910F9108950F931F93CF93DF
:100EA000DF93EC018B010E942606CE0161E80E94CF
:100EB000EE058C899D8922E08030920761F4B801AB
:100EC000660F672F661F770B7195CE010E94EE05A6
:100ED000602F660F0CC0B80126E0769567952A95BD
:100EE000E1F7CE010E94EE05602F660F660FCE017E
:100EF0000E94EE05CE0160E00E94EE05CE010E9448
:100F00002106CE010E942606CE010E94D10688232A
:100F1000D9F3CE010E942106DF91CF911F910F914D
:100F20000895CF92DF92FF920F931F93DF93CF9399
:100F30000F92CDB7DEB76C018A01F22E69830E9451
:100F400026066981613019F4C60163E802C0C60152
:100F500066E80E94EE05F60184899589F2E080300A
:100F60009F0761F4B801660F672F661F770B7195B5
:100F7000C6010E94EE05602F660F0CC0B80146E066
:100F8000769567954A95E1F7C6010E94EE05602FB8
:100F9000660F660FC6010E94EE05C60160E00E9462
:100FA000EE05C6010E942106C6010E942606FF200A
:100FB00029F0C6010E94D1068823D9F3C6010E94F8
:100FC00021060F90CF91DF911F910F91FF90DF903D
:100FD000CF900895EF92FF920F931F93DF93CF93DB
:100FE0000F92CDB7DEB77C018A0169830E94260685
:100FF0006981613019F4C70163E502C0C70165E585
:101000000E94EE05F70184899589F2E080309F0700
:1010100061F4B801660F672F661F770B7195C701E2
:101020000E94EE05602F660F0CC0B801E6E07695D1
:101030006795EA95E1F7C7010E94EE05602F660FFC
:10104000660FC7010E94EE05C70160E00E94EE0531
:10105000C7010E942106C7010E942606C7010E94FF
:10106000D1068823D9F3C7010E9421060F90CF91A2
:10107000DF911F910F91FF90EF900895CF93DF9331
:10108000EC01CE010E94D1068823D9F3DF91CF91E4
:1010900008950E94BA0690E081709070A4E0880FD5
:1010A000991FAA95E1F720E132E0281B390BC9010D
:1010B0000895CF93DF93EC011F8A1E8A8EE061E0D2
:1010C0000E94C70E8FE060E00E94C70E8CE161E0D5
:1010D0000E94C70E89E261E00E94C70E81E260E0D3
:1010E0000E94C70E89E260E00E940C0F61E070E090
:1010F00080E090E00E94CA0D89E261E00E940C0F3E
:10110000CE010E9421061092350110923401809187
:10111000040184608093040180EC8093320188E1B3
:10112000809331011092350110923401CE010E945A
:1011300049089D8B8C8BE881F9810288F389E02D29
:10114000CE0119958B898F71873019F48FEF9FE14C
:1011500004C0863021F48FEF9FE09F8B8E8BDF9150
:10116000CF9108951F920F920FB60F920BB60F9268
:1011700011242F933F934F938F939F93EF93FF935C
:101180004091C60080910C0390910D03019620912F
:101190001003309111038223932320910E03309189
:1011A0000F038217930779F020910C0330910D0300
:1011B000E0911203F0911303E20FF31F4083909329
:1011C0000D0380930C03FF91EF919F918F914F91AD
:1011D0003F912F910F900BBE0F900FBE0F901F905D
:1011E00018951F920F920FB60F920BB60F92112403
:1011F0002F933F938F939F93EF93FF9320912E0311
:1012000030912F0380912C0390912D0328173907DB
:10121000E9F080912E0390912F03E0913203F09139
:101220003303E80FF91F80818093C60080912E035D
:1012300090912F0301962091300330913103822346
:10124000932390932F0380932E0310C020912C039F
:1012500030912D0380912E0390912F032817390789
:1012600029F48091C1008F7D8093C100FF91EF919F
:101270009F918F913F912F910F900BBE0F900FBEBA
:101280000F901F9018958F929F92AF92BF92CF921E
:10129000DF92EF92FF920F931F93CF93DF938DE432
:1012A00093E040E052EC61E070E00E9436018AE693
:1012B00093E00E9459088DE493E060E072E00E94A0
:1012C000670B64E170E080E090E00E94CA0D8AE65E
:1012D00093E00E948E066AE070E080E090E00E9459
:1012E000CA0D8DE493E067E172E00E94470B6091C4
:1012F0007B038DE493E070E04AE050E00E94250C0F
:101300008DE493E065E272E00E94470B60917C03FC
:1013100070917D038DE493E04AE050E00E94E30B7E
:101320008DE493E00E94520B8AE693E061E070E066
:101330000E94AE038DE493E067E272E00E94670BC7
:101340008DE493E067E672E00E94670B8DE493E022
:1013500068E672E00E94670BEE24FF248701882470
:1013600099245401C0EDD7E001C0E6018AE693E07C
:1013700063EA0E94F0038AE693E065E90E94F003C5
:101380008AE693E0BE010E9464046E010894C11CC9
:10139000D11C8AE693E0B6010E946404BE016E5F30
:1013A0007F4F8AE693E00E946404BE016D5F7F4F29
:1013B0008AE693E00E9464048AE693E0B501A40102
:1013C0000E9479048AE693E0B801A7010E9479049B
:1013D0008AE693E062EA0E94F0038AE693E06EE414
:1013E0000E94F0036AE070E080E090E00E94CA0D85
:1013F00088E893E1A0E0B0E0880E991EAA1EBB1E0B
:101400008CE89FE3A0E0B0E0E80EF91E0A1F1B1F66
:1014100098EBC9169BE0D90609F0A7CF64E670E007
:1014200080E090E00E94CA0DDF91CF911F910F9153
:10143000FF90EF90DF90CF90BF90AF909F908F90F4
:1014400008951F93CF93DF938DE493E064E872E0F7
:101450000E94670B8AE693E061E070E00E94A904B5
:10146000C8ECD0E08AE693E00E940B05182F8AE6CC
:1014700093E00E940B058DE493E06CE972E00E941A
:10148000470B133A09F070C08AE693E00E94880582
:10149000BC018DE493E04AE050E00E94250C8DE40D
:1014A00093E065E272E00E94470B8AE693E00E94B7
:1014B0008805BC018DE493E04AE050E00E94250CD1
:1014C0008DE493E065E272E00E94470B8AE693E0C8
:1014D0000E948805BC018DE493E04AE050E00E9440
:1014E000250C8DE493E065E272E00E94470B8AE6EA
:1014F00093E00E948805BC018DE493E04AE050E04F
:101500000E94250C8DE493E065E272E00E94470B97
:101510008AE693E00E94A305AB01BC018DE493E051
:101520002AE030E00E94EA0B8DE493E065E272E08D
:101530000E94470B8AE693E00E94A305AB01BC0121
:101540008DE493E02AE030E00E94EA0B8DE493E022
:1015500064EA72E00E94470B8AE693E00E940B0562
:101560008AE693E00E940B058DE493E00E94520B03
:10157000219709F077CF8DE493E067E672E00E944F
:10158000670B8DE493E066EA72E00E94670B8DE4DE
:1015900093E067E672E00E94670B60E27EE480E021
:1015A00090E00E94CA0DDF91CF911F9108958F9214
:1015B000AF92CF92EF92FF920F931F938DE493E03F
:1015C00060E045EC50E024EC30E000EC10E0F1ECA1
:1015D000EF2EF12CCC24C394E8E9AE2E70E2872ED6
:1015E0000E94120285EF92E090936B0380936A034E
:1015F00010928303109282031F910F91FF90EF903E
:10160000CF90AF908F900895CF92DF92EF92FF929C
:101610000F931F93CF93DF936C017B018A01C0E08E
:10162000D0E00FC0D7016D917D01D601ED91FC9105
:101630000190F081E02DC6011995C80FD91F015006
:1016400010400115110571F7CE01DF91CF911F9167
:101650000F91FF90EF90DF90CF9008956115710585
:1016600091F0DB010D900020E9F7AD0141505040B1
:10167000461B570BDC01ED91FC910280F381E02DBC
:1016800019959C0102C020E030E0C90108950E9434
:101690002E0B0895DC01ED91FC910190F081E02D7D
:1016A000199508950F931F93CF93DF93EC016DE08D
:1016B0000E944A0B8C01CE016AE00E944A0B080F7F
:1016C000191FC801DF91CF911F910F9108950F93BA
:1016D0001F93CF93DF93EC010E942E0B8C01CE0160
:1016E0000E94520B080F191FC801DF91CF911F9163
:1016F0000F9108958F929F92AF92BF92CF92DF92F7
:10170000EF92FF920F931F93DF93CF93CDB7DEB786
:10171000A1970FB6F894DEBF0FBECDBF6C01042FAA
:10172000E52FCB01122F19A2223008F41AE021E292
:10173000E22EF12CEC0EFD1E812E9924AA24BB244E
:1017400003C0022FE32FCA01602F7E2FA501940151
:101750000E94440F129F802D1124081B0894E10859
:10176000F1080A3014F4005D01C0095CF701008340
:10177000211531054105510521F7C601B7010E9428
:101780002E0BA1960FB6F894DEBF0FBECDBFCF9142
:10179000DF911F910F91FF90EF90DF90CF90BF905E
:1017A000AF909F908F9008952115310549F4DC0189
:1017B000ED91FC910190F081E02D642F1995089531
:1017C0000E947A0B08959A01AB0160E070E00E94DC
:1017D000D40B0895CF92DF92EF92FF920F931F9355
:1017E000CF93DF93EC017A018B012115310541F490
:1017F000E881F9810190F081E02D642F19951AC0DC
:101800002A303105A9F477FF12C06DE20E944A0B1D
:101810006C0144275527BA014E195F09600B710B03
:10182000CE012AE00E947A0BC80ED91E04C02AE01D
:101830000E947A0B6C01C601DF91CF911F910F912D
:10184000FF90EF90DF90CF9008959A01FB01AF01D8
:10185000662757FD6095762F0E94EA0B0895CF9377
:10186000DF930E94F10D0E944309C0E0D0E00E9486
:10187000210A2097E1F30E940000F9CFCF93DF9374
:101880008230910510F482E090E0E0918D03F091B8
:101890008E0340E050E020E030E026C0608171819E
:1018A00068177907E0F06817790781F482819381DE
:1018B0002115310531F0D90113969C938E9312971F
:1018C0002BC090938E0380938D0326C04115510544
:1018D00019F06417750718F4AB01E901DF019F01E6
:1018E00072816381E72FF62F3097C1F641155105BC
:1018F00001F1481B590B4430510580F412968D912B
:101900009C911397209719F09B838A8304C090932E
:101910008E0380938D03FD01329631C0FD01E40FEB
:10192000F51F819391934250504011965C934E93D2
:1019300026C02DB73EB728573040E091D502F09130
:10194000D602E217F307C8F4A9014E1B5F0B481734
:10195000590798F09C012E5F3F4F4217530768F0DC
:101960002E0F3F1F3093D6022093D5023093D8021A
:101970002093D7028193919302C0E0E0F0E0CF0181
:10198000DF91CF910895CF93DF93009709F491C031
:10199000FC0132971382128260918D0370918E0345
:1019A0006115710581F420813181280F391F8091E3
:1019B000D5029091D6028217930799F5F093D6023B
:1019C000E093D50276C0DB0180E090E002C0CD015B
:1019D000D901AE17BF0748F412962D913C91139789
:1019E00021153105A1F7CD0121C0B383A283EF01F9
:1019F000499159919E01240F351FA217B30779F41D
:101A00002D913C911197240F351F2E5F3F4F31834D
:101A1000208312962D913C91139733832283009754
:101A200029F4F0938E03E0938D0343C0DC011396F9
:101A3000FC93EE9312974D915D91A40FB51FEA1799
:101A4000FB0769F420813181240F351F2E5F3F4F42
:101A5000EC0139832883228133813B832A83E0E0B0
:101A6000F0E002C0FB01BC01DB0112968D919C915C
:101A700013970097B9F79B012E5F3F4F8D919C9173
:101A80001197820F931F4091D5025091D6024817AB
:101A9000590779F4309729F410928E0310928D0330
:101AA00002C013821282225030403093D60220931B
:101AB000D502DF91CF9108951F920F920FB60F922A
:101AC00011242F933F938F939F93AF93BF93809154
:101AD000880390918903A0918A03B0918B03309180
:101AE0008C030196A11DB11D232F2D5F2D3720F0F2
:101AF0002D570196A11DB11D20938C03809388035F
:101B000090938903A0938A03B0938B0380918403FD
:101B100090918503A0918603B09187030196A11D42
:101B2000B11D8093840390938503A0938603B093A3
:101B30008703BF91AF919F918F913F912F910F900C
:101B40000FBE0F901F9018959FB7F89420918403B3
:101B500030918503409186035091870386B5A89BF9
:101B600006C08F3F21F02F5F3F4F4F4F5F4F9FBF0A
:101B7000542F432F322F2227280F311D411D511D75
:101B800082E0220F331F441F551F8A95D1F7B901F8
:101B9000CA010895EF92FF920F931F93CF93DF93A3
:101BA0007B018C010E94A40DEB010FC00E94A40DCB
:101BB0006C1B7D0B83E0683E780738F00894E108E1
:101BC000F10801091109C851DC4FE114F1040105C4
:101BD000110561F7DF91CF911F910F91FF90EF9069
:101BE0000895789484B5826084BD84B5816084BD95
:101BF00085B5826085BD85B5816085BDEEE6F0E086
:101C0000808181608083E1E8F0E0108280818260E1
:101C10008083808181608083E0E8F0E08081816062
:101C20008083E1EBF0E0808184608083E0EBF0E092
:101C3000808181608083E1E9F0E08081826080833F
:101C4000808181608083E0E9F0E080818160808331
:101C5000E1EAF0E08081826080838081816080831E
:101C6000E0EAF0E0808181608083E1E2F1E0808160
:101C700082608083808181608083E0E2F1E0808106
:101C800081608083EAE7F0E08081846080838081E6
:101C9000826080838081816080838081806880838E
:101CA0001092C1000895893009F449C08A30A0F427
:101CB000843051F1853040F4823079F1833000F581
:101CC000813009F063C026C0873079F1883098F5FB
:101CD000863009F05BC025C08D3009F442C08E30DB
:101CE00028F48B30B1F18C30C0F52DC0803109F46F
:101CF00042C0813109F445C08F3009F047C037C078
:101D0000809180008F7703C0809180008F7D8093C9
:101D10008000089584B58F7702C084B58F7D84BD1F
:101D200008958091B0008F7703C08091B0008F7DBF
:101D30008093B0000895809190008F7707C08091C4
:101D400090008F7D03C080919000877F80939000EA
:101D500008958091A0008F7707C08091A0008F7DAB
:101D600003C08091A000877F8093A0000895809198
:101D700020018F7703C0809120018F7D8093200107
:101D8000089580912001877F809320010895EF922C
:101D9000FF92CF93DF9390E0FC01E858FE4F44910F
:101DA0008E5C9E4FFC018491882389F190E0880F1E
:101DB000991FFC01EC51FF4F25913491D9018250BC
:101DC0009F4FFC0125913491E22EE7017E01F32E15
:101DD000E701662349F49FB7F8948C9140958423DA
:101DE0008C93888184230BC0623059F49FB7F89498
:101DF0008C91242F209582238C938881842B888337
:101E000005C09FB7F8948C91842B8C939FBFDF9172
:101E1000CF91FF90EF9008950F931F93DF93CF938F
:101E20000F92CDB7DEB7282F30E0F901E254FE4F14
:101E30008491F901E858FE4F14912E5C3E4FF90150
:101E400004910023D9F0882321F069830E94530E66
:101E50006981E02FF0E0EE0FFF1FE250FF4F859108
:101E60009491DC019FB7F894662321F48C9110952E
:101E7000812302C08C91812B8C939FBF0F90CF91B7
:101E8000DF911F910F910895A1E21A2EAA1BBB1B8F
:101E9000FD010DC0AA1FBB1FEE1FFF1FA217B30736
:101EA000E407F50720F0A21BB30BE40BF50B661F4C
:101EB000771F881F991F1A9469F760957095809510
:101EC00090959B01AC01BD01CF0108950790F6915B
:081ED000E02D1994F894FFCFF6
:101ED80044617461666C617368204C6F6720546557
:101EE800737420312E30004D616E756661637475B0
:101EF8007265723A002C00416674657220746573CD
:101F080074696E6720706572666F726D20657261A4
:101F18007365206265666F7265207573696E6720E8
:101F280044617461466C61736820666F72206C6FDF
:101F38006767696E6721000057726974696E672068
:101F4800746F20666C6173682E2E2E207761697419
:101F58002E2E2E0053746172742072656164696E4E
:101F680067207061676520312E2E2E005041434B4B
:101F780045543A003B005465737420636F6D706C70
:101F88006574652E2020546573742077696C6C2005
:101F980072657065617420696E20323020736563E4
:101FA8006F6E6473008F03640000000000C80104B2
:101FB8000B460176019A01B6015C0136019603C30E
:101FC80002000000003E085E069107EA072B064D56
:0C1FD800070707D50659088E06E3050030
:00000001FF
