:100000000C9488040C94704F0C94A14F0C94D24F14
:100010000C9403500C9434500C9465500C949650EE
:100020000C94C7500C94B9040C94B9040C94B90402
:100030000C94B9040C94B9040C94B9040C944517AD
:100040000C94B9040C94B9040C94B9040C94B9043C
:100050000C94B9040C94B9040C94B9040C94255272
:100060000C94B9040C947C3F0C94BB3F0C94B904E1
:100070000C94B9040C94B9040C94B9040C94B9040C
:100080000C94B9040C94B9040C94B9040C94B904FC
:100090000C94B9040C94B9040C94B9040C94380869
:1000A0000C94B9040C9472170C94B9040C94B90410
:1000B0000C94B9040C94B9040C949F170C94B904D3
:1000C0000C94B9040C94B9040C94B9040C94B904BC
:1000D0000C94B9040C94B9040C94B9040C94B904AC
:1000E0000C94B904084AD73B3BCE016E84BCBFFDDB
:1000F000C12F3D6C74319ABD56833DDA3D00C77FF8
:1001000011BED9E4BB4C3E916BAAAABE0000008090
:100110003F05A84CCDB2D44EB93836A9020C50B91F
:10012000918688083CA6AAAA2ABE000000803F004B
:10013000407A10F35A00A0724E18090010A5D4E8B6
:100140000000E87648170000E40B54020000CA9A49
:100150003B000000E1F5050000809698000000409B
:10016000420F000000A086010000001027000000E0
:1001700000E803000000006400000000000A000026
:100180000000000100000000002C76D888DC674FDA
:100190000823DFC1DFAE59E1B1B796E5E3E453C60A
:1001A0003AE651997696E8E6C28426EB898C9B6202
:1001B000ED407C6FFCEFBC9C9F40F2BAA56FA5F4AC
:1001C00090055A2AF75C936B6CF9676DC11BFCE0D4
:1001D000E40D47FEF520E6B500D0ED902E03009427
:1001E0003577050080841E080000204E0A000000BC
:1001F000C80C333333330F986E12831141EF8D21C6
:1002000014893BE65516CFFEE6DB18D1844B381B2C
:10021000F77C1D901DA4BBE424203284725E2281F1
:1002200000C9F124ECA1E53D276E616E00696E66A0
:10023000006765744E756D4C6F6773203A3A20669F
:10024000696C654E756D626572203D3D2030584683
:10025000464646200A006765744E756D4C6F67739D
:10026000203A3A206C6173745F70616765203D3D90
:100270002031200A00020050524F445543545F4938
:1002800044000000000000001A000000000005010A
:100290004143435343414C00000000000000000074
:1002A000001C000000000005024143434F46465336
:1002B0000000000000000000000028000000000016
:1002C00005034759524F4646530000000000000006
:1002D00000000034000000000001044D5055364B72
:1002E0005F46494C544552000000000040000000A9
:1002F000000000FF000000000000000000000000FF
:10030000000000000000000000000043616C696212
:10031000726174696F6E206661696C65642028255E
:100320002E316620252E316620252E316620252E81
:10033000316620252E316620252E3166290A00439C
:10034000616C6962726174696F6E20737563636555
:10035000737366756C0A00555345523A20506C61B0
:1003600063652041504D20255320616E64207072DA
:1003700065737320616E79206B65792E0A006F6E4C
:100380002069742773206261636B006E6F73652050
:100390007570006E6F736520646F776E006F6E20EE
:1003A00069742773207269676874207369646500D3
:1003B0006F6E2069742773206C656674207369649E
:1003C00065006C6576656C0020002A00496E6974D2
:1003D00020416363656C000A6779726F2064696409
:1003E000206E6F7420636F6E76657267653A206465
:1003F0006966663D2566206470730A002A00496EAE
:100400006974204779726F00416363656C205B58A3
:100410003A25342E326620593A25342E3266205A37
:100420003A25342E32665D206C656E3A25342E32C4
:1004300066204779726F205B583A25342E32662049
:10044000593A25342E3266205A3A25342E32665DCA
:100450002054656D703A25342E32660A0047797251
:100460006F204F66667365747320583A2531302EBD
:100470003866200920593A2531302E386620092067
:100480005A3A2531302E38660A00416363656C2084
:100490005363616C6520583A2531302E3866200947
:1004A00020593A2531302E38662009205A3A253114
:1004B000302E38660A000A416363656C204F666619
:1004C0007365747320583A2531302E386620092020
:1004D000593A2531302E38662009205A3A253130D4
:1004E0002E38660A00202025530A00436F6D6D6187
:1004F0006E64733A002553203E3E2000496E7661BB
:100500006C696420636F6D6D616E642C207479700A
:1005100065202768656C702700657869740025532D
:10052000203E3E200068656C70002553203E3E2032
:10053000004C6F6700657261736500000000000089
:10054000000000914A7072696E74000000000000A3
:10055000000000214D6C6973740000000000000071
:10056000000000BD497465737400000000000000C5
:10057000000000924B696D75434D4400000000007F
:1005800000000089492E006C6F6754657374436DD9
:1005900064203A3A2077726974696E67206C6F67DD
:1005A000732E006C6F6754657374436D64203A3A20
:1005B0002073697A65206F66206F6E6520706163B5
:1005C0006B6574203D202564200A004C6F67202550
:1005D000303464205B73746172742025303464207D
:1005E0007C7C20656E6420253034645D200A000A1E
:1005F0002575206C6F67730A000A4E6F206C6F6759
:10060000730A0A000A6C6F675072696E74436D64F6
:10061000203A3A20646F6E650A006C6F6750726909
:100620006E74436D64203A3A2064756D70696E672C
:10063000206C6F67206E722025640A006C6F675013
:1006400072696E74436D64203A3A20626164206C72
:100650006F67206E756D6265720A006C6F6750720D
:10066000696E74436D64203A3A2064756D70696EEA
:100670006720616C6C0A00636F6D706C6574652037
:100680000A006C6F674572617365436D64203A3A86
:100690002065726173696E6720666C6173682E2EC7
:1006A0002E20006C6F6744756D704C6F674E722022
:1006B0003A3A206C6F67206861732025642070616E
:1006C00067657320616E6420256420656E747269AD
:1006D00065730A002C006C6F675072696E74444633
:1006E00056656E646F72202D3E204D616E75666199
:1006F0006374757265723A004C6F67203E3E20004D
:10070000646F6E65200A006C6F67496E6974203AE9
:100710003A20696E697469616C697A696E672074E0
:1007200065726D696E616C2E2E2E20006C6F6749AC
:100730006E6974203A3A204E6577206C6F6720739B
:10074000746172746564200A00636F6D706C657407
:1007500065200A006C6F67496E6974203A3A20651B
:1007600072617365206E65656465642C20657261D5
:1007700073696E67205F44617461466C6173682EB3
:100780002E2E2000646F6E65200A006C6F67496E24
:100790006974203A3A20696E697469616C697A6992
:1007A0006E6720666C6173682E2E2E20000000217B
:1007B00000240027002A002D003000330001010032
:1007C00000040107010A0100002200250028002B77
:1007D000002E003100340002010000050108010B69
:1007E00001000020002300260029002C002F0032E9
:1007F00000000100000301060109010505050507C8
:100800000508080808020202020A0A08080404048B
:1008100004010101010101010103030303030303B7
:1008200003040707070C0C0C0C0C0C0C0C02020246
:100830000206060606060606060B0B0B0B0B0B0B39
:100840000B010210202008081020401020408002D8
:100850000102010804020101020408102040808006
:10086000402010080402018004020180402010088A
:100870000402010804020101020408102040800162
:10088000020408102040800000090A02080B0C0D29
:100890000706030401000000000000000000000043
:1008A0000000000000000000000000000000000048
:1008B00000000011100F0000000000000000000008
:1008C00000000000000000000000000000494E464B
:1008D000494E4954594E414ECDCCCC3D0AD7233CCC
:1008E00017B7D13877CC2B329595E6241FB14F0A34
:1008F000000020410000C84200401C4620BCBE4C05
:10090000CA1B0E5AAEC59D746C08252F3943AD4DD8
:1009100011241FBECFEFD1E2DEBFCDBF00E00CBF80
:1009200014E0A0E0B2E0E6E5F5EB00E00BBF02C0AA
:1009300007900D92A83BB107D9F717E0A8EBB4E0F8
:1009400001C01D92AB37B107E1F719E0C0E1D9E072
:1009500000E006C022970109FE010BBF0E94265845
:10096000C830D10780E00807A9F70E94F8500C941E
:10097000A95A0C940000283008F027E03327DA0148
:10098000990F311D87FD916000966105710539F45D
:1009900032602E5F3D9330E32A95E1F708959F3F43
:1009A00030F080387105610509F03C5F3C5F3D9394
:1009B000913008F08068911DDF93CF931F930F93C0
:1009C000FF92EF92192F987F9695E92F969596951D
:1009D000E90FFF27E757FE4F99273327EE24FF241F
:1009E000A701E70105900894079428F4360FE71E45
:1009F000F81E491F511D660F771F881F991F069407
:100A0000A1F70590079428F4E70EF81E491F561F1A
:100A1000C11D770F881F991F661F0694A1F70590C7
:100A2000079428F4F80E491F561FC71FD11D880FC1
:100A3000991F661F771F0694A1F70590079420F46D
:100A4000490F561FC71FD81F990F661F771F881F92
:100A50000694A9F784911095177041F0D695C79523
:100A600057954795F794E7941A95C1F7EFE2F1E0AF
:100A700068941590159135916591959105907FE257
:100A80007395E118F10A430B560BC90BD009C0F757
:100A9000E10CF11E431F561FC91FD01D7EF4703399
:100AA00011F48A95E6CFE894015030F0080F0AF46B
:100AB0000027021708F4202F2395022F7A3328F0FD
:100AC00079E37D932A95E9F710C07D932A9589F6FD
:100AD000069497956795379517951794E118F10A3D
:100AE000430B560BC90BD00998F023957E91739553
:100AF0007A3308F070E37C932013B8F77E9170612D
:100B00007D9330F0839571E37D9370E32A95E1F74F
:100B10001124EF90FF900F911F91CF91DF919927B2
:100B200087FD90950895FA01AA27283051F12031C8
:100B300081F1E8946F936E7F6E5F7F4F8F4F9F4F71
:100B4000AF4FB1E03ED0B4E03CD0670F781F891FB3
:100B50009A1FA11D680F791F8A1F911DA11D6A0F81
:100B6000711D811D911DA11D20D009F468943F9134
:100B70002AE0269F11243019305D3193DEF6CF0133
:100B80000895462F4770405D4193B3E00FD0C9F7F9
:100B9000F6CF462F4F70405D4A3318F0495D31FD66
:100BA0004052419302D0A9F7EACFB4E0A6959795B9
:100BB000879577956795BA95C9F70097610571058F
:100BC00008959B01AC010A2E0694579547953795D9
:100BD0002795BA95C9F7620F731F841F951FA01D33
:100BE000089585E361E00E94205485E361E00E945E
:100BF000DB538CB580618CBD8CB580648CBD84E387
:100C000061E00E94DB5383E361E00E94DB530895BF
:100C10002CB5982F93702C7F922B9CBD2DB590E016
:100C2000959587959595879581702E7F822B8DBDA3
:100C30000895589A599AE9EBF0E080818E7F80837D
:100C400080818D7F808388E48093B80085E48093E1
:100C5000BC0008957093BC046093BB0408956623A0
:100C600011F488E401C08CE08093B8000895FC0181
:100C7000ACEBB0E01C9285E48C9383A18F5F83A3DF
:100C80000895EF92FF920F931F93CF93DF93EC01A0
:100C90000E946D527B018C0184E98093BC0018C0D6
:100CA0000097D1F00E946D526E197F09800B910B55
:100CB0002091BB043091BC0440E050E06217730700
:100CC0008407950728F0CE010E94370681E009C00D
:100CD0008091BB049091BC042091BC0024FDE0CF26
:100CE00080E0DF91CF911F910F91FF90EF900895D9
:100CF000DF92EF92FF920F931F93CF93DF93EC015C
:100D0000D62E0E946D527B018C01DD2011F084EC07
:100D100001C084E88093BC0018C00097D1F00E9405
:100D20006D526E197F09800B910B2091BB0430919D
:100D3000BC0440E050E0621773078407950728F071
:100D4000CE010E94370681E00BC08091BB049091D8
:100D5000BC042091BC0027FFE0CF8091B900887FC0
:100D6000DF91CF911F910F91FF90EF90DF90089549
:100D7000EF92FF920F931F93CF93DF93EC01609359
:100D8000BB000E946D527B018C0184E88093BC0003
:100D900018C00097D1F00E946D526E197F09800B28
:100DA000910B2091BB043091BC0440E050E06217ED
:100DB00073078407950728F0CE010E94370681E06B
:100DC00012C08091BB049091BC042091BC0027FF0D
:100DD000E0CF8091B900887F883221F08091B900FE
:100DE000887F01C080E0DF91CF911F910F91FF902C
:100DF000EF900895EF92FF920F931F93CF93DF939D
:100E0000EC016093BB000E946D527B018C0184E871
:100E10008093BC0018C00097D1F00E946D526E19EB
:100E20007F09800B910B2091BB043091BC0440E002
:100E300050E0621773078407950728F0CE010E94DF
:100E4000370681E013C08091BB049091BC042091CF
:100E5000BC0027FFE0CF8091B900887F883129F05E
:100E60008091B900887F803441F480E0DF91CF9198
:100E70001F910F91FF90EF9008958091B900887FA6
:100E8000F5CFEF92FF920F931F93CF93DF93EC0177
:100E90000E946D527B018C0184EA8093BC0018C0D3
:100EA0000097D1F00E946D526E197F09800B910B53
:100EB0002091BB043091BC0440E050E062177307FE
:100EC0008407950728F0CE010E94370681E013C001
:100ED0008091BB049091BC042091BC0027FFE0CF1F
:100EE0008091B900887F883029F08091B900887F8F
:100EF000803141F480E0DF91CF911F910F91FF90FD
:100F0000EF9008958091B900887FF5CFAF92BF929E
:100F1000DF92EF92FF920F931F93DF93CF930F9285
:100F2000CDB7DEB75C01F42EE22E1092B804109219
:100F3000B904222311F4EE24E3948E2D8150F5019F
:100F400082831182C50169830E944107F501818373
:100F50006981882309F04FC0D62EDD0CC5016D2DA7
:100F60000E94FA06F5018183882309F044C0C50177
:100F70006F2D0E94B806F50181838823E1F5C50134
:100F80000E944107F50181838823A9F56D2D6F5FCC
:100F9000C5010E94FA06F5018183882311F4FF241C
:100FA00021C0F50128C0F5018281F81649F4C50178
:100FB00060E00E947806F5018183883549F01BC006
:100FC000C50161E00E947806F5018183803599F4BE
:100FD0008091BB00F80181938F01F394F092B804E3
:100FE000F092BA04FE14F8F2C5010E944106F50120
:100FF0008183882319F093A19F5F93A30F90CF91D2
:10100000DF911F910F91FF90EF90DF90BF90AF9015
:101010000895FF920F931F93CF93DF93EC01062F58
:10102000142FF22E19820E94410789838823D1F45C
:10103000602F660FCE010E94FA068983882391F4FF
:10104000CE01612F0E94B8068983882359F4CE010E
:101050006F2D0E94B8068983882321F4CE010E9457
:1010600041068983DF91CF911F910F91FF900895E1
:101070001F920F920FB60F9211248F939F9380911E
:10108000B90090E0887F907088349105B9F0893478
:10109000910554F48033910589F08833910581F0EE
:1010A0008032910591F40AC08837910549F0803B60
:1010B000910531F08836910541F402C084E903C0FE
:1010C0001092BC0085E48093BC009F918F910F909B
:1010D0000FBE0F901F9018950895EF92FF920F93F7
:1010E0001F93CF93DF93EC018B0106C0A881B981D8
:1010F000ED91FC91CE011995F8010F5F1F4F64919E
:101100006623A1F7DF91CF911F910F91FF90EF9090
:101110000895CF93DF93EC010E946D08CE010E94E9
:10112000194EDF91CF910895DF93CF93CDB7DEB7FE
:10113000FE013A968E819F8160E0488559859F0126
:101140000E94350BCF91DF910895DF93CF93CDB7F8
:10115000DEB7FE013A968E819F8161E04885598510
:101160009F010E94350BCF91DF910895FB019A01F9
:1011700061E0AF010E94350B08950F931F93DC01CE
:10118000ED91FC910288F389E02D20E030E000E051
:1011900010E019951F910F910895FC01838D88230C
:1011A00071F00788F08DE02D20813181828193815B
:1011B000281B390B848195812823392302C02FEF06
:1011C0003FEFC9010895FC01838D882391F0018CC4
:1011D000F28DE02D2081318182819381281B390B92
:1011E0002095309584819581282339232F5F3F4FA7
:1011F00002C02FEF3FEFC9010895FC01838D8823C2
:1012000051F00788F08DE02D20813181828193811A
:101210002817390721F42FEF3FEFC9010895828184
:101220009381A681B781A80FB91F2C9182819381E8
:10123000019644815581842395239383828330E0F2
:10124000ECCFFC01838D882351F00788F08DE02DD1
:1012500020813181828193812817390721F42FEF72
:101260003FEFC9010895828193810680F781E02DC7
:10127000E80FF91F208130E0F4CFFC01A789B08D81
:1012800012968D919C91139711969C938E93018C3D
:10129000F28DE02D80819181938382830895FC01FA
:1012A000838D8823A9F1A18DB28D8D919C91119789
:1012B000019614962D913C91159782239323248DAA
:1012C000222339F012962D913C91139782179307A0
:1012D000F9F012962D913C91139782179307C9F359
:1012E0002D913C91119716960D90BC91A02DA20FB7
:1012F000B31F6C93A18DB28D11969C938E93A2898E
:10130000B3898C919689892B8C9321E030E002C0BF
:1013100020E030E0C901089521E030E002C0220F52
:10132000331F8A95E2F780912105822B8093210556
:1013300008956F927F928F92AF92CF92EF92FF9229
:101340000F931F93DF93CF93CDB7DEB73C01862F6A
:10135000FA01D30113961C921E92129748EE53E0A5
:1013600060E070E014964D935D936D937C931797B6
:1013700048EC53E011965C934E931D96FC93EE93CC
:101380001C971F963C932E931E9751961C930E9379
:1013900050975396FC92EE9252975496CC92549753
:1013A0005596AC92559756968C925697282F30E0CA
:1013B00093E0220F331F9A95E1F7A9014F515B4F3C
:1013C00058965C934E9357972F5F3A4F5A963C939B
:1013D0002E9359970E948C09C30140E051EE60E0C2
:1013E00070E00E94BD08CF91DF911F910F91FF9097
:1013F000EF90CF90AF908F907F906F9008950F9364
:101400001F93CF93DF93EC011B821A828A819B8109
:1014100099838883E1E021E030E001C0EF5FA9011A
:101420000E2E02C0440F551F0A94E2F7862F972F05
:10143000F2E081309F0710F080E092E048175907F2
:1014400068F301E010E002C0000F111FEA95E2F717
:10145000015010408E819F81009739F02C813D8191
:101460002017310789F00E948C511D830C83C8011D
:1014700001960E9407519C019F838E8381E0211574
:10148000310519F480E001C081E0DF91CF911F9117
:101490000F910895AF92BF92CF92DF92EF92FF9299
:1014A0000F931F93CF93DF93EC015A016B017901E6
:1014B0008B8D8823A1F12115310539F4EF89F88D41
:1014C000E480F5800894E11CF11C0115110531F44C
:1014D000E98DFA8D048115810F5F1F4FEF89F88D1B
:1014E000848195810196E816F90691F4E98DFA8DCB
:1014F0008481958101960817190751F4EA89FB89BF
:1015000090818E892D89822B80958923808328C0A4
:10151000E881F9810088F189E02DCE0119958F8944
:10152000988DE114F10419F470E8E72EF12CB7015D
:101530000E94FF09882361F0898D9A8D011511059C
:1015400011F400E110E0B8010E94FF09882341F482
:10155000E881F9810088F189E02DCE0119954CC010
:10156000E98DFA8D13821282828193819183808327
:10157000EF89F88D13821282828193819183808317
:1015800081E08B8F1A141B041C041D0454F5E88998
:10159000F98980E0A81681EEB80680E0C80680E0F0
:1015A000D80631F181E090E00C8802C0880F991FC5
:1015B0000A94E2F7808360E079E08DE390E0A60191
:1015C00095010E94045821503040404050405695AB
:1015D000479537952795EC85FD853083EE85FF850A
:1015E0002083EA89FB8980819D89892B808304C0BF
:1015F000108220E130E0EFCFDF91CF911F910F916A
:10160000FF90EF90DF90CF90BF90AF900895CF9371
:10161000DF93EC011B821A828A819B8199838883E4
:101620001D821C828E819F81009721F00E948C5127
:101630001F821E82DF91CF910895CF93DF93EC013B
:10164000EA89FB8990818E892D89822B8095892357
:1016500080838F89988D0E94070B898D9A8D0E94B7
:10166000070B1B8EDF91CF9108952F923F924F92DF
:101670005F926F927F928F929F92AF92BF92CF9222
:10168000DF92EF92FF920F931F93DF93CF93CDB72B
:10169000DEB764970FB6F894DEBF0FBECDBF7C01F6
:1016A0006A8B5F874E87A9011E010894211C311C9B
:1016B00002C04C855D85EE85FF858A8980FD659138
:1016C00080FF6191FF87EE87662309F4E1C36532ED
:1016D00051F4982F90FD859190FF8191FF87EE87BF
:1016E000853201F510C06A3071F4D701ED91FC919B
:1016F0000190F081E02DC7016DE04B8B5C8B19955B
:101700006AE04B895C89D701ED91FC910190F081F1
:10171000E02DC7014B8B5C8B19954B895C895D87EC
:101720004C87C7CF10E0DD2400E00032B0F48B32EC
:1017300069F08C3228F4803251F0833271F40BC09E
:101740008D3239F0803349F401602CC002600460AE
:1017500029C0086027C0006125C007FD2FC0982F51
:1017600090539A3098F406FF08C0812F880F182FE5
:10177000110F110F180F190F15C08D2D880FD82EAE
:10178000DD0CDD0CD80ED90E00620CC08E3221F4B7
:1017900006FD7EC3006406C08C3611F4006802C0EA
:1017A000883661F4EE85FF859A8990FD859190FFDA
:1017B0008191FF87EE87882309F0B7CF982F955442
:1017C000933018F40061805E06C0982F95569330D0
:1017D00008F0E5C10F7E06FF16E06FE3C62EC022BB
:1017E000853619F4A0E4CA2A07C0863619F4B0E891
:1017F000CB2A02C011111150C7FE05C01C3340F4A2
:10180000712E739407C0183038F4212F772407C045
:101810003CE3732E27E003C0772427E017E0FA01AA
:101820003496FD87EC87DA016D917D918D919C91C5
:10183000A101072D0E94BB045C018980E82DF0E026
:10184000F98BE88B80FE03C0F889F3FF06C0C1FC6A
:1018500006C0C2FE06C000E205C00DE203C00BE2F6
:1018600001C000E0888999898C709070009709F414
:1018700044C0002311F084E001C083E08D1578F4AA
:10188000D81AC3FC0DC0D701ED91FC910190F081F5
:10189000E02DC70160E21995DA94A9F701C0DD24B3
:1018A000002349F0D701ED91FC910190F081E02DEA
:1018B000C701602F1995B889B3FD03C00DE212E08E
:1018C00012C009E212E00FC0A114B10409F0605285
:1018D000D701ED91FC910190F081E02DC7011995A0
:1018E0000F5F1F4F05C0AC2CBB24B0E1AB22BB2463
:1018F000F8016491662341F7C8C2C7FE0EC07A0C96
:10190000F889F4FF04C08A81813309F47A941714AA
:1019100054F5872D893050F52DC0C6FC2BC0812F82
:1019200090E08A159B053CF09CEFA9169FEFB90645
:1019300014F0A0E8CA2A112359F0E2E0F0E0EC0F1D
:10194000FD1FE10FF11D8081803311F41150F3CFA1
:10195000C7FE10C0712E7394812F90E0A816B906AF
:1019600044F41A1907C07724739404C028E0722E37
:1019700001C010E0C7FE06C01A141B0434F4C501F0
:10198000019605C085E090E002C081E090E0011181
:101990000196112331F0212F30E02F5F3F4F820F4E
:1019A000931F2D2D30E08217930714F4D81A01C02D
:1019B000DD244C2C5524C20189709070009769F485
:1019C0000AC0D701ED91FC910190F081E02DC70193
:1019D00060E21995DA94DD20A1F7002349F0D701E0
:1019E000ED91FC910190F081E02DC701602F1995D8
:1019F00043FC0DC00AC0D701ED91FC910190F0812C
:101A0000E02DC70160E31995DA94DD20A1F7C7FE48
:101A100054C04501B7FE02C08824992425010894CA
:101A2000411C511C48185908420C531CF501E71978
:101A3000F1093F01012F10E0109501951F4FFFEFB5
:101A40008F16FFEF9F0649F4D701ED91FC910190AD
:101A5000F081E02DC7016EE21995A814B90434F0A5
:101A6000681479041CF4F201608101C060E30894F9
:101A7000810891080894411C511C801691064CF075
:101A8000D701ED91FC910190F081E02DC7011995EE
:101A9000D6CF8A149B0441F48A81863320F485339F
:101AA00019F4B889B4FF61E3D701ED91FC91119766
:101AB0000190F081E02DC70170C06A81613311F09F
:101AC000BFEE8B22CE2C0F2DD701ED91FC91019012
:101AD000F081E02DC70119951123D9F0D701ED91BF
:101AE000FC910190F081E02DC7016EE2199592E022
:101AF000792EF101E70DF11D60817394D701ED910D
:101B0000FC910190F081E02D8C2D902F19951150B2
:101B100081F7D701ED91FC9111970190F081E02DB3
:101B200044FE02C065E401C065E68C2D902F199536
:101B3000B7FC05C0A114B10441F484FE06C0B09402
:101B4000A194B108B3946DE201C06BE2D701ED91AD
:101B5000FC910190F081E02D8C2D902F199560E380
:101B600005C06F5FE6EFFFEFAE0EBF1EFAE0AF16E7
:101B7000B104BCF7D701ED91FC910190F081E02D0B
:101B80008C2D902F1995D701ED91FC916A2D605DF8
:101B90000190F081E02D8C2D902F199576C1833620
:101BA00031F0833781F0833509F060C021C0FA013C
:101BB0003296FD87EC87DA018C918983410181E0BF
:101BC000A82EB12C13C0FA013296FD87EC87DA01FA
:101BD0008D909C90119706FF03C0612F70E002C0AA
:101BE0006FEF7FEFC4010E9493585C010F7714C020
:101BF000FA013296FD87EC87DA018D909C9011975F
:101C000006FF03C0612F70E002C06FEF7FEFC401D9
:101C10000E9478585C01006803FD24C00AC0D70107
:101C2000ED91FC910190F081E02DC70160E21995E2
:101C3000DA948D2D90E0A816B90688F313C0F4014C
:101C400007FD659107FF61914F01D701ED91FC916F
:101C50000190F081E02DC7011995D110DA94089414
:101C6000A108B108A114B10451F70FC1843611F0D5
:101C7000893661F507FF0BC0FA013496FD87EC87C2
:101C8000DA016D917D918D919C9113970CC0FA01B1
:101C90003296FD87EC87DA016D917C911197882748
:101CA00077FD8095982F0F7697FF08C090958095C7
:101CB000709561957F4F8F4F9F4F0068A1012AE07B
:101CC00030E00E949305C82EC21842C0853721F427
:101CD0000F7E2AE030E020C0097F8F36A9F08037E0
:101CE00020F4883509F0D4C00BC0803721F0883744
:101CF00009F0CEC001C0006104FF09C0046007C044
:101D000004FF08C0066006C028E030E005C020E1FE
:101D100030E002C020E132E007FF0BC0FA01349648
:101D2000FD87EC87DA016D917D918D919C911397E0
:101D300009C0FA013296FD87EC87DA016D917C913A
:101D400080E090E0A1010E949305C82EC2180F7791
:101D500006FF09C00E7FC11630F404FF06C002FD65
:101D600004C00F7E02C08C2C01C0812E802F90E019
:101D700004FF0CC0FE01EC0DF11D2081203311F495
:101D8000097E09C0839402FF06C004C08678907063
:101D9000009709F08394A02EBB2403FD18C000FF18
:101DA00013C08D1428F41C2D1D0D18198D2C0CC07A
:101DB0001C2D0AC0D701ED91FC910190F081E02D1E
:101DC000C70160E2199583948D14A0F304C08D14AB
:101DD00010F4D81801C0DD24A4FE1CC00E2D8F2CD9
:101DE000D701ED91FC910190F081E02DC70160E3F6
:101DF0001995A2FE2EC0D701ED91FC91119701908B
:101E0000F081E02DA1FE02C068E501C068E7802FE7
:101E1000982D13C0C501867890700097D1F0A1FC71
:101E200002C060E201C06BE207FD6DE2D701ED91F7
:101E3000FC910190F081E02DC70119950AC0D701EE
:101E4000ED91FC910190F081E02DC70160E31995BF
:101E50001150C116A0F3CA94D701ED91FC91D101A4
:101E6000AC0DB11D0190F081E02DC7016C91199569
:101E7000CC2089F70AC0D701ED91FC910190F08147
:101E8000E02DC70160E21995DA94DD20A1F711CCAD
:101E900064960FB6F894DEBF0FBECDBFCF91DF9131
:101EA0001F910F91FF90EF90DF90CF90BF90AF9078
:101EB0009F908F907F906F905F904F903F902F906A
:101EC0000895CF93DF93EC0181E08A8384E090E072
:101ED0009D838C83798768871C86E881F9810190CE
:101EE000F081E02DCE011995E881F9812E850280DF
:101EF000F381E02DCE016A8140E050E01995E88140
:101F0000F9810280F381E02DCE016A8141E050E049
:101F10002D851995E881F98128890280F381E02DCA
:101F2000CE016A8142E050E01995E881F981028092
:101F3000F381E02DCE016A8143E050E02F851995B1
:101F4000DF91CF910895CF93DF93EC011D821C8226
:101F5000E881F981488559850480F581E02D6A8101
:101F600020E01995888599850196998788872E891B
:101F70003F892817390710F481E08C878A818130E6
:101F800011F482E001C081E08A83DF91CF9108954E
:101F9000CF93DF93EC01262F8C85882309F069C04D
:101FA000E881F9814C815D810280F381E02DCE01D1
:101FB0006A8119958C819D8101969D838C832C89E2
:101FC0003D898217930708F454C084E090E09D8314
:101FD0008C83E881F981488559850480F581E02D5D
:101FE000CE016A8120E019958885998501969987A7
:101FF00088872E893F892817390710F481E08C875C
:102000008A81813011F482E001C081E08A83E88115
:10201000F9812E850280F381E02DCE016A8140E0B6
:1020200050E01995E881F9810280F381E02DCE011D
:102030006A8141E050E02D8519952F8538892F5F01
:102040003F4F388B2F87E881F9810280F381E02DA3
:10205000CE016A8142E050E0232F1995E881F98191
:102060000280F381E02DCE016A8143E050E02F85AC
:102070001995DF91CF910895EF92FF920F931F93DF
:10208000CF93DF93EC017A018B01272F552727FD92
:102090005095352F452F622F0E94C80F9801552764
:1020A00037FD5095452FCE01622F0E94C80F55274E
:1020B00017FD5A95412F302F2F2DCE01622F0E94F0
:1020C000C80FCE016E2D0E94C80FDF91CF911F91D6
:1020D0000F91FF90EF9008951F93CF93DF93EC0142
:1020E00081E08B8384E090E09F838E837B876A8787
:1020F000E881F9810190F081E02DCE011995E88108
:10210000F9814A855B850680F781E02DCE016B81E0
:1021100019958A859B8501969B878A87E881F98135
:102120000084F185E02DCE016B8140E050E01995EF
:10213000182F8D871E86E881F9810084F185E02DB6
:10214000CE016B8141E050E01995312F20E090E005
:10215000822B932B9E878D87E881F9810084F185FE
:10216000E02DCE016B8142E050E01995182F8F874A
:10217000188AE881F9810084F185E02DCE016B8118
:1021800043E050E01995312F20E090E0822B932B13
:10219000988B8F87DF91CF911F9108950F931F9395
:1021A000CF93DF93EC01E881F9810190F081E02D7C
:1021B0001995E881F9814E815F810084F185E02DD8
:1021C000CE016B811995182F8E819F8101969F8377
:1021D0008E832C893D898217930708F456C084E0CA
:1021E00090E09F838E83E881F9814A855B85068034
:1021F000F781E02DCE016B8119958A859B8501962B
:102200009B878A872E893F892817390710F41B86F8
:102210001A86E881F9810084F185E02DCE016B8179
:1022200040E050E01995082F8D871E86E881F981DE
:102230000084F185E02DCE016B8141E050E01995DD
:10224000302F20E090E0822B932B9E878D87E881B2
:10225000F9810084F185E02DCE016B8142E050E0F0
:102260001995082F8F87188AE881F9810084F185F4
:10227000E02DCE016B8143E050E01995302F20E036
:1022800090E0822B932B988B8F87812FDF91CF91BA
:102290001F910F910895EF92FF920F931F93CF9389
:1022A000DF93EC010E94CE1090E0A0E0B0E0EE24BD
:1022B000F82E092F1A2FCE010E94CE1090E0A0E038
:1022C000B0E08E299F29A02BB12BEE24F82E092FE8
:1022D0001A2FCE010E94CE1090E0A0E0B0E08E292F
:1022E0009F29A02BB12BEE24F82E092F1A2FCE01F7
:1022F0000E94CE10282F30E040E050E02E293F29E8
:10230000402B512BB901CA01DF91CF911F910F9141
:10231000FF90EF900895EF92FF920F931F93CF934A
:10232000DF93EC017B0101E010E010C0E881F9814E
:102330000484F585E02DCE01B801199561E070E0C7
:1023400080E090E0F70119950F5F1F4F6E897F893C
:102350006F5F7F4FCB01E3E096958795EA95E1F7B4
:102360008017910718F7CE010E94610FCE0141E15D
:1023700050E262E178E20E943C10CE010E94A30F7D
:10238000DF91CF911F910F91FF90EF900895CF9320
:10239000DF93EC016E897F896F5F7F4F0E946C1025
:1023A000CE010E944B1121E0613130E2730732E12E
:1023B000830738E2930709F420E0822FDF91CF9161
:1023C0000895CF93DF93EC016E897F890E946C1092
:1023D00081E02D853E859FEF2F3F390709F480E08E
:1023E000DF91CF9108958F929F92AF92BF92CF923B
:1023F000DF92EF92FF920F931F93CF93DF93EC0145
:10240000AE88BF8861E070E00E946C10ED84FE84AD
:1024100000E010E08701FF24EE248F859889A0E07A
:10242000B0E0E82AF92A0A2B1B2B41E0842E912CDC
:102430002DC06501C80CD91CD694C794CE01B60135
:102440000E946C108D859E85A0E0B0E0DC0199278C
:1024500088272F85388940E050E0822B932BA42BCE
:10246000B52B803020E092072FEFA2072FEFB207A5
:1024700018F080E090E0DC018E159F05A007B10701
:1024800010F4560103C07C018D014601C501881975
:1024900099098230910568F66501CE01B5010E9467
:1024A0006C108D859E85A0E0B0E0DC01992788271F
:1024B0002F85388940E050E0822B932BA42BB52B3D
:1024C000803020E092072FEFA2072FEFB20728F409
:1024D000E816F9060A071B0708F06401C601DF9138
:1024E000CF911F910F91FF90EF90DF90CF90BF9011
:1024F000AF909F908F900895CF93DF93EC010E944F
:10250000F311BC01CE010E946C108D859E85DF9178
:10251000CF9108950F931F93CF93DF93EC010E9407
:10252000F311182F092FCE01612F702F0E946C100C
:10253000CE010E947C12009731F02D853E858FEFF1
:102540002F3F380769F581E090E09E878D87988B53
:102550008F87CE0161E070E01CC021E030E0388B55
:102560002F87CE01612F702F14C0C801692F702FE3
:102570008FEF6F3F780711F460E070E02F5F3F4FFF
:102580003E872D8781E090E0988B8F876F5F7F4F2C
:10259000CE010E94610FDF91CF911F910F9108959D
:1025A0004F8558894230510500F7D7CFEF92FF92FF
:1025B0000F931F93CF93DF93EC010E94F3118130AF
:1025C000910529F48AEB96E066E572E00FC0CE0132
:1025D00061E070E00E946C108D859E852FEF8F3F2B
:1025E000920741F48AEB96E061E372E00E946D0885
:1025F00080E024C0CE010E94F3117C01CE01B7011E
:102600000E946C100D851E85B7016E5F7F4FCE0155
:102610000E946C102D853E850217130738F4CE01F9
:1026200061E070E00E946C102D853E850217130753
:1026300021F0802F8F5F821B01C081E0DF91CF915D
:102640001F910F91FF90EF9008956F927F928F925C
:102650009F92AF92BF92CF92DF92EF92FF920F9331
:102660001F93CF93DF93EC015B010E94E11188235C
:1026700091F0CE0161E070E00E946C108D859E8526
:10268000A816B90640F4CE010E94F311082F192FA5
:10269000CE88DF8807C0CE010E94F311C82ED92E44
:1026A00001E010E035018824992443017724662451
:1026B0008FEF9FEFA0E0B0E0682A792A8A2A9B2A50
:1026C00028C07601E00EF11EF694E794CE01B70122
:1026D0000E946C108D859E85A0E0B0E0DC019927FA
:1026E00088272F85388940E050E0822B932BA42B3C
:1026F000B52B803020E092072FEFA2072FEFB20713
:1027000028F4681679068A069B0610F0870101C036
:102710006701C601801B910B8230910590F676010E
:10272000CE01B6010E946C108D859E858A159B0591
:1027300069F07801CE01B8010E946C108D859E85EC
:102740008A159B0519F0EE24EA94FE2CC701DF914F
:10275000CF911F910F91FF90EF90DF90CF90BF909E
:10276000AF909F908F907F906F9008958F929F92DF
:10277000BF92CF92DF92EF92FF920F931F93CF936E
:10278000DF93EC01B62E8A0169010E94D612E82E71
:10279000FF2421E0E216F104F1F46E897F89CE0175
:1027A0000E946C108D859E85EFEF8F3F9E0751F440
:1027B000F801F182E082CE016B2D70E00E942513BA
:1027C000F6011AC0CE016B2D70E00E942513F601B0
:1027D0009183808322C0FB2DF13089F46E897F893B
:1027E000CE010E946C108D859E852FEF8F3F920742
:1027F00089F481E090E0F8019183808325C08B2CDF
:102800009924CE010E947C128E199F090196881688
:10281000990629F4CE010E94F3110196ECCF7401C0
:102820000894E108F108CE01B7010E942513019632
:10283000F801918380831816190634F00894E10892
:10284000F1081E141F047CF3F801208131818E8968
:102850009F8901962817390719F02115310529F4A8
:1028600081E090E0F80191838083CE016B2D70E0D0
:102870000E942513F601918380831816190634F0FF
:10288000F80180819181F60191838083DF91CF915E
:102890001F910F91FF90EF90DF90CF90BF909F908E
:1028A0008F9008958EBD0DB407FEFDCF8EB50895AF
:1028B00041E0FC0126893789FFE02F3F3F0708F4FC
:1028C00040E0842F08951F93CF93DF93EC01162FE0
:1028D000888D998D009751F0DC01ED91FC9101906C
:1028E000F081E02DBE0119958823D1F0809130014F
:1028F00085FFFCCF109336018091300187FFFCCF1C
:1029000010913601A88DB98D109759F0ED91FC9179
:1029100011970280F381E02DCD01BE01199501C010
:1029200010E0812FDF91CF911F9108958CE161E03C
:102930000E94205408958CE160E00E942054089584
:10294000FF920F931F93CF93DF93EC01062F142F69
:10295000F52E0E949B14013019F4CE0164ED02C0E3
:10296000CE0166ED0E946314CE0160E00E94631404
:10297000CE016F2D0E946314CE01612F0E9463145B
:10298000CE0160E00E946314CE0160E00E946314F7
:10299000182FCE010E949614812FDF91CF911F91A5
:1029A0000F91FF900895EF92FF920F931F93CF9393
:1029B000DF93EC01062F142FF52EE22E0E949B14BC
:1029C000013019F4CE0164E802C0CE0167E80E942C
:1029D0006314CE0160E00E946314CE016F2D0E944B
:1029E0006314CE01612F0E946314CE016E2D0E94EC
:1029F0006314CE010E949614DF91CF911F910F9125
:102A0000FF90EF9008951F93CF93DF93EC010E9406
:102A10009B14CE016FE90E946314CE016FEF0E94F8
:102A20006314898BCE016FEF0E946314182F8A8B79
:102A30001B8ACE016FEF0E946314312F20E090E0DB
:102A4000822B932B9B8B8A8BCE016FEF0E9463149A
:102A5000CE010E949614DF91CF911F9108951F938C
:102A6000CF93DF93EC010E949B14CE0167ED0E948F
:102A70006314CE0160E00E946314182FCE010E94FF
:102A80009614812FDF91CF911F9108950E942F15E9
:102A9000807808950F931F93CF93DF93EC018B0100
:102AA0000E949B14CE0167EC0E946314CE0164E97E
:102AB0000E946314CE0160E80E946314CE016AE9AB
:102AC0000E946314CE010E949614CE010E949B14B2
:102AD00006C061E070E080E090E0F8011995CE0159
:102AE0000E9446158823A9F3CE010E949614DF9117
:102AF000CF911F910F9108950F931F93CF93DF9361
:102B0000EC018B010E949B14CE0160E50E946314CE
:102B10008C899D8922E08030920769F4B80194E0A5
:102B2000769567959A95E1F7CE010E946314602F20
:102B30006295607F0DC0B80183E0769567958A95B0
:102B4000E1F7CE010E946314602F6295660F607EEC
:102B5000CE010E946314CE0160E00E946314CE0196
:102B60000E949614CE010E949B14CE010E9446152D
:102B70008823D9F3CE010E949614DF91CF911F9143
:102B80000F9108950F931F93CF93DF93EC018B0167
:102B90000E949B14CE0161E80E9463148C899D8978
:102BA00022E08030920761F4B801660F672F661F3C
:102BB000770B7195CE010E946314602F660F0CC0D5
:102BC000B80126E0769567952A95E1F7CE010E9437
:102BD0006314602F660F660FCE010E946314CE014E
:102BE00060E00E946314CE010E949614CE010E9400
:102BF0009B14CE010E9446158823D9F3CE010E9472
:102C00009614DF91CF911F910F910895CF92DF928B
:102C1000FF920F931F93DF93CF930F92CDB7DEB741
:102C20006C018A01F22E69830E949B1469816130D4
:102C300019F4C60163E802C0C60166E80E94631485
:102C4000F60184899589F2E080309F0761F4B8012C
:102C5000660F672F661F770B7195C6010E9463147C
:102C6000602F660F0CC0B80146E0769567954A95CF
:102C7000E1F7C6010E946314602F660F660FC6015C
:102C80000E946314C60160E00E946314C6010E94A2
:102C90009614C6010E949B14FF2029F0C6010E94D1
:102CA00046158823D9F3C6010E9496140F90CF9140
:102CB000DF911F910F91FF90DF90CF900895EF92D9
:102CC000FF920F931F93DF93CF930F92CDB7DEB791
:102CD0007C018A0169830E949B146981613019F427
:102CE000C70163E502C0C70165E50E946314F701EF
:102CF00084899589F2E080309F0761F4B801660FFE
:102D0000672F661F770B7195C7010E946314602FB0
:102D1000660F0CC0B801E6E076956795EA95E1F795
:102D2000C7010E946314602F660F660FC7010E94DF
:102D30006314C70160E00E946314C7010E949614E7
:102D4000C7010E949B14C7010E9446158823D9F32E
:102D5000C7010E9496140F90CF91DF911F910F91A0
:102D6000FF90EF900895CF93DF93EC01CE010E9486
:102D700046158823D9F3DF91CF9108950E942F152E
:102D800090E081709070A4E0880F991FAA95E1F7F8
:102D900020E132E0281B390BC9010895CF93DF935E
:102DA000EC011F8A1E8A8EE061E00E94DB538FE0F7
:102DB00060E00E94DB538CE161E00E94DB5389E21A
:102DC00061E00E94DB5381E260E00E94DB5389E214
:102DD00060E00E94205461E070E080E090E00E949A
:102DE000A15289E261E00E942054CE010E94961413
:102DF0001092350110923401809104018460809317
:102E0000040180EC8093320188E1809331011092BB
:102E1000350110923401CE010E94BE169D8B8C8B21
:102E2000E881F9810288F389E02DCE0119958B891B
:102E30008F71873019F48FEF9FE104C0863021F441
:102E40008FEF9FE09F8B8E8BDF91CF910895109233
:102E50002305109222051092250510922405109248
:102E600027051092260508956330710550F4FB0183
:102E7000EE0FFF1FEE5DFA4F5183408320E030E0FC
:102E800002C02FEF3FEFC90108951F920F920FB6B6
:102E90000F920BB60F9211242F933F934F935F9392
:102EA0006F937F938F939F93AF93BF93EF93FF9312
:102EB000E0912205F0912305309709F01995FF91D3
:102EC000EF91BF91AF919F918F917F916F915F91A2
:102ED0004F913F912F910F900BBE0F900FBE0F900F
:102EE0001F9018951F920F920FB60F920BB60F926C
:102EF00011242F933F934F935F936F937F938F93FF
:102F00009F93AF93BF93EF93FF93E0912405F091CC
:102F10002505309709F01995FF91EF91BF91AF9179
:102F20009F918F917F916F915F914F913F912F91E1
:102F30000F900BBE0F900FBE0F901F9018951F9211
:102F40000F920FB60F920BB60F9211242F933F934F
:102F50004F935F936F937F938F939F93AF93BF93A1
:102F6000EF93FF93E0912605F0912705309709F044
:102F70001995FF91EF91BF91AF919F918F917F91A3
:102F80006F915F914F913F912F910F900BBE0F90DA
:102F90000FBE0F901F90189530913805E9E2F5E0CB
:102FA00020E006C08191919186179707A9F02F5FC5
:102FB0002317C0F39FB7F89480913805853058F4F3
:102FC000E82FF0E0EE0FFF1FE75DFA4F718360839B
:102FD0008F5F809338059FBF089570933405609389
:102FE0003305089581E080933905089510923905DD
:102FF00008959091390581E089270895CF92DF9255
:10300000EF92FF920F931F93CF93DF938091280548
:103010008093B20078940E947B527B018C01809156
:103020003705882359F0E0913305F0913405309746
:1030300009F442C0C801B70119953EC081E08093F0
:10304000370580913905882361F539E2C32E35E0D3
:10305000D32EC0E0D0E00AC0D601ED91FD916D0104
:10306000309719F0C801B70119952196809138055C
:1030700090E0C817D90784F38FB7F894E09135052D
:10308000F091360510923605109235058FBF3097B6
:1030900041F081E080933905C801B701199510927C
:1030A0003905E0913305F0913405309719F0C801E6
:1030B000B701199510923705DF91CF911F910F91AC
:1030C000FF90EF90DF90CF900895CF93DF93EB01C7
:1030D00080913705882321F480913905882331F0C8
:1030E000D0933605C093350580E00AC081E0809317
:1030F00039050E947B52FE0119951092390581E035
:10310000DF91CF9108952AEF33E0FC0131832083D2
:10311000609328050895CB01E0E7F0E0108210925B
:10312000B00026E02093B1001092B20021E027BB4E
:1031300020831092340510923305109239051092B5
:10314000370510922A051092290510922C0510922D
:103150002B0510922E0510922D051092300510921D
:103160002F05109232051092310560E070E04EEFAD
:1031700057E10E9434170895EF92FF920F931F9327
:103180000E945857F62E072F182FE92E2F2D302F7B
:10319000412F5E2D0E949957882321F0FF2400E0E3
:1031A00010E0EE246F2D702F812F9E2D1F910F9117
:1031B000FF90EF9008956F927F928F929F92AF92BF
:1031C000BF92CF92DF92EF92FF920F931F93CF9314
:1031D000DF93EC016830710509F4EDC069307105C9
:1031E0002CF56430710509F494C0653071056CF4F8
:1031F0006230710509F456C0633071050CF060C08F
:103200006130710509F09AC13AC06630710509F460
:10321000A5C0A880B980CA80DB80EC80FD800E81CB
:103220001F81673071050CF0ABC081C06C30710537
:1032300009F413C16D307105ACF46A30710509F4FD
:10324000D6C0A880B980CA80DB80EC80FD800E816A
:103250001F81688479848A849B846B3071050CF0AB
:10326000D3C0AEC06E30710509F424C16E30710553
:103270000CF4FDC06F30710509F060C12EC1E8800B
:10328000F9800A811B81AC80BD80CE80DF80C801BF
:10329000B701A60195010E94595423EF34E045E39C
:1032A0005FE34FC088819981AA81BB812C813D81D8
:1032B0004E815F815058288339834A835B835BC08A
:1032C000E880F9800A811B81AC80BD80CE80DF80E0
:1032D000C801B701A60195010E94585423EF34E0BC
:1032E00045E35FE30E94EB566C837D838E839F836F
:1032F000C801B701A60195010E94595423EF34E09B
:1033000045E35FEB0E94EB56688379838A839B8356
:1033100015C188819981AA81BB81B058888399831E
:10332000AA83BB838C819D81AE81BF8123C0C601EE
:10333000B501A80197010E94595423EF34E045E3F9
:103340005FEB0E94EB566C837D838E839F83C80165
:10335000B701A60195010E94585428C0888199811F
:10336000AA81BB812C813D814E815F812883398375
:103370004A835B83B0588C839D83AE83BF83DEC05A
:10338000C801B701A60195010E94585423EF34E00B
:1033900045E35FE30E94EB566C837D838E839F83BE
:1033A000C601B501A80197010E94595423EF34E0EA
:1033B00045E35FE3A7CF8C819D81AE81BF8187C04C
:1033C000C601B501A80197010E94585423EF34E0CB
:1033D00045E35FE30E94EB566C837D838E839F837E
:1033E000C601B501A80197010E94595423C08881E4
:1033F0009981AA81BB812C813D814E815F81288387
:1034000039834A835B8364C0C801B701A601950173
:103410000E94595423EF34E045E35FE30E94EB56EA
:103420006C837D838E839F83C801B701A6019501BC
:103430000E94585423EF34E045E35FE30E94EB56CB
:10344000688379838A839B8397FA909497F8909402
:10345000688679868A869B8671C088819981AA81CF
:10346000BB81B05888839983AA83BB835EC0E88000
:10347000F9800A811B81AC80BD80CE80DF80C601CF
:10348000B501A80197010E94585423EF34E045E3A9
:103490005FE30E94EB566C837D838E839F83C8011C
:1034A000B701A60195010E94595423EF34E045E38A
:1034B0005FEB35C088819981AA81BB812C813D81D8
:1034C0004E815F815058288339834A835B83B0588B
:1034D0008C839D83AE83BF8328C0E880F9800A81F6
:1034E0001B81AC80BD80CE80DF80C801B701A60102
:1034F00095010E94595423EF34E045E35FEB0E94AD
:10350000EB566C837D838E839F83C801B701A60130
:1035100095010E94585423EF34E045E35FE30E9495
:10352000EB56688379838A839B8388859985AA85EE
:10353000BB85B05888879987AA87BB87DF91CF91D1
:103540001F910F91FF90EF90DF90CF90BF90AF90C1
:103550009F908F907F906F900895CF92DF92EF921F
:10356000FF920F931F93CF93DF93EC018B01688140
:1035700079818A819B81F801208131814281538147
:103580000E94EB566B017C016C817D818E819F8155
:10359000F80124813581468157810E94EB569B01B9
:1035A000AC01C701B6010E9459546B017C016885CA
:1035B00079858A859B85F8012085318542855385EB
:1035C0000E94EB569B01AC01C701B6010E94595401
:1035D000DF91CF911F910F91FF90EF90DF90CF90EF
:1035E0000895BC010E94AD1A0E9458570895DC014D
:1035F000ED91FC910088F189E02D19950E94BF554D
:103600002DEB37E346E855E30E94EB5608954F92C1
:103610005F926F927F928F929F92AF92BF92CF9262
:10362000DF92EF92FF920F931F93CF93DF93EC0102
:103630003B0129014801B701E881F9810688F78932
:10364000E02D19959B8F8A8FE8A0F9A00AA11BA1F4
:10365000ACA0BDA0CEA0DFA06C8D7D8D8E8D9F8D8A
:1036600020E030E0A9010E941F55882311F5C80110
:10367000B70120E030E0A9010E941F558823C9F45A
:10368000C601B50120E030E0A9010E941F55882342
:1036900081F480E090E0A0E8BFE38C8F9D8FAE8F37
:1036A000BF8F88A399A3AAA3BBA38CA39DA3AEA3FA
:1036B000BFA381E06816710449F0E881F981028CAA
:1036C000F38DE02DCE01B201A4011995DF91CF91C8
:1036D0001F910F91FF90EF90DF90CF90BF90AF9030
:1036E0009F908F907F906F905F904F9008952F9252
:1036F0003F924F925F926F927F928F929F92AF9282
:10370000BF92CF92DF92EF92FF920F931F93DF93BE
:10371000CF93CDB7DEB7A6970FB6F894DEBF0FBE36
:10372000CDBF69A37AA34BA35CA3802F912F9A8F5F
:10373000898F822E932E1E010894211C311C9E011C
:10374000235F3F4F3EA32DA331014424552430E88D
:103750003B8F8FE38C8FF401E484F5840685178515
:10376000A98DBA8D6D917D918D919D91BA8FA98F03
:1037700024E030E0820E931E20813181428153810A
:103780000E945854D62EC72EB82EA92EC801B701B4
:10379000A80197010E94EB56D601F5012B2F3A2F75
:1037A0004F2F5E2F0E94EB56D601F5012B2F3A2F9B
:1037B0004F2F5E2F0E94EB569B01AC01FB8DEC8DD1
:1037C000642D752D8F2F9E2F0E9458546D8F7E8FE4
:1037D0008F8F98A32B018B8F9C8FC801B701A801F5
:1037E00097010E945954A80197010E94EB56D601F7
:1037F000F5012B2F3A2F4F2F5E2F0E94EB56D3014E
:103800006D937D938D939D933D01C801B70120E099
:1038100030E040E050EC0E94EB56D601F5012B2F32
:103820003A2F4F2F5E2F0E94EB56D601F5012B2F1A
:103830003A2F4F2F5E2F0E94EB56F301608771875E
:10384000828793872DA13EA16216730609F083CF6C
:1038500099A18AA1C92ED82E9BA18CA1A92EB82EE0
:10386000C10148969A8F898F4101D4014D905D9096
:103870006D907D904D01C301B201BD8DAE8DFF8D68
:10388000E8A12B2F3A2F4F2F5E2F0E94EB569B0162
:10389000AC01F60160817181828193810E9459544B
:1038A000D6016D937D938D939D936D01750181017B
:1038B000F80121913191419151918F01C301B201E0
:1038C0000E94EB569B01AC01D7016D917D918D91CA
:1038D0009C910E945954F701619371938193919344
:1038E0007F01298D3A8D0217130711F788E190E0C7
:1038F000A80EB91E8016910609F0B7CFA6960FB68E
:10390000F894DEBF0FBECDBFCF91DF911F910F9115
:10391000FF90EF90DF90CF90BF90AF909F908F90EF
:103920007F906F905F904F903F902F900895CF932E
:10393000DF93862F972FEC01E42FF52F26E030E060
:1039400080E090E0DC0189939993A993B9938083F7
:103950009183A283B38384839583A683B78380876F
:103960009187A287B38784879587A687B787808B3F
:10397000918BA28BB38B848B958BA68BB78B2150AD
:103980003040789621153105F1F6DF91CF910895F9
:103990002F923F924F925F926F927F928F929F925F
:1039A000AF92BF92CF92DF92EF92FF920F931F934D
:1039B000DF93CF93CDB7DEB764970FB6F894DEBF31
:1039C0000FBECDBF7C836B8358874F832B873C878B
:1039D0007A8769875E834D837A83698380E090E08C
:1039E0008A0101C0C1011C010894211C311C610124
:1039F000CC0CDD1CCC0CDD1CC00ED11E085E1F4F94
:103A000049805A8071019C01220F331F220F331FFE
:103A10003E872D87388A2F861A8B098B7AC0D6016C
:103A20006D917D918D919D916D01ED81FE81208142
:103A30003181428153810E942655662E272E782E91
:103A4000392E20E030E0A9010E941F55882309F497
:103A500057C0662D722D872D932DA981BA812D9186
:103A60003D914D915C910E94EB569B01AC01F2019E
:103A700064817581868197810E945854D201149681
:103A80006D937D938D939C931797C701880F991F12
:103A9000880F991F800F911FAD84BE84A00EB11EA8
:103AA00047019C8B8B8BC801850157017C01662DDA
:103AB000722D872D932DF801208131814281538110
:103AC0000E94EB569B01AC01AB89BC896D917D9145
:103AD0008D919C910E945854EB89FC89608371837D
:103AE000828393830894811C911C7896FC8BEB8BCA
:103AF000085E1F4FF6E08F169104C9F68701750125
:103B00000894E11CF11C24E030E0420E531E085ED4
:103B10001F4F36E0E316F1040CF481CF2F84388870
:103B200009891A8989819A8104969A838983AD814A
:103B3000BE815C96BE83AD83B6E02B16310409F0DE
:103B400051CF2B813C81285E3F4F8F8198858858CB
:103B50009F4F8C010C5E1F4F3C0185E0E82EF12C3D
:103B60000F2EF0E02F2EF0E03F2EF0E84F2EFFE377
:103B70005F2EF02D3A832983E981FA819291829117
:103B800072916291FA83E983D8012D913D914D9113
:103B90005C910E942655E981FA816083718382835A
:103BA0009383D8012D923D924D925C921397AB80F6
:103BB000BC80882499248F017A8269826D012AC091
:103BC000E981FA816081718182819381D8012D918F
:103BD0003D914D915C910E94EB569B01AC01F5012A
:103BE00060817181828193810E945854D5016D93C7
:103BF0007D938D939D935D01E981FA8180E090E052
:103C0000DC0181939193A193B193FA83E9830894A2
:103C1000811C911C8E149F049CF21A8309838601D7
:103C20000894E108F1080C51104028EE3FEF620EB5
:103C3000731E3FEFE3163FEFF30609F09DCF3B8580
:103C40002C85832F922FFC0120E030E049855A8596
:103C5000BF01FA0181919191A191B191AF01FB0155
:103C600081939193A193B193BF012F5F3F4F263072
:103C7000310579F764960FB6F894DEBF0FBECDBF5D
:103C8000CF91DF911F910F91FF90EF90DF90CF9038
:103C9000BF90AF909F908F907F906F905F904F906C
:103CA0003F902F9008952F923F924F925F926F9284
:103CB0007F928F929F92AF92BF92CF92DF92EF92BC
:103CC000FF920F931F93DF93CF93CDB7DEB76E971D
:103CD0000FB6F894DEBF0FBECDBF7C017A8769872F
:103CE00058874F8364E670E080E090E029853A854C
:103CF000F901199500D00F920AEB16E0ADB7BEB7E7
:103D000012961C930E9311978CEC93E014969C934F
:103D10008E9313970E94A50880E090E0DC01F701E4
:103D200080A791A7A2A7B3A784A795A7A6A7B7A77F
:103D300080AB91ABA2ABB3AB80E090E0A0E8BFE377
:103D4000848F958FA68FB78F80A391A3A2A3B3A3CF
:103D500084A395A3A6A3B7A30F900F900F900F90E5
:103D60001B8A1C8AFAEFFD8B23E42E8B1F8A188E88
:103D70003AEF398F83E48A8F1D861E869AEF9F87DC
:103D8000A3E4A88B19820B8F1C8FFE8EED8E11C0C1
:103D9000BA81BB8BEB81EC8BFC81FD8B2D812E8B53
:103DA0009F8A888E798E3E813A8F1D87CE86BF8608
:103DB000A88AAD8DBE8DED91FC9111970084F1859F
:103DC000E02DCD011995ED8DFE8D12850385F484CE
:103DD000E584C680B780F085FB87AD8DBE8D1996D2
:103DE000BC91BC87ED8DFE8DA2803380F481F98B70
:103DF000AD8DBE8D1596BC91BA8B62E3D62E64E173
:103E000070E080E090E0E985FA851995AD8DBE8D72
:103E1000ED91FC9111970084F185E02DCD0119956C
:103E200039892A896A2D732D832F922F26E636E64B
:103E300046E65FE30E94EB56A62E972E882E792E3B
:103E40003B852C856C2D7B2D832F922F26E636E625
:103E500046E65FE30E94EB56C62EB72E682E592E1B
:103E6000A8019701652F702F832F9E2D26E636E639
:103E700046E65FE30E94EB56162F072FF82EE92E39
:103E8000ED8DFE8D62817381848195812DEC3CECFA
:103E90004CEC5DE30E94EB569B01AC016A2D792D41
:103EA000882D972D0E9459546A837B838C839D8330
:103EB000A62E372E898B9A8BAD8DBE8D16966D9161
:103EC0007D918D919C9119972DEC3CEC4CEC5DE330
:103ED0000E94EB569B01AC016C2D7B2D862D952D00
:103EE0000E945954962E872E782E9E83C62EB72E6A
:103EF0008B879C87ED8DFE8D628573858485958586
:103F00002DEC3CEC4CEC5DE30E94EB569B01AC01CC
:103F1000D801F7016B2F7A2F8F2F9E2F0E945954B3
:103F2000662E472E582E292E162F072FF82EE92EF3
:103F3000F981F53011F500D00F92EB8DADB7BEB71A
:103F40001196EC931197FC8D1296FC9312972AEC24
:103F500033E014963C932E9313970E94A5080F907C
:103F60000F900F900F908F819885009781F081E0DE
:103F7000AF81B885FD0119950AC0B981BA303CF00E
:103F8000EF81F885309711F080E019951982F98159
:103F9000FF5FF983DA9409F032CF662D742D852DF9
:103FA000922D2AE038EE4CE151E40E945954162F2C
:103FB000C72EB82EA92E5B894C893D892E89652F85
:103FC000742F832F922FBA81AB810C81FD802B2F10
:103FD0003A2F402F5F2D0E9458541B012C01E8946A
:103FE00057F85F89488D398D2A8D652F742F832F5F
:103FF000922FD401FE802B2F382D472D5F2D0E944C
:1040000058549B01AC015F77C201B1010E94595421
:104010001B012C015D854E853F852889652F742FF6
:10402000832F922FF501212F3C2D4F2F5E2F0E94C1
:1040300058549B01AC015F77C201B1010E945954F1
:10404000662E572E482E392E5A814B813C812D8168
:10405000652F742F832F922FD4012B2F382D472DAE
:104060005F2D0E94E05618162CF40A81FB80EC802C
:10407000DD8004C0092DF82CE72CDE80602F7F2D19
:104080008E2D9D2D212F3C2D4B2D5A2D0E94E0561B
:10409000181624F0012FFC2CEB2CDA2C64EF71E0C5
:1040A00080E090E029853A85F9011995662D752DF6
:1040B000842D932D20E030E040E850E40E94E0564B
:1040C00018160CF465CE602F7F2D8E2D9D2D20E0CF
:1040D00030E04AE753E40E94E05618160CF458CE3C
:1040E000ED8CFE8C5A814B813C812D81852F942F44
:1040F000A32FB22FF70180A791A7A2A7B3A7A4016E
:104100002E81852F982DA72DB22F84A795A7A6A71E
:10411000B7A79501812F9C2DA32FBA2D80AB91AB12
:10412000A2ABB3AB00D00F928AEB96E0ADB7BEB7AF
:1041300012969C938E93119788EC93E014969C931F
:104140008E9313970E94A5080F900F900F900F90D9
:104150006E960FB6F894DEBF0FBECDBFCF91DF9144
:104160001F910F91FF90EF90DF90CF90BF90AF9095
:104170009F908F907F906F905F904F903F902F9087
:1041800008952F923F924F925F926F927F928F92FB
:104190009F92AF92BF92CF92DF92EF92FF920F93D6
:1041A0001F93DF93CF93CDB7DEB7E9970FB6F8949F
:1041B000DEBF0FBECDBF8C0178A36F8F5F8B4E8BA0
:1041C00064E670E080E090E02F8D38A1F901199548
:1041D00000D00F928AEB96E0ADB7BEB712969C93D3
:1041E0008E9311978EEF93E014969C938E93139772
:1041F0000E94A50880E090E0DC01F80184AB95AB5B
:10420000A6ABB7AB80AF91AFA2AFB3AF84AF95AF62
:10421000A6AFB7AF0F900F900F900F9079E1E72EF8
:10422000F12CCE88DF88C114D10419F081E0F601A9
:10423000199564E170E080E090E02F8D38A1F901DC
:104240001995D801ED91FC910084F185E02DC8010C
:104250001995C114D10419F080E0F601199564E1B3
:1042600070E080E090E0EF8DF8A119950894E108E6
:10427000F108E114F104B9F619A21AA21BA21CA2BA
:104280001DA21EA21FA218A619A61AA61BA61CA62E
:10429000198E1A8E1B8E1C8E188E19AA1AAA1BAA8A
:1042A0001DA61EA61FA618AA1E8E1D8E1A8A1B8A60
:1042B0001C8A1D8A380111C0FE85F9A32F852AA307
:1042C00038893BA389898CA3BDA2AEA29FA29D85FC
:1042D00098A7F9A6EAA6DBA6CCA680E090E0DC01D0
:1042E00089879A87AB87BC878D839E83AF83B88786
:1042F00089839A83AB83BC8300D00F92EAEBF6E00C
:10430000ADB7BEB71296FC93EE9311972CEF33E046
:1043100014963C932E9313970E94A5080F900F902C
:104320000F900F90EE24FF2410E0DD24CC24BB245A
:10433000198A1CAA1D861E861F86188A00E0D301D2
:10434000ED91FC910084F185E02DC30119955D8507
:104350004E853F852889652F742F832F922FF30177
:1043600026853785408951890E945954A62E972E5B
:10437000882E592E6D877E878F87988B39892CA937
:104380006C2D7B2D832F922FD30152962D913D9131
:104390004D915C9155970E9459546DAB7EAB8FAB9C
:1043A00098AFC62EB72E898B9CAB6E2D7F2D812F9B
:1043B0009D2DF30126893789408D518D0E945954D6
:1043C000462E372E282E99AFE62EF72E182FD92EEF
:1043D000802F68E20E94D157943149F42E893F8999
:1043E0002115310579F081E0F90119950BC0992368
:1043F00049F48E899F89009729F080E0AE89BF89B2
:10440000FD01199565E070E080E090E0EF8DF8A186
:1044100019950F5F083C09F092CF6A2D792D882DF0
:10442000952D20E030E048E453E40E942655F62E16
:10443000E72ED82EC92E5DA94EA93FA928AD652F1C
:10444000742F832F922F20E030E048E453E40E9441
:104450002655B62EA72E982E9D8729AD642D732D37
:10446000822D922F20E030E048E453E40E9426554C
:104470006E877F87888B998B59A54AA53BA52CA56C
:10448000652F742F832F922FD701F6012B2F3A2FF0
:104490004F2F5E2F0E94585469837A838B839C83AD
:1044A0005DA14EA13FA128A5652F742F832F922FC8
:1044B000D501ED852B2F3A2F492D5E2F0E945854A0
:1044C0006D837E838F83988759A14AA13BA12CA13C
:1044D000652F742F832F922FBE85AF85F889E989C8
:1044E0002B2F3A2F4F2F5E2F0E94585469877A87BF
:1044F0008B879C87CE0101960E94F11A562E472E7B
:10450000382E292E2D8D3E8D2115310509F425C11A
:10451000CE0101960E94F11A23ED32E047E35AE3FF
:104520000E941F5587FF7CC0A7019601652F742F3D
:10453000832F922F20E030E040E05FE30E94EB56B3
:104540006B017C0159A54AA53BA52CA5652F742FAD
:10455000832F922F20E030E040E05FE30E94EB5693
:104560009B01AC01C701B6010E945954D301D496F6
:104570006D937D938D939C93D797A5012D85652F82
:10458000742F892D922F20E030E040E05FE30E94FD
:10459000EB566B017C015DA14EA13FA128A5652FC3
:1045A000742F832F922F20E030E040E05FE30E94E1
:1045B000EB569B01AC01C701B6010E945954F301AF
:1045C00060AF71AF82AF93AF5E854F85388929891F
:1045D000652F742F832F922F20E030E040E05FE3BF
:1045E0000E94EB566B017C0159A14AA13BA12CA171
:1045F000652F742F832F922F20E030E040E05FE39F
:104600000E94EB569B01AC01C701B6010E945954B0
:10461000D301DC966D937D938D939C93DF9718C1A6
:10462000A2019101652F742F832F922FBA89AB8934
:10463000FC89ED892B2F3A2F4F2F5E2F0E941F559B
:1046400087FFA0C0A7019601652F742F832F922F9B
:1046500020E030E040E05FE30E94EB56162F072F8A
:10466000882E9A8BA5012D85652F742F892D922F69
:1046700020E030E040E05FE30E94EB566B8B7C8BE8
:104680008D8B988F5E854F8538892989652F742F8A
:10469000832F922F20E030E040E05FE30E94EB5652
:1046A000698F7A8F8B8F9C8F59A54AA53BA52CA526
:1046B000652F742F832F922F20E030E040E05FE3DE
:1046C0000E94EB569B01AC01D801EA896B2F7A2F2F
:1046D000882D9E2F0E9459546DA77EA78FA798AB57
:1046E0005DA14EA13FA128A5652F742F832F922F86
:1046F00020E030E040E05FE30E94EB569B01AC011C
:10470000BB89AC89FD89E88D6B2F7A2F8F2F9E2F67
:104710000E945954688F79AB8AAB9BAB59A14AA1CF
:104720003BA12CA1652F742F832F922F20E030E026
:1047300040E05FE30E94EB569B01AC01B98DAA8D6E
:10474000FB8DEC8D6B2F7A2F8F2F9E2F0E9459544B
:10475000698F7A8F8B8F9C8F11C0FDA6EEA6DFA686
:10476000C8AAB88EA9AA9AAABD85BBABEE85E98F67
:10477000FF85FA8F28892B8F39893C8F5A8A4B8A7B
:104780003C8A2D8A8D8D9E8D01969E8F8D8F8B30CC
:10479000910509F091CDADB7BEB718970FB6F89453
:1047A000BEBF0FBEADBFEDB6FEB60894E11CF11C56
:1047B0008AEB96E012969C938E93119787ED93E087
:1047C000F701938382835A894B893C892D89652F10
:1047D000742F832F922F21EE3EE245E652E40E9491
:1047E000EB56D70114966D937D938D939C931797F9
:1047F0000E94A5085DA54EA53FA528A9852F942F49
:10480000A32FB22FF30184AB95ABA6ABB7AB588DFA
:1048100049A93AA92BA9852F942FA32FB22F80AF96
:1048200091AFA2AFB3AF598D4A8D3B8D2C8D852FA3
:10483000942FA32FB22F84AF95AFA6AFB7AF2DB7EC
:104840003EB7285F3F4F0FB6F8943EBF0FBE2DBF57
:10485000E9960FB6F894DEBF0FBECDBFCF91DF91C2
:104860001F910F91FF90EF90DF90CF90BF90AF908E
:104870009F908F907F906F905F904F903F902F9080
:104880000895FC018AE094E09183808320E030E089
:10489000A90122873387448755872683378340873A
:1048A00051872283338344835583268B378B408FF4
:1048B000518F228B338B448B558B26873787408BC8
:1048C000518B24A335A346A357A320A331A342A30E
:1048D00053A3248F358F468F578F20AB31AB42AB1C
:1048E00053AB24A735A746A757A720A731A742A7B0
:1048F00053A724AF35AF46AF57AF20AF31AF42AF6C
:1049000053AF24AB35AB46AB57AB0895CF93DF9392
:10491000EC014A960E94943ACE014C960E94943A39
:10492000CE0188960E94943ACE01C4960E94943A91
:10493000DF91CF910895CF93DF93EC01E881F98166
:10494000008CF18DE02D1995CE010E948624DF9117
:10495000CF910895CF93DF93EC01E881F981028C28
:10496000F38DE02D1995CE010E948624DF91CF9121
:1049700008952F923F924F925F926F927F928F9203
:104980009F92AF92BF92CF92DF92EF92FF920F93DE
:104990001F93DF93CF93CDB7DEB7C159D0400FB689
:1049A000F894DEBF0FBECDBF7C011B014901280179
:1049B0008E010F5C1F4F9E0127583F4FF80180E08A
:1049C00090E0DC0180879187A287B38784839583F9
:1049D000A683B78380839183A283B3833C96E21737
:1049E000F30781F789879A87AB87BC878D839E837E
:1049F000AF83B88789839A83AB83BC838D8B9E8B6F
:104A0000AF8BB88F898B9A8BAB8BBC8B8D879E8736
:104A1000AF87B88BF70120A531A542A553A5CF5785
:104A2000DF4F288339834A835B83C158D04024A554
:104A300035A546A557A5C357DF4F288339834A8339
:104A40005B83CD58D04020A931A942A953A9C358AE
:104A5000DF4F288339834A835B83CD57D040248D31
:104A6000358D468D578DED962CAF3DAF4EAF5FAF78
:104A7000ED9720A131A142A153A1C757DF4F288351
:104A800039834A835B83C958D04024A135A146A10C
:104A900057A1CB57DF4F288339834A835B83C5589F
:104AA000D04080A791A7A2A7B3A784A795A7A6A740
:104AB000B7A780AB91ABA2ABB3AB80E090E0A0E82E
:104AC000BFE3848F958FA68FB78F80A391A3A2A3F6
:104AD000B3A384A395A3A6A3B7A320E0A7E5AA2E1A
:104AE000A3E0BA2EF9E1CF2ED12CCC0EDD1EE2E0F0
:104AF0006E2E712C6E0C7F1C2330A1F024302CF410
:104B0000213051F0223029F40AC0243071F02530D0
:104B100079F082EC93E00EC080EB93E00BC08DE95E
:104B200093E008C083E993E005C08BE893E002C0FE
:104B30008EE793E000D00F92ADB7BEB71296BC924D
:104B4000AE92119714969C938E931397CF56DF4F86
:104B50002883C159D040F40119950F900F900F9000
:104B60000F90F2011995D701ED91FC910084F18528
:104B7000E02DC70119950BC061E070E080E090E086
:104B8000CF56DF4F2883C159D040F1011995CF5638
:104B9000DF4F2881C159D040D701ED91FC910488A5
:104BA000F589E02DC701CF56DF4F2883C159D0408A
:104BB0001995CF56DF4F2881C159D04080329105D9
:104BC000D8F2D701ED91FC910084F185E02DC70169
:104BD0001995D601F3018CE0CF56DF4F2881C159DA
:104BE000D04001900D928150E1F7D801F6018CE0A0
:104BF00001900D928150E1F72F5F045F1F4F263027
:104C000009F07ACFD701ED91FC91048CF58DE02D60
:104C1000C701BE016F5C7F4F8E010F5F1F4FA80160
:104C20009E01235F3F4F19958823A1F10F920F92A8
:104C30008FE393E0EDB7FEB792838183F40119957A
:104C4000DE019596F8018CE001900D928150E1F71C
:104C5000D7019896FE01B5968CE001900D92815097
:104C6000E1F7DE019596FE013D968CE001900D92F4
:104C70008150E1F7D7015C96FE01B5968CE001907A
:104C80000D928150E1F70F900F90C7010E9486248A
:104C900081E0A2C02DB73EB72A5130400FB6F8943C
:104CA0003EBF0FBE2DBFEDB7FEB731968BE093E050
:104CB000ADB7BEB712969C938E93119789819A8156
:104CC000AB81BC8182839383A483B5838D819E81D4
:104CD000AF81B88586839783A087B18789859A85B8
:104CE000AB85BC8582879387A487B5878D859E8594
:104CF000AF85B88986879787A08BB18B89899A8978
:104D0000AB89BC89828B938BA48BB58B8D899E8953
:104D1000AF89B88D868B978BA08FB18FF4011995D1
:104D2000CF57DF4F288139814A815B81C158D040FC
:104D3000D70198962D933D934D935C939B97C357C2
:104D4000DF4F288139814A815B81CD58D0409C96C4
:104D50002D933D934D935C939F97C358DF4F2881CC
:104D600039814A815B81CD57D040D0962D933D93B8
:104D70004D935C93D397ED962CAD3DAD4EAD5FADAD
:104D8000ED975C962D933D934D935C935F97C7573A
:104D9000DF4F288139814A815B81C958D040909684
:104DA0002D933D934D935C939397CB57DF4F288181
:104DB00039814A815B81C558D04094962D933D93AB
:104DC0004D935C939797EDB7FEB77A960FB6F8942C
:104DD000FEBF0FBEEDBF80E0CF56DF4F0FB6F89499
:104DE000DEBF0FBECDBFCF91DF911F910F91FF901E
:104DF000EF90DF90CF90BF90AF909F908F907F907B
:104E00006F905F904F903F902F9008951F93CF9396
:104E1000DF93EC01288139814A815B81CA01B901A4
:104E20000E9499578823B9F42C813D814E815F817E
:104E3000CA01B9010E949957882369F428853985E8
:104E40004A855B8511E0CA01B9010E949957882300
:104E500019F410E001C011E0812FDF91CF911F9173
:104E600008952F923F924F925F926F927F928F920E
:104E70009F92AF92BF92CF92DF92EF92FF920F93E9
:104E80001F93DF93CF93CDB7DEB7CA50D1400FB693
:104E9000F894DEBF0FBECDBF2C01C95FDE4F688323
:104EA000C750D140C85FDE4F7883C850D140C7514A
:104EB000DF4F59834883C95ED040190180E090E0FC
:104EC000DC018D8B9E8BAF8BB88F898B9A8BAB8BD4
:104ED000BC8B8D879E87AF87B88B8FE796EDA0ED53
:104EE000BDE389A39AA3ABA3BCA38D8F9E8FAF8F85
:104EF000B8A3898F9A8FAB8FBC8F24E130E0CB5160
:104F0000DF4F39832883C55ED04060E070E088ECD5
:104F100092E4DE01DD96C75FDE4FB983A883C950F6
:104F2000D1407FC1F70180819181A281B3818983C2
:104F30009A83AB83BC8384819581A681B7818D835D
:104F40009E83AF83B88780859185A285B385898745
:104F50009A87AB87BC87D201ED91FC91068CF78DC7
:104F6000E02DC201BE01635C7F4FAE014B5A5F4F23
:104F70009E01235F3F4F8E010F5F1F4F19950894CD
:104F8000C11CD11CECE0F0E0EE0EFF1EF6E0CF16E7
:104F9000D10441F6D201ED91FC9102A0F3A1E02DE4
:104FA000C201BE01635C7F4FAE014B5A5F4F9E0151
:104FB0002B5D3F4F1995ADA0BEA0CFA0D8A469A48A
:104FC0007AA48BA49CA48DA59EA5AFA5B8A9C55114
:104FD000DF4F88839983AA83BB83CB5ED04089A9A6
:104FE0009AA9ABA9BCA9C151DF4F88839983AA8331
:104FF000BB83CF5ED040898D9A8DAB8DBC8DCD505B
:10500000DF4F88839983AA83BB83C35FD0408DA978
:105010009EA9AFA9B8ADC950DF4F88839983AA83F1
:10502000BB83C75FD0408D8D9E8DAF8DB8A1C5501D
:10503000DF4F88839983AA83BB83CB5FD04089AD40
:105040009AADABADBCADC150DF4F88839983AA83C5
:10505000BB83CF5FD04089A19AA1ABA1BCA1CD5F9A
:10506000DE4F88839983AA83BB83C350D1408E01CE
:105070000B5D1F4FBDE0EB2EF12CEC0EFD1ED80199
:105080002D913D914D915D918D01F701608171816F
:10509000828193810E945854D7016D937D938D93A3
:1050A0009D937D01C75FDE4FE881F981C950D140F2
:1050B0000E171F0721F7CB51DF4F28813981C55EBD
:1050C000D04021503040CB51DF4F39832883C55E1B
:1050D000D0402115310509F461C1C601B501A60111
:1050E00095010E94EB569B01AC010E9459547B0133
:1050F0008C01C401B301A40193010E94EB569B01F2
:10510000AC01C801B7010E9459547B018C01C55103
:10511000DF4F688179818A819B81CB5ED0409B0182
:10512000AC010E94EB569B01AC01C801B7010E9483
:1051300059545B016C01C151DF4F688179818A81CB
:105140009B81CF5ED0409B01AC010E94EB567B015E
:105150008C01CD50DF4F688179818A819B81C35F4B
:10516000D0409B01AC010E94EB569B01AC01C801F1
:10517000B7010E9426559B01AC01C601B5010E94F2
:1051800059545B016C01C950DF4F688179818A8174
:105190009B81C75FD0409B01AC010E94EB567B0115
:1051A0008C01C550DF4F688179818A819B81CB5FFB
:1051B000D0409B01AC010E94EB569B01AC01C801A1
:1051C000B7010E9426559B01AC01C601B5010E94A2
:1051D00059545B016C01C150DF4F688179818A812C
:1051E0009B81CF5FD0409B01AC010E94EB567B01BD
:1051F0008C01CD5FDE4F688179818A819B81C350AC
:10520000D1409B01AC010E94EB569B01AC01C8014F
:10521000B7010E9426559B01AC01C601B5010E9451
:1052200059542FE530E749E850E30E94E05618163C
:105230000CF0B4C0D201ED91FC9100A0F1A1E02DE1
:10524000C201BE01635C7F4FAE014B5A5F4F19959F
:10525000C95FDE4F9881C750D140C85FDE4F88815B
:10526000C850D140E92EF82ECC24DD245BCEF101CC
:10527000608171818281938120E030E040E85FE3CA
:105280000E9458549F772DEC3CEC4CEC5DE30E945F
:10529000E05618167CF1D10114966D917D918D9197
:1052A0009C91179720E030E040E85FE30E9458545B
:1052B0009F772DEC3CEC4CEC5DE30E94E056181619
:1052C000CCF0F101608571858285938520E030E026
:1052D00040E85FE30E9458549F7701E02DEC3CECDE
:1052E0004CEC5DE30E94E05618160CF000E011E073
:1052F000102701C010E0C751DF4F88819981C95E36
:10530000D0400E940627882369F5CB51DF4F688182
:1053100079818A819B81C55ED0409F7720E030E013
:1053200040E050E40E94E0561816E4F0C551DF4F0B
:10533000688179818A819B81CB5ED0409F7720E014
:1053400030E040E050E40E94E05618165CF0C701DF
:10535000B6019F7720E030E040E450E40E94E05640
:1053600018160CF410E0812FC65FDE4F0FB6F894CC
:10537000DEBF0FBECDBFCF91DF911F910F91FF9088
:10538000EF90DF90CF90BF90AF909F908F907F90E5
:105390006F905F904F903F902F900895698D7A8D18
:1053A0008B8D9C8D2AE038EE4CE151E40E94EB5647
:1053B000162FC72EE82E092F862F9C2DAE2DB02F2D
:1053C000F10180839183A283B3836D8D7E8D8F8D58
:1053D00098A12AE038EE4CE151E40E94EB56F62EFB
:1053E000D72EB82EA92E9501862F9D2DA32FB22F33
:1053F000F10184839583A683B78369A17AA18BA1E8
:105400009CA12AE038EE4CE151E40E94EB56962E26
:10541000872E782E692EA4019301852F942FA32F18
:10542000B22FF10180879187A287B387612F7C2DEE
:105430008E2D902F2D853E854F8558890E94EB56E5
:10544000262F372F482F592FCB51DF4F28833983F1
:105450004A835B83C55ED040C751DF4FA881B981C5
:10546000C95ED0402D933D934D935C931397950166
:105470006F2D7D2D832F922F29893A894B895C8945
:105480000E94EB56262F372F482F592FC551DF4F3B
:10549000288339834A835B83CB5ED040C751DF4F7B
:1054A000E881F981C95ED0402483358346835783E0
:1054B000A4019301652F742F832F922F2D893E898C
:1054C0004F89588D0E94EB56C62ED72EE82EF92E06
:1054D000262F372F482F592FC751DF4FA881B98169
:1054E000C95ED04018962D933D934D935C931B97C6
:1054F000C1010E940627882309F0FCCEB8CE4F9246
:105500005F926F927F928F929F92AF92BF92CF9253
:10551000DF92EF92FF920F931F93DF93CF93CDB75C
:10552000DEB7E4970FB6F894DEBF0FBECDBF8C0197
:10553000DC01D4968D919D910D90BC91A02D89A7F1
:105540009AA7ABA7BCA7D801D8968D919D910D9035
:10555000BC91A02D89AB9AABABABBCABD801DC96B0
:105560008D919D910D90BC91A02D8DA79EA7AFA769
:10557000B8ABD8015C968D919D910D90BC91A02DFA
:105580008DA39EA3AFA3B8A7D80190968D919D91AE
:105590000D90BC91A02D89A39AA3ABA3BCA3D80165
:1055A00094968D919D910D90BC91A02D8D8F9E8F85
:1055B000AF8FB8A380915105909152050097D1F318
:1055C000FFB6F894AE014F5F5F4F20E030E0F90185
:1055D000EE0FFF1FEE0FFF1FE95AFA4FA080B180B8
:1055E000C280D380DA01AD92BD92CD92DD92AD0141
:1055F00010821182128213822F5F3F4F27303105B4
:1056000031F7609151057091520510925205109238
:1056100051058091530590915405A0915505B09185
:105620005605209173053091740540917505509190
:105630007605821B930BA40BB50B8093AB03909361
:10564000AC03A093AD03B093AE038091530590914A
:105650005405A0915505B09156058093730590931C
:105660007405A0937505B0937605FFBE80E090E0C9
:105670000E94BF559B01AC0160E070E080E89FE3B1
:105680000E942655F62EE72ED82EC92E69897A89D2
:105690008B899C890E94C15528E43DE74BE85AE379
:1056A0000E94EB56D701F6012B2F3A2F4F2F5E2F7A
:1056B0000E94EB56962E772E682E492E698D7A8D94
:1056C0008B8D9C8D0E94C15528E43DE74BE85AEB39
:1056D0000E94EB56D701F6012B2F3A2F4F2F5E2F4A
:1056E0000E94EB56862EB72EA82E592E6D897E89E4
:1056F0008F89988D0E94C15528E43DE74BE85AE315
:105700000E94EB56D701F6012B2F3A2F4F2F5E2F19
:105710000E94EB5629A53AA54BA55CA50E945854BA
:10572000F80166877787808B918B692D772D862D81
:10573000942D29A93AA94BA95CA90E945854D801D3
:1057400052966D937D938D939C935597682D7B2DE9
:105750008A2D952D2DA53EA54FA558A90E945854D8
:10576000F801668B778B808F918F69817A818B812D
:105770009C810E94C1559B01AC0169A17AA18BA1BA
:105780009CA10E94EB56D701F6012B2F3A2F4F2FE9
:105790005E2F0E94EB562AE038EE4CE15BE30E945C
:1057A000EB56762E672E582E492E8D8C9E8CAF8C04
:1057B000B8A0B7FAB094B7F8B09469857A858B85AC
:1057C0009C850E94C1559B01AC01C501B4010E949A
:1057D000EB56D701F6012B2F3A2F4F2F5E2F0E9449
:1057E000EB562AE038EE4CE15BE30E94EB56862E46
:1057F000B72EA82E992E6D817E818F8198850E946B
:10580000C1559B01AC016DA17EA18FA198A50E94FD
:10581000EB56D701F6012B2F3A2F4F2F5E2F0E9408
:10582000EB562AE038EE4CE15BE30E94EB56D801E0
:1058300098962D913D914D915C919B970E94585463
:10584000F8016283738384839583A3019201652F9A
:10585000742F832F922F24A535A546A557A50E9406
:105860005854D80116966D937D938D939C931997F8
:10587000682D7B2D8A2D992DD0962D913D914D919E
:105880005C91D3970E945854F8016287738784878C
:105890009587EF5BFF4F80E090E0A0EAB1E4808362
:1058A0009183A283B38381E0E4960FB6F894DEBFC0
:1058B0000FBECDBFCF91DF911F910F91FF90EF9061
:1058C000DF90CF90BF90AF909F908F907F906F9020
:1058D0005F904F900895209151053091520581E0DD
:1058E0002115310509F480E00895FC01EF5BFF4FBD
:1058F0005081418132812381652F742F832F922F14
:1059000008956BE572E888E199E3089520915105C7
:1059100030915205C90108952091AB033091AC0339
:105920004091AD035091AE03B901CA0108950E94A0
:105930007B52609353057093540580935505909363
:105940005605789480914F0590915005DC01ED91BA
:10595000FC910480F581E02D60EB7EE219950895BD
:10596000CF93DF93EC010E94412482E394E099837A
:105970008883FE01EF5BFF4F80E090E0DC018083D5
:105980009183A283B383CB5BDF4F188210923C05D7
:10599000DF91CF9108951F93182F85E360E00E9457
:1059A0002054812F80680E94521480E00E9452147B
:1059B000182F85E361E00E942054812F1F910895E4
:1059C0000F931F93082F162F85E360E00E94205449
:1059D000802F0E945214812F0E94521485E361E0AF
:1059E0000E9420541F910F9108950F931F93CF93FE
:1059F000DF938C01EB0185E361E00E94DB5385E3DB
:105A000061E00E94205461E070E080E090E00E943C
:105A1000A1528BE660E80E94E02C64E670E080E032
:105A200090E00E94A1528BE663E00E94E02C61E0CE
:105A300070E080E090E00E94A1528CE660E00E945D
:105A4000E02C61E070E080E090E00E94A1528AE6E4
:105A500060E10E94E02C61E070E080E090E00E9454
:105A6000A152C230D10540F4FE01EA5AFB4F6081D9
:105A7000C85ADB4F988102C092E064E0F801E05C14
:105A8000FF4F8081843171F085312CF4853041F0F5
:105A90008A3071F40FC08A3239F0823649F406C078
:105AA00006E009C004E007C003E005C002E003C04F
:105AB000092F01C005E089E10E94E02C61E070E05F
:105AC00080E090E00E94A1528AE1602F0E94E02CC9
:105AD00061E070E080E090E00E94A1528BE168E11B
