:100000000C9422030C9464220C9495220C94C62226
:100010000C94F7220C9428230C9459230C948A23D3
:100020000C94BB230C9453030C9453030C94530370
:100030000C9453030C9453030C9453030C948B13A0
:100040000C9453030C9453030C9453030C945303D8
:100050000C9453030C9453030C9453030C941925E0
:100060000C9453030C9484170C94C3170C945303EF
:100070000C9453030C9453030C9453030C945303A8
:100080000C9453030C9453030C9453030C94530398
:100090000C9453030C9453030C9453030C948B044F
:1000A0000C9453030C94B8130C9453030C94530303
:1000B0000C9453030C9453030C94E5130C945303C6
:1000C0000C9453030C9453030C9453030C94530358
:1000D0000C9453030C9453030C9453030C94530348
:1000E0000C94530300407A10F35A00A0724E180982
:1000F0000010A5D4E80000E87648170000E40B548F
:10010000020000CA9A3B000000E1F505000080965D
:100110009800000040420F000000A086010000008F
:10012000102700000000E803000000006400000049
:1001300000000A00000000000100000000002C7612
:10014000D888DC674F0823DFC1DFAE59E1B1B7962D
:10015000E5E3E453C63AE651997696E8E6C284268A
:10016000EB898C9B62ED407C6FFCEFBC9C9F40F266
:10017000BAA56FA5F490055A2AF75C936B6CF967E2
:100180006DC11BFCE0E40D47FEF520E6B500D0EDA7
:10019000902E0300943577050080841E080000200F
:1001A0004E0A000000C80C333333330F986E1283AD
:1001B0001141EF8D2114893BE65516CFFEE6DB1881
:1001C000D1844B381BF77C1D901DA4BBE424203246
:1001D00084725E228100C9F124ECA1E53D276E61A5
:1001E0006E00696E66006765744E756D4C6F67735F
:1001F000203A3A2066696C654E756D626572203DE5
:100200003D20305846464646200A006765744E75C4
:100210006D4C6F6773203A3A206C6173745F706144
:100220006765203D3D2031200A00202025530A002B
:10023000436F6D6D616E64733A002553203E3E201E
:1002400000496E76616C696420636F6D6D616E64E8
:100250002C2074797065202768656C70270065789C
:100260006974002553203E3E200068656C700025AF
:1002700053203E3E20004C6F67006572617365003D
:1002800000000000000000005A1E64756D70000040
:100290000000000000000000B1206C6F67730000D8
:1002A0000000000000000000881D746573740000E9
:1002B00000000000000000002D1F2E006C6F67542E
:1002C000657374436D64203A3A2077726974696E7D
:1002D00067206C6F67732E006C6F6754657374438F
:1002E0006D64203A3A2073697A65206F66206F6EDC
:1002F00065207061636B6574203D202564200A00D1
:100300004C6F672025303464205B737461727420F5
:1003100025303464207C7C20656E64202530346474
:100320005D200A000A2575206C6F67730A000A4E6B
:100330006F206C6F67730A0A000A6C6F6744756DF3
:1003400070436D64203A3A20446F6E650A006C6F0A
:100350006744756D70436D64203A3A2064756D7022
:10036000696E67206C6F67206E722025640A006CCE
:100370006F6744756D70436D64203A3A2062616422
:10038000206C6F67206E756D6265720A006C6F6716
:1003900044756D70436D64203A3A2064756D7069E0
:1003A0006E6720616C6C0A00636F6D706C657465BC
:1003B000200A006C6F674572617365436D64203A73
:1003C0003A2065726173696E672064617461666C5E
:1003D0006173682E2E2E20006C6F6744756D704C13
:1003E0006F674E72203A3A206C6F67206861732005
:1003F000256420706167657320616E642025642028
:10040000656E74726965730A002C006C6F675072B8
:10041000696E74444656656E646F72202D3E204DA1
:10042000616E7566616374757265723A004C6F67D0
:10043000203E3E2000646F6E65200A006C6F6749A5
:100440006E6974203A3A20696E697469616C697AE0
:10045000696E67207465726D696E616C2E2E2E2038
:10046000006C6F67496E6974203A3A204E657720B8
:100470006C6F672073746172746564200A00636F27
:100480006D706C657465200A006C6F67496E6974E5
:10049000203A3A206572617365206E656564656413
:1004A0002C2065726173696E672064617461666C8B
:1004B0006173682E2E2E2000646F6E65200A006C1A
:1004C0006F67496E6974203A3A20696E6974696190
:1004D0006C697A696E6720666C6173682E2E2E20B7
:1004E0000000002100240027002A002D00300033E6
:1004F0000001010000040107010A0100002200259B
:100500000028002B002E00310034000201000005FD
:100510000108010B01000020002300260029002C07
:10052000002F00320000010000030106010901054F
:10053000050505070508080808020202020A0A085C
:100540000804040404010101010101010103030382
:100550000303030303040707070C0C0C0C0C0C0C1F
:100560000C0202020206060606060606060B0B0B26
:100570000B0B0B0B0B010210202008081020401061
:100580002040800201020108040201010204081057
:100590002040808040201008040201800402018075
:1005A000402010080402010804020101020408109E
:1005B00020408001020408102040800000090A0247
:1005C000080B0C0D070603040100000000000000EA
:1005D000000000000000000000000000000000001B
:1005E0000000000000000011100F000000000000DB
:1005F00000000000000000000000000000000000FB
:1006000000494E46494E4954594E414ECDCCCC3D01
:100610000AD7233C17B7D13877CC2B329595E624EF
:100620001FB14F0A000020410000C84200401C4694
:1006300020BCBE4CCA1B0E5AAEC59D74BF0412141A
:10064000BA1A322111241FBECFEFD1E2DEBFCDBFD7
:1006500000E00CBF12E0A0E0B2E0E4E2F6E500E06A
:100660000BBF02C007900D92A23AB107D9F713E071
:10067000A2EAB2E001C01D92A43EB107E1F716E084
:10068000C4E4D6E000E006C022970109FE010BBFDA
:100690000E94BA28CC33D10780E00807A9F70E944E
:1006A000EC230C94102B0C940000283008F027E069
:1006B0003327DA01990F311D87FD9160009661059E
:1006C000710539F432602E5F3D9330E32A95E1F7EE
:1006D00008959F3F30F080387105610509F03C5F57
:1006E0003C5F3D93913008F08068911DDF93CF937C
:1006F0001F930F93FF92EF92192F987F9695E92FF2
:1007000096959695E90FFF27E25CFE4F99273327D0
:10071000EE24FF24A701E70105900894079428F42C
:10072000360FE71EF81E491F511D660F771F881FE1
:10073000991F0694A1F70590079428F4E70EF81E78
:10074000491F561FC11D770F881F991F661F0694EA
:10075000A1F70590079428F4F80E491F561FC71FEC
:10076000D11D880F991F661F771F0694A1F705906A
:10077000079420F4490F561FC71FD81F990F661FF3
:10078000771F881F0694A9F784911095177041F080
:10079000D695C79557954795F794E7941A95C1F75D
:1007A000E4EEF0E06894159015913591659195917E
:1007B00005907FE27395E118F10A430B560BC90BC4
:1007C000D009C0F7E10CF11E431F561FC91FD01DF1
:1007D0007EF4703311F48A95E6CFE894015030F03E
:1007E000080F0AF40027021708F4202F2395022F80
:1007F0007A3328F079E37D932A95E9F710C07D9349
:100800002A9589F6069497956795379517951794C5
:10081000E118F10A430B560BC90BD00998F0239548
:100820007E9173957A3308F070E37C932013B8F7C8
:100830007E9170617D9330F0839571E37D9370E3D9
:100840002A95E1F71124EF90FF900F911F91CF911E
:10085000DF91992787FD90950895FA01AA272830FE
:1008600051F1203181F1E8946F936E7F6E5F7F4F7D
:100870008F4F9F4FAF4FB1E03ED0B4E03CD0670FF9
:10088000781F891F9A1FA11D680F791F8A1F911D4C
:10089000A11D6A0F711D811D911DA11D20D009F49C
:1008A00068943F912AE0269F11243019305D3193DE
:1008B000DEF6CF010895462F4770405D4193B3E0C7
:1008C0000FD0C9F7F6CF462F4F70405D4A3318F06E
:1008D000495D31FD4052419302D0A9F7EACFB4E01F
:1008E000A6959795879577956795BA95C9F70097D7
:1008F0006105710508959B01AC010A2E0694579578
:10090000479537952795BA95C9F7620F731F841FCE
:10091000951FA01D08951F920F920FB60F921124DC
:100920008F939F938091B90090E0887F9070883476
:100930009105B9F08934910554F48033910589F01B
:100940008833910581F08032910591F40AC088378F
:10095000910549F0803B910531F08836910541F4CD
:1009600002C084E903C01092BC0085E48093BC00FF
:100970009F918F910F900FBE0F901F901895089523
:10098000EF92FF920F931F93CF93DF93EC018B01B4
:1009900006C0A881B981ED91FC91CE011995F801AD
:1009A0000F5F1F4F64916623A1F7DF91CF911F91D5
:1009B0000F91FF90EF900895CF93DF93EC010E9489
:1009C000C004CE010E949A21DF91CF910895DF9358
:1009D000CF93CDB7DEB7FE013A968E819F8160E05E
:1009E000488559859F010E948107CF91DF91089525
:1009F000DF93CF93CDB7DEB7FE013A968E819F810C
:100A000061E0488559859F010E948107CF91DF9160
:100A100008950F931F93DC01ED91FC910288F389F7
:100A2000E02D20E030E000E010E019951F910F91DB
:100A30000895FC01838D882371F00788F08DE02DE7
:100A40002081318182819381281B390B848195819A
:100A50002823392302C02FEF3FEFC9010895FC017D
:100A6000838D882391F0018CF28DE02D20813181DE
:100A700082819381281B390B209530958481958143
:100A8000282339232F5F3F4F02C02FEF3FEFC901CB
:100A90000895FC01838D882351F00788F08DE02DA7
:100AA00020813181828193812817390721F42FEF2A
:100AB0003FEFC901089582819381A681B781A80F74
:100AC000B91F2C91828193810196448155818423A1
:100AD00095239383828330E0ECCFFC01838D8823C0
:100AE00051F00788F08DE02D208131818281938142
:100AF0002817390721F42FEF3FEFC90108958281AC
:100B000093810680F781E02DE80FF91F208130E006
:100B1000F4CFFC01A789B08D12968D919C9113970B
:100B200011969C938E93018CF28DE02D80819181A2
:100B3000938382830895FC01838D8823A9F1A18D7D
:100B4000B28D8D919C911197019614962D913C91A7
:100B5000159782239323248D222339F012962D9109
:100B60003C91139782179307F9F012962D913C91BF
:100B7000139782179307C9F32D913C9111971696FD
:100B80000D90BC91A02DA20FB31F6C93A18DB28DBF
:100B900011969C938E93A289B3898C919689892B07
:100BA0008C9321E030E002C020E030E0C9010895DC
:100BB00021E030E002C0220F331F8A95E2F78091D6
:100BC000E202822B8093E20208956F927F928F92CD
:100BD000AF92CF92EF92FF920F931F93DF93CF9339
:100BE000CDB7DEB73C01862FFA01D30113961C92D4
:100BF0001E92129748EE53E060E070E014964D9319
:100C00005D936D937C93179743E552E011965C9347
:100C10004E931D96FC93EE931C971F963C932E9338
:100C20001E9751961C930E9350975396FC92EE92FA
:100C300052975496CC9254975596AC925597569697
:100C40008C925697282F30E093E0220F331F9A950D
:100C5000E1F7A9014E555D4F58965C934E93579717
:100C60002E533D4F5A963C932E9359970E94D80588
:100C7000C30140E051EE60E070E00E940905CF91B1
:100C8000DF911F910F91FF90EF90CF90AF908F90D9
:100C90007F906F9008950F931F93CF93DF93EC0194
:100CA0001B821A828A819B8199838883E1E021E0FB
:100CB00030E001C0EF5FA9010E2E02C0440F551FA6
:100CC0000A94E2F7862F972FF2E081309F0710F009
:100CD00080E092E04817590768F301E010E002C095
:100CE000000F111FEA95E2F7015010408E819F819D
:100CF000009739F02C813D812017310789F00E943F
:100D000080241D830C83C80101960E94FB239C0153
:100D10009F838E8381E02115310519F480E001C0A5
:100D200081E0DF91CF911F910F910895AF92BF9213
:100D3000CF92DF92EF92FF920F931F93CF93DF93A7
:100D4000EC015A016B0179018B8D8823A1F12115EA
:100D5000310539F4EF89F88DE480F5800894E11CC1
:100D6000F11C0115110531F4E98DFA8D048115810D
:100D70000F5F1F4FEF89F88D848195810196E816EA
:100D8000F90691F4E98DFA8D848195810196081711
:100D9000190751F4EA89FB8990818E892D89822B6C
:100DA00080958923808328C0E881F9810088F189B2
:100DB000E02DCE0119958F89988DE114F10419F475
:100DC00070E8E72EF12CB7010E944B06882361F0F2
:100DD000898D9A8D0115110511F400E110E0B8011B
:100DE0000E944B06882341F4E881F9810088F1894B
:100DF000E02DCE0119954CC0E98DFA8D1382128237
:100E00008281938191838083EF89F88D138212828E
:100E1000828193819183808381E08B8F1A141B04DC
:100E20001C041D0454F5E889F98980E0A81681EEB8
:100E3000B80680E0C80680E0D80631F181E090E095
:100E40000C8802C0880F991F0A94E2F7808360E043
:100E500079E08DE390E0A60195010E949828215049
:100E60003040404050405695479537952795EC8542
:100E7000FD853083EE85FF852083EA89FB898081AB
:100E80009D89892B808304C0108220E130E0EFCF60
:100E9000DF91CF911F910F91FF90EF90DF90CF9056
:100EA000BF90AF900895CF93DF93EC011B821A821D
:100EB0008A819B81998388831D821C828E819F8178
:100EC000009721F00E9480241F821E82DF91CF9123
:100ED0000895CF93DF93EC01EA89FB8990818E8995
:100EE0002D89822B8095892380838F89988D0E94FC
:100EF0005307898D9A8D0E9453071B8EDF91CF91E6
:100F000008952F923F924F925F926F927F928F92AD
:100F10009F92AF92BF92CF92DF92EF92FF920F9388
:100F20001F93DF93CF93CDB7DEB764970FB6F894D6
:100F3000DEBF0FBECDBF7C016A8B5F874E87A901E4
:100F40001E010894211C311C02C04C855D85EE8574
:100F5000FF858A8980FD659180FF6191FF87EE871B
:100F6000662309F4E1C3653251F4982F90FD859111
:100F700090FF8191FF87EE87853201F510C06A30BE
:100F800071F4D701ED91FC910190F081E02DC70142
:100F90006DE04B8B5C8B19956AE04B895C89D701BE
:100FA000ED91FC910190F081E02DC7014B8B5C8BA2
:100FB00019954B895C895D874C87C7CF10E0DD248C
:100FC00000E00032B0F48B3269F08C3228F48032C9
:100FD00051F0833271F40BC08D3239F0803349F413
:100FE00001602CC00260046029C0086027C0006155
:100FF00025C007FD2FC0982F90539A3098F406FF14
:1010000008C0812F880F182F110F110F180F190FFB
:1010100015C08D2D880FD82EDD0CDD0CD80ED90E05
:1010200000620CC08E3221F406FD7EC3006406C04F
:101030008C3611F4006802C0883661F4EE85FF85B5
:101040009A8990FD859190FF8191FF87EE87882393
:1010500009F0B7CF982F9554933018F40061805E53
:1010600006C0982F9556933008F0E5C10F7E06FF15
:1010700016E06FE3C62EC022853619F4A0E4CA2A12
:1010800007C0863619F4B0E8CB2A02C011111150FE
:10109000C7FE05C01C3340F4712E739407C018308E
:1010A00038F4212F772407C03CE3732E27E003C0D8
:1010B000772427E017E0FA013496FD87EC87DA0100
:1010C0006D917D918D919C91A101072D0E945503F9
:1010D0005C018980E82DF0E0F98BE88B80FE03C08D
:1010E000F889F3FF06C0C1FC06C0C2FE06C000E2DC
:1010F00005C00DE203C00BE201C000E088899989B8
:101100008C709070009709F444C0002311F084E0C3
:1011100001C083E08D1578F4D81AC3FC0DC0D70147
:10112000ED91FC910190F081E02DC70160E21995ED
:10113000DA94A9F701C0DD24002349F0D701ED912D
:10114000FC910190F081E02DC701602F1995B889BD
:10115000B3FD03C002EE11E012C00EED11E00FC0AE
:10116000A114B10409F06052D701ED91FC910190F6
:10117000F081E02DC70119950F5F1F4F05C0AC2C02
:10118000BB24B0E1AB22BB24F8016491662341F794
:10119000C8C2C7FE0EC07A0CF889F4FF04C08A8169
:1011A000813309F47A94171454F5872D893050F55A
:1011B0002DC0C6FC2BC0812F90E08A159B053CF00A
:1011C0009CEFA9169FEFB90614F0A0E8CA2A1123D4
:1011D00059F0E2E0F0E0EC0FFD1FE10FF11D80811E
:1011E000803311F41150F3CFC7FE10C0712E7394E9
:1011F000812F90E0A816B90644F41A1907C0772485
:10120000739404C028E0722E01C010E0C7FE06C02F
:101210001A141B0434F4C501019605C085E090E062
:1012200002C081E090E001110196112331F0212FDD
:1012300030E02F5F3F4F820F931F2D2D30E082173C
:10124000930714F4D81A01C0DD244C2C5524C20194
:1012500089709070009769F40AC0D701ED91FC91F4
:101260000190F081E02DC70160E21995DA94DD204C
:10127000A1F7002349F0D701ED91FC910190F08195
:10128000E02DC701602F199543FC0DC00AC0D7019E
:10129000ED91FC910190F081E02DC70160E319957B
:1012A000DA94DD20A1F7C7FE54C04501B7FE02C0A5
:1012B0008824992425010894411C511C4818590878
:1012C000420C531CF501E719F1093F01012F10E011
:1012D000109501951F4FFFEF8F16FFEF9F0649F402
:1012E000D701ED91FC910190F081E02DC7016EE2F4
:1012F0001995A814B90434F0681479041CF4F201A7
:10130000608101C060E30894810891080894411C41
:10131000511C801691064CF0D701ED91FC91019083
:10132000F081E02DC7011995D6CF8A149B0441F4B2
:101330008A81863320F4853319F4B889B4FF61E3D8
:10134000D701ED91FC9111970190F081E02DC7013B
:1013500070C06A81613311F0BFEE8B22CE2C0F2D4D
:10136000D701ED91FC910190F081E02DC701199515
:101370001123D9F0D701ED91FC910190F081E02D7E
:10138000C7016EE2199592E0792EF101E70DF11D8A
:1013900060817394D701ED91FC910190F081E02D73
:1013A0008C2D902F1995115081F7D701ED91FC915B
:1013B00011970190F081E02D44FE02C065E401C068
:1013C00065E68C2D902F1995B7FC05C0A114B104CA
:1013D00041F484FE06C0B094A194B108B3946DE2C8
:1013E00001C06BE2D701ED91FC910190F081E02DFD
:1013F0008C2D902F199560E305C06F5FE6EFFFEF2E
:10140000AE0EBF1EFAE0AF16B104BCF7D701ED91E6
:10141000FC910190F081E02D8C2D902F1995D70132
:10142000ED91FC916A2D605D0190F081E02D8C2D95
:10143000902F199576C1833631F0833781F083354B
:1014400009F060C021C0FA013296FD87EC87DA010D
:101450008C918983410181E0A82EB12C13C0FA013F
:101460003296FD87EC87DA018D909C90119706FFEC
:1014700003C0612F70E002C06FEF7FEFC4010E94D4
:1014800020295C010F7714C0FA013296FD87EC87A2
:10149000DA018D909C90119706FF03C0612F70E0D8
:1014A00002C06FEF7FEFC4010E940C295C0100684D
:1014B00003FD24C00AC0D701ED91FC910190F08199
:1014C000E02DC70160E21995DA948D2D90E0A81601
:1014D000B90688F313C0F40107FD659107FF619118
:1014E0004F01D701ED91FC910190F081E02DC701F2
:1014F0001995D110DA940894A108B108A114B10487
:1015000051F70FC1843611F0893661F507FF0BC022
:10151000FA013496FD87EC87DA016D917D918D910A
:101520009C9113970CC0FA013296FD87EC87DA0183
:101530006D917C911197882777FD8095982F0F7674
:1015400097FF08C090958095709561957F4F8F4F5C
:101550009F4F0068A1012AE030E00E942D04C82EB0
:10156000C21842C0853721F40F7E2AE030E020C047
:10157000097F8F36A9F0803720F4883509F0D4C070
:101580000BC0803721F0883709F0CEC001C0006160
:1015900004FF09C0046007C004FF08C0066006C05D
:1015A00028E030E005C020E130E002C020E132E078
:1015B00007FF0BC0FA013496FD87EC87DA016D91C5
:1015C0007D918D919C91139709C0FA013296FD8708
:1015D000EC87DA016D917C9180E090E0A1010E949E
:1015E0002D04C82EC2180F7706FF09C00E7FC11642
:1015F00030F404FF06C002FD04C00F7E02C08C2C34
:1016000001C0812E802F90E004FF0CC0FE01EC0D84
:10161000F11D2081203311F4097E09C0839402FF5B
:1016200006C004C086789070009709F08394A02EBD
:10163000BB2403FD18C000FF13C08D1428F41C2D1B
:101640001D0D18198D2C0CC01C2D0AC0D701ED9151
:10165000FC910190F081E02DC70160E2199583941F
:101660008D14A0F304C08D1410F4D81801C0DD242B
:10167000A4FE1CC00E2D8F2CD701ED91FC91019082
:10168000F081E02DC70160E31995A2FE2EC0D701BD
:10169000ED91FC9111970190F081E02DA1FE02C027
:1016A00068E501C068E7802F982D13C0C5018678D2
:1016B00090700097D1F0A1FC02C060E201C06BE223
:1016C00007FD6DE2D701ED91FC910190F081E02DD5
:1016D000C70119950AC0D701ED91FC910190F081E5
:1016E000E02DC70160E319951150C116A0F3CA940B
:1016F000D701ED91FC91D101AC0DB11D0190F081AC
:10170000E02DC7016C911995CC2089F70AC0D7014B
:10171000ED91FC910190F081E02DC70160E21995F7
:10172000DA94DD20A1F711CC64960FB6F894DEBFF1
:101730000FBECDBFCF91DF911F910F91FF90EF9022
:10174000DF90CF90BF90AF909F908F907F906F90E1
:101750005F904F903F902F900895CF93DF93EC01CF
:1017600081E08A8384E090E09D838C837987688719
:101770001C86E881F9810190F081E02DCE01199558
:10178000E881F9812E850280F381E02DCE016A8106
:1017900040E050E01995E881F9810280F381E02D65
:1017A000CE016A8141E050E02D851995E881F981EB
:1017B00028890280F381E02DCE016A8142E050E069
:1017C0001995E881F9810280F381E02DCE016A81CB
:1017D00043E050E02F851995DF91CF910895CF9385
:1017E000DF93EC011D821C82E881F98148855985CF
:1017F0000480F581E02D6A8120E01995888599851E
:101800000196998788872E893F892817390710F410
:1018100081E08C878A81813011F482E001C081E00F
:101820008A83DF91CF910895CF93DF93EC01262F28
:101830008C85882309F069C0E881F9814C815D813C
:101840000280F381E02DCE016A8119958C819D8102
:1018500001969D838C832C893D898217930708F418
:1018600054C084E090E09D838C83E881F9814885B1
:1018700059850480F581E02DCE016A8120E019951B
:10188000888599850196998788872E893F892817A9
:10189000390710F481E08C878A81813011F482E06D
:1018A00001C081E08A83E881F9812E850280F3817D
:1018B000E02DCE016A8140E050E01995E881F98180
:1018C0000280F381E02DCE016A8141E050E02D8558
:1018D00019952F8538892F5F3F4F388B2F87E881E7
:1018E000F9810280F381E02DCE016A8142E050E06F
:1018F000232F1995E881F9810280F381E02DCE0133
:101900006A8143E050E02F851995DF91CF910895CA
:10191000EF92FF920F931F93CF93DF93EC017A0125
:101920008B01272F552727FD5095352F452F622FE7
:101930000E94140C9801552737FD5095452FCE0174
:10194000622F0E94140C552717FD5A95412F302FF6
:101950002F2DCE01622F0E94140CCE016E2D0E94FD
:10196000140CDF91CF911F910F91FF90EF9008958C
:101970001F93CF93DF93EC0181E08B8384E090E0B1
:101980009F838E837B876A87E881F9810190F0814C
:10199000E02DCE011995E881F9814A855B850680A5
:1019A000F781E02DCE016B8119958A859B85019683
:1019B0009B878A87E881F9810084F185E02DCE013B
:1019C0006B8140E050E01995182F8D871E86E881C5
:1019D000F9810084F185E02DCE016B8141E050E07A
:1019E0001995312F20E090E0822B932B9E878D87D5
:1019F000E881F9810084F185E02DCE016B8142E020
:101A000050E01995182F8F87188AE881F981008492
:101A1000F185E02DCE016B8143E050E01995312F27
:101A200020E090E0822B932B988B8F87DF91CF91D2
:101A30001F9108950F931F93CF93DF93EC01E881DB
:101A4000F9810190F081E02D1995E881F9814E81AD
:101A50005F810084F185E02DCE016B811995182FEF
:101A60008E819F8101969F838E832C893D89821769
:101A7000930708F456C084E090E09F838E83E8814A
:101A8000F9814A855B850680F781E02DCE016B8167
:101A900019958A859B8501969B878A872E893F8920
:101AA0002817390710F41B861A86E881F98100840B
:101AB000F185E02DCE016B8140E050E01995082FB3
:101AC0008D871E86E881F9810084F185E02DCE01A5
:101AD0006B8141E050E01995302F20E090E0822B9F
:101AE000932B9E878D87E881F9810084F185E02D15
:101AF000CE016B8142E050E01995082F8F87188A3C
:101B0000E881F9810084F185E02DCE016B8143E00D
:101B100050E01995302F20E090E0822B932B988B8A
:101B20008F87812FDF91CF911F910F910895EF92B1
:101B3000FF920F931F93CF93DF93EC010E941A0D36
:101B400090E0A0E0B0E0EE24F82E092F1A2FCE018D
:101B50000E941A0D90E0A0E0B0E08E299F29A02BF2
:101B6000B12BEE24F82E092F1A2FCE010E941A0D48
:101B700090E0A0E0B0E08E299F29A02BB12BEE24AD
:101B8000F82E092F1A2FCE010E941A0D282F30E0AF
:101B900040E050E02E293F29402B512BB901CA01CA
:101BA000DF91CF911F910F91FF90EF900895EF92E9
:101BB000FF920F931F93CF93DF93EC017B0101E022
:101BC00010E010C0E881F9810484F585E02DCE0194
:101BD000B801199561E070E080E090E0F701199597
:101BE0000F5F1F4F6E897F896F5F7F4FCB01E3E0EF
:101BF00096958795EA95E1F78017910718F7CE013A
:101C00000E94AD0BCE0141E150E262E178E20E9418
:101C1000880CCE010E94EF0BDF91CF911F910F91A5
:101C2000FF90EF900895CF93DF93EC016E897F8949
:101C30006F5F7F4F0E94B80CCE010E94970D21E08C
:101C4000613130E2730732E1830738E2930709F428
:101C500020E0822FDF91CF910895CF93DF93EC01A5
:101C60006E897F890E94B80C81E02D853E859FEFAB
:101C70002F3F390709F480E0DF91CF9108958F92CB
:101C80009F92AF92BF92CF92DF92EF92FF920F930B
:101C90001F93CF93DF93EC01AE88BF8861E070E0C3
:101CA0000E94B80CED84FE8400E010E08701FF2460
:101CB000EE248F859889A0E0B0E0E82AF92A0A2B63
:101CC0001B2B41E0842E912C2DC06501C80CD91C22
:101CD000D694C794CE01B6010E94B80C8D859E851E
:101CE000A0E0B0E0DC01992788272F85388940E003
:101CF00050E0822B932BA42BB52B803020E0920751
:101D00002FEFA2072FEFB20718F080E090E0DC0180
:101D10008E159F05A007B10710F4560103C07C0182
:101D20008D014601C501881999098230910568F62F
:101D30006501CE01B5010E94B80C8D859E85A0E09D
:101D4000B0E0DC01992788272F85388940E050E0F2
:101D5000822B932BA42BB52B803020E092072FEF02
:101D6000A2072FEFB20728F4E816F9060A071B07A7
:101D700008F06401C601DF91CF911F910F91FF9090
:101D8000EF90DF90CF90BF90AF909F908F9008958D
:101D9000CF93DF93EC010E943F0EBC01CE010E9465
:101DA000B80C8D859E85DF91CF9108950F931F9379
:101DB000CF93DF93EC010E943F0E182F092FCE0125
:101DC000612F702F0E94B80CCE010E94C80E0097A0
:101DD00031F02D853E858FEF2F3F380769F581E083
:101DE00090E09E878D87988B8F87CE0161E070E0B1
:101DF0001CC021E030E0388B2F87CE01612F702F7F
:101E000014C0C801692F702F8FEF6F3F780711F44E
:101E100060E070E02F5F3F4F3E872D8781E090E0CC
:101E2000988B8F876F5F7F4FCE010E94AD0BDF9144
:101E3000CF911F910F9108954F85588942305105D8
:101E400000F7D7CFEF92FF920F931F93CF93DF93BB
:101E5000EC010E943F0E8130910529F48EE293E05F
:101E60006BE072E00FC0CE0161E070E00E94B80C40
:101E70008D859E852FEF8F3F920741F48EE293E090
:101E800066EE71E00E94C00480E024C0CE010E9492
:101E90003F0E7C01CE01B7010E94B80C0D851E8556
:101EA000B7016E5F7F4FCE010E94B80C2D853E8535
:101EB0000217130738F4CE0161E070E00E94B80CFD
:101EC0002D853E850217130721F0802F8F5F821B1F
:101ED00001C081E0DF91CF911F910F91FF90EF90B2
:101EE00008956F927F928F929F92AF92BF92CF92FE
:101EF000DF92EF92FF920F931F93CF93DF93EC014A
:101F00005B010E942D0E882391F0CE0161E070E00C
:101F10000E94B80C8D859E85A816B90640F4CE01A6
:101F20000E943F0E082F192FCE88DF8807C0CE01F0
:101F30000E943F0EC82ED92E01E010E03501882402
:101F400099244301772466248FEF9FEFA0E0B0E04F
:101F5000682A792A8A2A9B2A28C07601E00EF11E77
:101F6000F694E794CE01B7010E94B80C8D859E854A
:101F7000A0E0B0E0DC01992788272F85388940E070
:101F800050E0822B932BA42BB52B803020E09207BE
:101F90002FEFA2072FEFB20728F4681679068A06FA
:101FA0009B0610F0870101C06701C601801B910BE1
:101FB0008230910590F67601CE01B6010E94B80CF0
:101FC0008D859E858A159B0569F07801CE01B80143
:101FD0000E94B80C8D859E858A159B0519F0EE240C
:101FE000EA94FE2CC701DF91CF911F910F91FF90D2
:101FF000EF90DF90CF90BF90AF909F908F907F90A9
:102000006F9008958F929F92BF92CF92DF92EF923E
:10201000FF920F931F93CF93DF93EC01B62E8A01AB
:1020200069010E94220FE82EFF2421E0E216F1044C
:10203000F1F46E897F89CE010E94B80C8D859E8552
:10204000EFEF8F3F9E0751F4F801F182E082CE015D
:102050006B2D70E00E94710FF6011AC0CE016B2D3E
:1020600070E00E94710FF6019183808322C0FB2DE6
:10207000F13089F46E897F89CE010E94B80C8D857C
:102080009E852FEF8F3F920789F481E090E0F80161
:102090009183808325C08B2C9924CE010E94C80E89
:1020A0008E199F0901968816990629F4CE010E947F
:1020B0003F0E0196ECCF74010894E108F108CE01BF
:1020C000B7010E94710F0196F80191838083181661
:1020D000190634F00894E108F1081E141F047CF37B
:1020E000F801208131818E899F890196281739074F
:1020F00019F02115310529F481E090E0F801918370
:102100008083CE016B2D70E00E94710FF6019183E8
:1021100080831816190634F0F80180819181F60148
:1021200091838083DF91CF911F910F91FF90EF906A
:10213000DF90CF90BF909F908F90089541E0FC0179
:1021400026893789FFE02F3F3F0708F440E0842FBE
:1021500008951F93CF93DF93EC01162F888D998DEF
:10216000009751F0DC01ED91FC910190F081E02DA0
:10217000BE0119958823D1F08091300185FFFCCFF5
:10218000109336018091300187FFFCCF109136010A
:10219000A88DB98D109759F0ED91FC91119702809F
:1021A000F381E02DCD01BE01199501C010E0812F12
:1021B000DF91CF911F9108958CE161E00E94142777
:1021C00008958CE160E00E9414270895FF920F9318
:1021D0001F93CF93DF93EC01062F142FF52E0E944F
:1021E000E110013019F4CE0164ED02C0CE0166EDBC
:1021F0000E94A910CE0160E00E94A910CE016F2DAF
:102200000E94A910CE01612F0E94A910CE0160E0AA
:102210000E94A910CE0160E00E94A910182FCE01E3
:102220000E94DC10812FDF91CF911F910F91FF90C1
:102230000895EF92FF920F931F93CF93DF93EC01DA
:10224000062F142FF52EE22E0E94E110013019F412
:10225000CE0164E802C0CE0167E80E94A910CE0159
:1022600060E00E94A910CE016F2D0E94A910CE013E
:10227000612F0E94A910CE016E2D0E94A910CE01DF
:102280000E94DC10DF91CF911F910F91FF90EF9092
:1022900008951F93CF93DF93EC010E94E110CE01CC
:1022A0006FE90E94A910CE016FEF0E94A910898BDF
:1022B000CE016FEF0E94A910182F8A8B1B8ACE01C6
:1022C0006FEF0E94A910312F20E090E0822B932B1A
:1022D0009B8B8A8BCE016FEF0E94A910CE010E94CA
:1022E000DC10DF91CF911F9108951F93CF93DF935F
:1022F000EC010E94E110CE0167ED0E94A910CE0111
:1023000060E00E94A910182FCE010E94DC10812FDE
:10231000DF91CF911F9108950E94751180780895E3
:102320000F931F93CF93DF93EC018B010E94E11079
:10233000CE0167EC0E94A910CE0164E90E94A910A9
:10234000CE0160E80E94A910CE016AE90E94A9109E
:10235000CE010E94DC10CE010E94E11006C061E0B7
:1023600070E080E090E0F8011995CE010E948C1198
:102370008823A9F3CE010E94DC10DF91CF911F9139
:102380000F9108950F931F93CF93DF93EC018B016F
:102390000E94E110CE0160E50E94A9108C899D8900
:1023A00022E08030920769F4B80194E07695679551
:1023B0009A95E1F7CE010E94A910602F6295607F87
:1023C0000DC0B80183E0769567958A95E1F7CE0157
:1023D0000E94A910602F6295660F607ECE010E9458
:1023E000A910CE0160E00E94A910CE010E94DC106D
:1023F000CE010E94E110CE010E948C118823D9F3F6
:10240000CE010E94DC10DF91CF911F910F910895B2
:102410000F931F93CF93DF93EC018B010E94E11088
:10242000CE0161E80E94A9108C899D8922E080304C
:10243000920761F4B801660F672F661F770B7195DD
:10244000CE010E94A910602F660F0CC0B80126E0D3
:10245000769567952A95E1F7CE010E94A910602F25
:10246000660F660FCE010E94A910CE0160E00E94A7
:10247000A910CE010E94DC10CE010E94E110CE0115
:102480000E948C118823D9F3CE010E94DC10DF91C9
:10249000CF911F910F910895CF92DF92FF920F93EA
:1024A0001F93DF93CF930F92CDB7DEB76C018A01F4
:1024B000F22E69830E94E1106981613019F4C6012E
:1024C00063E802C0C60166E80E94A910F60184898B
:1024D0009589F2E080309F0761F4B801660F672F9D
:1024E000661F770B7195C6010E94A910602F660FB9
:1024F0000CC0B80146E0769567954A95E1F7C601AC
:102500000E94A910602F660F660FC6010E94A910D5
:10251000C60160E00E94A910C6010E94DC10C6013D
:102520000E94E110FF2029F0C6010E948C1188232F
:10253000D9F3C6010E94DC100F90CF91DF911F915B
:102540000F91FF90DF90CF900895EF92FF920F933D
:102550001F93DF93CF930F92CDB7DEB77C018A0133
:1025600069830E94E1106981613019F4C70163E554
:1025700002C0C70165E50E94A910F7018489958909
:10258000F2E080309F0761F4B801660F672F661F85
:10259000770B7195C7010E94A910602F660F0CC0C0
:1025A000B801E6E076956795EA95E1F7C7010E94E4
:1025B000A910602F660F660FC7010E94A910C701FE
:1025C00060E00E94A910C7010E94DC10C7010E94B0
:1025D000E110C7010E948C118823D9F3C7010E9422
:1025E000DC100F90CF91DF911F910F91FF90EF9032
:1025F0000895CF93DF93EC01CE010E948C118823C4
:10260000D9F3DF91CF9108950E94751190E0817008
:102610009070A4E0880F991FAA95E1F720E132E0BD
:10262000281B390BC9010895CF93DF93EC011F8A52
:102630001E8A8EE061E00E94CF268FE060E00E945B
:10264000CF268CE161E00E94CF2689E261E00E9402
:10265000CF2681E260E00E94CF2689E260E00E94FE
:10266000142761E070E080E090E00E94952589E207
:1026700061E00E941427CE010E94DC101092350107
:10268000109234018091040184608093040180ECF5
:102690008093320188E180933101109235011092CC
:1026A0003401CE010E9404139D8B8C8BE881F9814B
:1026B0000288F389E02DCE0119958B898F718730BF
:1026C00019F48FEF9FE104C0863021F48FEF9FE073
:1026D0009F8B8E8BDF91CF9108951092E402109220
:1026E000E3021092E6021092E5021092E8021092C4
:1026F000E70208956330710550F4FB01EE0FFF1FF0
:10270000ED51FD4F5183408320E030E002C02FEFB8
:102710003FEFC90108951F920F920FB60F920BB6AB
:102720000F9211242F933F934F935F936F937F9357
:102730008F939F93AF93BF93EF93FF93E091E30247
:10274000F091E402309709F01995FF91EF91BF9154
:10275000AF919F918F917F916F915F914F913F9139
:102760002F910F900BBE0F900FBE0F901F901895DA
:102770001F920F920FB60F920BB60F9211242F9348
:102780003F934F935F936F937F938F939F93AF93F9
:10279000BF93EF93FF93E091E502F091E60230974B
:1027A00009F01995FF91EF91BF91AF919F918F9192
:1027B0007F916F915F914F913F912F910F900BBE41
:1027C0000F900FBE0F901F9018951F920F920FB68B
:1027D0000F920BB60F9211242F933F934F935F9359
:1027E0006F937F938F939F93AF93BF93EF93FF93D9
:1027F000E091E702F091E802309709F01995FF9116
:10280000EF91BF91AF919F918F917F916F915F9168
:102810004F913F912F910F900BBE0F900FBE0F90D5
:102820001F90189580E090E0A0E8BFE38093E90254
:102830009093EA02A093EB02B093EC0280E090E068
:10284000DC018093F5029093F602A093F702B09317
:10285000F8028093F1029093F202A093F302B093F6
:10286000F4028093ED029093EE02A093EF02B093F6
:10287000F00208952091F9023091FA024091FB0292
:102880005091FC028091F9029091FA02A091FB0212
:10289000B091FC02281739074A075B0759F7B901BD
:1028A000CA01089583E04438580738F088E045337A
:1028B000580728F044E358E002C044E853E0440FCE
:1028C000551F643071F1653050F46130D9F06130DA
:1028D000A0F06230E1F0633009F040C01DC0673005
:1028E00079F1683028F4653009F16630B9F523C014
:1028F000693059F16A3091F52DC050938B004093A7
:102900008A00089550938900409388000895509359
:10291000AD004093AC0008955093AB004093AA00E3
:1029200008955093A9004093A800089550939D00E6
:1029300040939C00089550939B0040939A00089503
:102940005093990040939800089550932B01409321
:102950002A01089550932D0140932C01089564306D
:1029600071F1653050F46130D9F06130A0F062301F
:10297000E1F0633009F041C01DC0673079F1683083
:1029800028F4653009F16630C1F523C0693059F18A
:102990006A3099F52DC020918A0030918B002FC0AC
:1029A00020918800309189002AC02091AC0030919C
:1029B000AD0025C02091AA003091AB0020C020912D
:1029C000A8003091A9001BC020919C0030919D006F
:1029D00016C020919A0030919B0011C02091980060
:1029E000309199000CC020912A0130912B0107C031
:1029F00020912C0130912D0102C020E030E036956D
:102A00002795C9010895643061F1653050F4613053
:102A1000D1F06130A0F06230E1F0633009F040C0E5
:102A20001CC0673061F1683028F4653001F1663010
:102A3000B9F521C0693049F16A3091F52CC0809117
:102A40008000806203C08091800080688093800055
:102A500008958091A000886007C08091A0008062E6
:102A600003C08091A00080688093A00008958091A9
:102A70009000886007C080919000806203C08091C0
:102A8000900080688093900008958091200180627A
:102A90008093200108958091200188608093200117
:102AA0000895643061F1653050F46130D1F06130E7
:102AB000A0F06230E1F0633009F040C01CC0673024
:102AC00061F1683028F4653001F16630B9F521C054
:102AD000693049F16A3091F52CC0809180008F7D7A
:102AE00003C0809180008F7780938000089580914B
:102AF000A000877F07C08091A0008F7D03C08091D8
:102B0000A0008F778093A000089580919000877F28
:102B100007C0809190008F7D03C0809190008F77D7
:102B2000809390000895809120018F7D80932001F3
:102B3000089580912001877F80932001089570E09F
:102B4000FB013196EE0FFF1FE80FF91F2081318145
:102B50002115310509F590917300809173008F7DE7
:102B600080937300FB01EE0FFF1FE65CFD4F208199
:102B70003181909373003695279583E02438380788
:102B800038F088E02533380728F024E338E002C025
:102B900024E833E01092FD02C90108958091FD02FE
:102BA00008950895089508950895EF92FF920F9360
:102BB0001F937A018B0140E050E060E874E88EE1F9
:102BC00090E00E949828B901D801C70183709070E5
:102BD000A070B0700097A105B10521F03093870077
:102BE00020938600D801C7018C719070A070B070DE
:102BF0000097A105B10521F07093A7006093A6008E
:102C0000D801C701807E9070A070B0700097A105B8
:102C1000B10521F070939700609396001F910F917A
:102C2000FF90EF900895FC011382128215821482A6
:102C300017821682118610861386128615861486D0
:102C400017861686118A108A0895CF93DF93C09154
:102C50002601D09127012091FF0230910003C21775
:102C6000D30720F4CE01805C934601C0CE01821BC5
:102C7000930B2091FE023FE18134930790F02530C1
:102C800068F081E08093FD020E9461256093F90263
:102C90007093FA028093FB029093FC021092FE0262
:102CA0000DC0283058F4E22FF0E0EE0FFF1FE65C75
:102CB000FD4F918380832F5F2093FE02D09300030A
:102CC000C093FF02DF91CF910895CF92DF92EF92F0
:102CD000FF920F931F93CF93DF937B018CE061E012
:102CE0000E9414278BE061E00E9414278CE061E0D1
:102CF0000E94CF268BE061E00E94CF268CE061E04D
:102D00000E9414278BE061E00E94142702E0C02E8D
:102D1000C09280001AE1D12ED092810000E41CE91B
:102D20001093870000938600CFEFDFEFD0938900E8
:102D3000C0938800D0938B00C0938A0088E061E044
:102D40000E94142787E061E00E94142786E061E07A
:102D50000E94142788E061E00E94CF2687E061E0AE
:102D60000E94CF2686E061E00E94CF2688E061E0E5
:102D70000E94142787E061E00E94142786E061E04A
:102D80000E941427C092A000D092A100D093A90065
:102D9000C093A800D093AB00C093AA00D093AD001D
:102DA000C093AC001093A7000093A60083E061E0FD
:102DB0000E94142782E061E00E94142785E061E010
:102DC0000E94142783E061E00E94CF2682E061E048
:102DD0000E94CF2685E061E00E94CF2683E061E07B
:102DE0000E94142782E061E00E94142785E061E0E0
:102DF0000E941427C0929000D0929100D093990025
:102E0000C0939800D0939B00C0939A00D0939D00EC
:102E1000C0939C00109397000093960080E360E0BD
:102E20000E94CF268DE261E00E9414278CE261E0CF
:102E30000E9414278DE261E00E94CF268CE261E0BF
:102E40000E94CF268DE261E00E9414278CE261E0AF
:102E50000E94142783E0809320018AE5809321015A
:102E60001093290100932801C70162E070E045E258
:102E700056E10E947A13E3E7F0E08081806280836C
:102E8000DF91CF911F910F91FF90EF90DF90CF9046
:102E9000089525E832E0FC01318320830895AC01D8
:102EA00043585F4F83E0440F551F8A95E1F783E055
:102EB000483E580738F088E04B3C580728F04AEC69
:102EC00058E002C048EE53E082E093E062E00E94E6
:102ED0005214089582E093E064E00E949F1521E07F
:102EE00035E08D3D930708F420E0822F089582E0BD
:102EF00093E066E00E949F1521E035E0843193075E
:102F000008F020E0822F08951F920F920FB60F92C3
:102F10000BB60F9211242F933F934F938F939F9350
:102F2000EF93FF934091C6008091A2029091A3027B
:102F300001962091A6023091A7028223932320912B
:102F4000A4023091A5028217930779F02091A20282
:102F50003091A302E091A802F091A902E20FF31FC1
:102F600040839093A3028093A202FF91EF919F91DF
:102F70008F914F913F912F910F900BBE0F900FBEED
:102F80000F901F9018951F920F920FB60F920BB6CD
:102F90000F9211242F933F938F939F93EF93FF935F
:102FA0002091C4023091C5028091C2029091C30267
:102FB00028173907E9F08091C4029091C502E09189
:102FC000C802F091C902E80FF91F80818093C60002
:102FD0008091C4029091C50201962091C602309161
:102FE000C702822393239093C5028093C40210C02A
:102FF0002091C2023091C3028091C4029091C50217
:103000002817390729F48091C1008F7D8093C10072
:10301000FF91EF919F918F913F912F910F900BBE58
:103020000F900FBE0F901F9018950F931F93CF9383
:10303000DF9301E013E0C8010E946D13C2E0D3E00A
:10304000CE01B8010E946516CE0162E00E949F1574
:10305000AC01CE0162E00E945214CE0160E00E94F9
:103060009F15AC01CE0160E00E945214CE0165E0D4
:103070000E949F15AC01CE0161E00E945214CE0166
:1030800061E00E949F15AC01CE0163E00E945214E2
:10309000CE0160E00E940315CE0161E00E9403159D
:1030A000CE0162E00E940315CE0163E00E94031589
:1030B0008BE360E00E94CF26CEE2D3E0CE0140E079
:1030C00051EE60E070E00E940905CE0160E072E020
:1030D0000E948F21CE010E949A210E94AB1EDF9197
:1030E000CF911F910F910895AF92BF92CF92DF922F
:1030F000EF92FF920F931F9380911903882309F099
:1031000033C28BE30E9428268050924097FF03C071
:10311000909581959F4F893C91050CF425C281E0E3
:103120008093190380911A0390911B03A0911C03B3
:10313000B0911D030097A105B105E1F160911E0357
:1031400070911F03809120039091210333E0660F5B
:10315000771F881F991F3A95D1F72AE0E22EF12CAC
:10316000012D112DA80197010E94982859016A018B
:103170000E94612520911A0330911B0340911C038A
:1031800050911D03621B730B840B950B660F771F09
:10319000881F991FA80197010E9498282A0D3B1D9E
:1031A0004C1D5D1D20931E0330931F03409320038D
:1031B000509321030E94612560931A0370931B03AF
:1031C00080931C0390931D0380912203909123030D
:1031D000019690932303809322038B30910550F145
:1031E00080911803882331F581E08093180322C071
:1031F0008BE30E9428268050924097FF03C0909551
:1032000081959F4F86399105ACF40E9461252091EC
:103210001A0330911B0340911C0350911D03621B44
:10322000730B840B950B6A3171058105910510F0C4
:1032300010921903809118038230D1F480912203F7
:10324000909123032091240330912503821B930B3B
:103250008630910569F40E9461256093260370937E
:103260002703809328039093290383E08093180316
:1032700080911803833081F50E9461257B018C01C8
:103280008091260390912703A0912803B0912903F0
:10329000E81AF90A0A0B1B0B60911E0370911F03B9
:1032A00080912003909121032AE030E040E050E03B
:1032B0000E94652828E631E040E050E00E9498280E
:1032C000E216F3060407150738F080E090E00E944C
:1032D0004F1784E0809318030E94771E8BE493E0DD
:1032E00064E170E00E94001B882309F42EC182E093
:1032F00093E062E00E949F1582E093E062E00E940A
:103300009F15A3E096958795AA95E1F78D57904074
:103310008E37910568F482E093E062E00E949F1589
:10332000F3E096958795FA95E1F78D57904002C0A6
:103330008DE790E0909315038093140382E093E06F
:1033400060E00E949F15AC0182E093E060E00E9483
:10335000521482E093E065E00E949F15AC0182E088
:1033600093E061E00E94521482E093E061E00E94E9
:103370009F15AC0182E093E063E00E9452140E942A
:103380007717882331F410921803109223031092B8
:10339000220380911803823021F0853011F08630AD
:1033A00061F582E093E062E00E94AF149C01E3E0EB
:1033B00036952795EA95E1F7C90173E0880F991FC3
:1033C0007A95E1F7821B930B8B5693402AE030E00D
:1033D000B9010E948428FB01409116035091170304
:1033E000CA01880F991F840F951FB9010E94842874
:1033F000CF01860F971F0E944F17809118038230CC
:1034000030F480911403909115030E944F1780911E
:103410001803843009F441C0853030F4813059F00C
:10342000823009F092C029C0853009F455C0863039
:1034300009F08BC071C00E946A17882341F4809103
:103440001403909115038533910508F07EC0809197
:103450001403909115030E944F178CE390E0909312
:103460001703809316038091220390912303909376
:1034700025038093240382E066C00E946A17882394
:1034800009F063C080911403909115038633910570
:1034900008F45BC00E944F1755C00E946A1788232A
:1034A00009F053C080911403909115038633910560
:1034B00008F44BC08CE890E09093170380931603B8
:1034C0000E94612560932A0370932B0380932C0341
:1034D00090932D0385E037C00E94612520912A0337
:1034E00030912B0340912C0350912D03621B730BE1
:1034F000840B950B693027E0720720E0820720E0FB
:10350000920718F18091140390911503909317037B
:103510008093160386E017C00E94612520912A033C
:1035200030912B0340912C0350912D03621B730BA0
:10353000840B950B613D27E0720720E0820720E0B5
:10354000920718F081E0809318038EE493E064EF13
:1035500071E00E94001B1F910F91FF90EF90DF9090
:10356000CF90BF90AF90089580911903882309F4FC
:1035700061CE3ECE8F92AF92CF92EF92FF920F9399
:103580001F9382E093E00E9449178EE293E060E08F
:1035900045EC50E024EC30E000EC10E0F1ECEF2ED4
:1035A000F12CCC24C394E8E9AE2E70E2872E0E9461
:1035B000E50510924D03109250031F910F91FF905B
:1035C000EF90CF90AF908F9008950F931F93CF936C
:1035D000DF938C01EB0181E0209709F480E0F80192
:1035E0008283882341F00E9461252197C60FD71F4F
:1035F000F801D183C083DF91CF911F910F9108957E
:10360000EF92FF920F931F93CF93DF93EC017B0117
:103610008A81882361F0088119810E946125061B37
:10362000170B8AEE0136180740F0019501C000E043
:10363000CE01B7010E94E51A01C000E0802FDF91A2
:10364000CF911F910F91FF90EF9008950F931F93CB
:10365000FC01718360835383428324831683058333
:103660001092A5031F910F910895CF92DF92EF92D0
:10367000FF920F931F93CF93DF937C018091A3035D
:103680009091A40360E372E00E94DC04C0E0D0E00B
:1036900000E010E08AE2C82E82E0D82E2DC06AE059
:1036A00070E080E090E00E94952500D000D0EDB75A
:1036B000FEB731968091A3039091A403ADB7BEB736
:1036C00012969C938E931197D382C282D701129641
:1036D0008D919C9113978C0F9D1F958384830E94DD
:1036E000F8040F5F1F4F6096EDB7FEB736960FB622
:1036F000F894FEBF0FBEEDBFD70114968C911497BE
:1037000090E0081719075CF2DF91CF911F910F919C
:10371000FF90EF90DF90CF90089570E024E0660F67
:10372000771F2A95E1F7DC011296ED91FC91139732
:10373000E60FF71F3E9625913491842F61E773E0E1
:10374000F901199508959F92AF92BF92CF92DF929F
:10375000EF92FF920F931F93DF93CF9300D0CDB7DB
:10376000DEB78C018091A3039091A403009731F4FC
:103770008EE293E09093A4038093A3038091A3032C
:103780009091A403DC01ED91FC910680F781E02D7E
:1037900019957C01BFEF8F3F9B0709F4A8C18D30BD
:1037A0009105C1F5E091A503F0E0EF5AFC4F1082BE
:1037B0008091A3039091A403DC01ED91FC91019011
:1037C000F081E02D6DE019958091A3039091A40301
:1037D000DC01ED91FC910190F081E02D6AE01995FA
:1037E0001092A50381E593E06BE072E06E0108940E
:1037F000C11CD11CA6010E942B29909372038093B7
:103800007103EBE7EE2EE3E0FE2EBB24B394AC2C69
:103810009D2C4FC08830910561F58091A5038823C8
:1038200041F181508093A5038091A3039091A4035B
:10383000DC01ED91FC910190F081E02D68E019959B
:103840008091A3039091A403DC01ED91FC91019080
:10385000F081E02D60E219958091A3039091A4037B
:10386000DC01ED91FC9111970190F081E02D68E071
:103870001EC0C7010E94EB28009709F47FCF8091FA
:10388000A5038F3108F07ACFE82FF0E0EF5AFC4F14
:10389000E0828F5F8093A5038091A3039091A4039E
:1038A000DC01ED91FC910190F081E02D6E2D1995D8
:1038B00065CF80E090E06BE072E04A2D592D0E94C8
:1038C0002B296C01F701918380830097C9F00E9436
:1038D000C228D70112966D937D938D939C93159773
:1038E000C6010E94BE28F70166837783808791878F
:1038F000B3942AE030E0E20EF31E3B2D3530C9F6DA
:103900008091710390917203009709F4F0C06B2DC0
:103910002DE032E080E090E0DC0135C0462F50E041
:10392000FA01EE0FFF1F73E0440F551F7A95E1F780
:10393000E40FF51FEF58FC4F31832083462F50E0F2
:10394000FA01EE0FFF1F73E0440F551F7A95E1F760
:10395000E40FF51FEF58FC4F128213821482158278
:10396000462F50E0FA01EE0FFF1F73E0440F551F82
:103970007A95E1F7E40FF51FEF58FC4F86839783A4
:10398000A087B1876F5F653048F2EE2446C08E2D68
:1039900090E034E0880F991F3A95E1F7D80112962C
:1039A0006D917C911397680F791F809171039091AD
:1039B00072030E94F928009779F5C8016E2D4B2DEE
:1039C0000E948D1B00D000D0EDB7FEB7319620913C
:1039D000A3033091A403ADB7BEB712963C932E93C8
:1039E00011972FE632E033832283D8012D913C9149
:1039F000358324838B830E94F804EDB7FEB7369697
:103A00000FB6F894FEBF0FBEEDBF8B818E3F09F459
:103A10006EC0CC24C39409C0E394D80114968C9151
:103A20001497E81608F4B3CFCC24F8018481E81683
:103A300041F5E0907103F0907203C7016EE072E00F
:103A40000E941729009741F0C7016AE672E00E94C0
:103A5000F928009709F044C0C8010E94351B00D026
:103A600000D0EDB7FEB731968091A3039091A403E7
:103A7000ADB7BEB712969C938E93119783E692E0F2
:103A80001BC0CC2051F58091A3039091A40361E465
:103A900072E00E94DC0400D000D0EDB7FEB7319692
:103AA0008091A3039091A403ADB7BEB712969C93E7
:103AB0008E9311978AE392E093838283D8018D914C
:103AC0009C91958384830E94F804EDB7FEB73696E7
:103AD0000FB6F894FEBF0FBEEDBF1092510307C0A2
:103AE000C7016EE572E00E94F928009751F60F9029
:103AF0000F900F90CF91DF911F910F91FF90EF905A
:103B0000DF90CF90BF90AF909F90089581E008958F
:103B10002F923F924F925F926F927F928F929F92DD
:103B2000AF92BF92CF92DF92EF92FF920F931F93CB
:103B3000DF93CF9300D00F92CDB7DEB786EA93E044
:103B40000E94C80E8C0186EA93E00E94220FE82EA4
:103B5000FF2400D00F922EE2C22E23E0D22EADB76A
:103B6000BEB71296DC92CE92119780E192E0149645
:103B70009C938E9313970E94E7040F900F900F90E1
:103B80000F90E114F10431F4C6016EE273E00E947B
:103B9000C00478C000D000D0EDB7FEB73196ADB705
:103BA000BEB71296DC92CE92119784E293E0938393
:103BB0008283F582E4820E94F8040F5F1F4F0E1982
:103BC0001F09EDB7FEB736960FB6F894FEBF0FBECD
:103BD000EDBF93E0292E312C2C0E3D1E5E01089482
:103BE000A11CB11C5C2C4D2C80E0682E83E0782E4B
:103BF000C980DA808B809C8086EA93E0602FA501E3
:103C000091010E9402108DB79EB70A970FB6F894E3
:103C10009EBF0FBE8DBFEDB7FEB73196ADB7BEB735
:103C200011965C92119712964C9273826282158360
:103C3000048389819A81978386838B819C81918774
:103C400080870E94F804EDB7FEB73A960FB6F89455
:103C5000FEBF0FBEEDBF89819A81C816D90629F42F
:103C60008B819C818816990649F00894E108F10837
:103C70000F5F1F4FE114F10409F0BACF8EE293E019
:103C80000E949A2180E00F900F900F900F90CF919B
:103C9000DF911F910F91FF90EF90DF90CF90BF9039
:103CA000AF909F908F907F906F905F904F903F90DC
:103CB0002F900895CF93DF93CEE2D3E0CE0163EB54
:103CC00073E00E94C00486EA93E065E975E20E9411
:103CD000D70DCE0168EA73E00E94C00480E0DF9156
:103CE000CF910895DC01CB010E94BC25089580ECA2
:103CF00093E00E94A31B0895CF93DF9386EA93E09D
:103D00000E9449116AE070E080E090E00E949525F1
:103D1000CEE2D3E0CE016BE074E00E94C00460917B
:103D2000B703CE0170E04AE050E00E945A22CE0173
:103D300069E074E00E94C0046091B8037091B90317
:103D4000CE014AE050E00E941822CE010E949A2142
:103D5000DF91CF910895CF93DF938EE293E06FEBE5
:103D600074E00E94C00486EA93E00E9414138EE27D
:103D700093E068EB74E00E94C00486EA93E00E943E
:103D80009E10882311F186EA93E00E94130E882387
:103D900091F08EE293E069E874E00E94C00486EA44
:103DA00093E062E77EE10E94D70D8EE293E06EE73A
:103DB00074E00E94C00486EA93E00E94D60E8EE270
:103DC00093E061E674E00E94C0040E947C1ECEE293
:103DD000D3E0CE016CE374E00E94C004D093A4034E
:103DE000C093A30310924A03CE0165E374E00E94DE
:103DF000C004CE010E949A2100D00F92EDB7FEB709
:103E0000D283C1838DE294E0948383830E94F8047B
:103E10000F900F900F900F9080E0DF91CF91089559
:103E2000EF92FF920F931F93CF93DF93E82EE7015A
:103E30007E01F92EE70187010C5B1F4F699186EA2D
:103E400093E00E94140CC017D107C1F7DF91CF9106
:103E50001F910F91FF90EF900895EF92FF920F93B3
:103E60001F93DF93CF93CDB7DEB7C454D0400FB6C6
:103E7000F894DEBF0FBECDBF88E695E6A1E6B4E6B6
:103E800089839A83AB83BC8300D000D0EDB7FEB7A3
:103E900031960EE213E0ADB7BEB712961C930E93A7
:103EA000119788ED92E09383828384E490E0958378
:103EB00084830E94F8048DB79EB706960FB6F894D7
:103EC0009EBF0FBE8DBFC8016CEB72E00E94C004A4
:103ED0004AE0F42E8E010F5F1F4F11C0C8010E94EF
:103EE000101FEA94D9F786EA93E00E94D60E8EE27C
:103EF00093E06AEB72E00E94C004FA9419F030E299
:103F0000E32EECCF8EE293E00E949A2180E060E005
:103F100070E00E94881D80E0CC5BDF4F0FB6F89404
:103F2000DEBF0FBECDBFCF91DF911F910F91FF90EC
:103F3000EF900895CF92DF92EF92FF920F931F932D
:103F4000CF93DF937C01982FC92EE6016E01DF2C01
:103F5000E60186010C5B1F4F86EA93E00E941A0D72
:103F60008993C017D107C1F7C701DF91CF911F9186
:103F70000F91FF90EF90DF90CF900895AF92BF9296
:103F8000CF92DF92EF92FF920F931F93DF93CF9325
:103F9000CDB7DEB78E01025F1F4F72E1A72EB12CA5
:103FA000AC0EBD1E6EE2C62E63E0D62E55E3E52EA6
:103FB00052E0F52ED8018D918D0100D000D0EDB7E3
:103FC000FEB73196ADB7BEB71296DC92CE9211977E
:103FD000F382E282992787FD9095958384830E94DE
:103FE000E704EDB7FEB736960FB6F894FEBF0FBEE6
:103FF000EDBF0A151B05F1F600E410E08EE293E038
:1040000068E372E00E948F2101501040B9F78EE200
:1040100093E00E949A21CF91DF911F910F91FF9021
:10402000EF90DF90CF90BF90AF900895CF92DF9246
:10403000EF92FF920F931F93DF93CF93CDB7DEB72D
:10404000C454D0400FB6F894DEBF0FBECDBF8C0174
:10405000681779075CF42091BC033091BD032F5F92
:104060003F4F260F371F281B390B05C09B01281B0C
:10407000390B2F5F3F4F4091BA035091BB0344501F
:104080005040249FC001259F900D349F900D112416
:1040900064E470E00E9484286B018DB79EB7089796
:1040A0000FB6F8949EBF0FBE8DBFEDB7FEB7319629
:1040B0008EE293E0ADB7BEB712969C938E931197A4
:1040C00088ED93E0938382833583248377836683AB
:1040D0000E94F8048DB79EB708960FB6F8949EBF5D
:1040E0000FBE8DBF86EA93E0B8010E94B80C00E0D5
:1040F00010E07E010894E11CF11C20C0C7010E9461
:104100009A1FADB7BEB7A454B0400FB6F894BEBF67
:104110000FBEADBF1196F70184E401900D9281505E
:10412000E1F70E94BE1F0F5F1F4F8DB79EB78C5BDC
:104130009F4F0FB6F8949EBF0FBE8DBF0C151D0587
:10414000E8F2CC5BDF4F0FB6F894DEBF0FBECDBFF9
:10415000CF91DF911F910F91FF90EF90DF90CF9063
:104160000895EF92FF920F931F93DF93CF9300D0A8
:104170000F92CDB7DEB7082FDB011C96ED90FC90B7
:104180001D9786EA93E00E94C80EE114F10429F419
:104190008EE293E06DE873E014C0023071F48C019C
:1041A00086EA93E00E94220FF801E81BF109EE1560
:1041B000FF0518F40E151F0590F48EE293E06FE6EC
:1041C00073E00E94C00480E00F900F900F900F905A
:1041D000CF91DF911F910F91FF90EF90089500D044
:1041E00000D0EDB7FEB731960EE213E0ADB7BEB723
:1041F00012961C930E9311978EE493E0938382831F
:10420000F582E4820E94F804EDB7FEB736960FB649
:10421000F894FEBF0FBEEDBF86EA93E06E2DAE01AF
:104220004F5F5F4F9E012D5F3F4F0E9402106B81D9
:104230007C8189819A810E94162000D00F92ADB7AF
:10424000BEB712961C930E93119789E393E01496D0
:104250009C938E9313970E94F8040F900F900F90E9
:104260000F90B1CF0F931F9380EC93E066E772E05D
:104270004AE752E024E006E81DE10E94261B8BE697
:1042800092E09093A7038093A6031092BF0310922D
:10429000BE031F910F910895CF92DF92EF92FF928C
:1042A0000F931F93CF93DF936C017B018A01C0E0D2
:1042B000D0E00FC0D7016D917D01D601ED91FC9149
:1042C0000190F081E02DC6011995C80FD91F01504A
:1042D00010400115110571F7CE01DF91CF911F91AB
:1042E0000F91FF90EF90DF90CF90089561157105C9
:1042F00091F0DB010D900020E9F7AD0141505040F5
:10430000461B570BDC01ED91FC910280F381E02DFF
:1043100019959C0102C020E030E0C90108950E9477
:1043200076210895DC01ED91FC910190F081E02D62
:10433000199508950F931F93CF93DF93EC016DE0D0
:104340000E9492218C01CE016AE00E949221080F06
:10435000191FC801DF91CF911F910F9108958F927E
:104360009F92AF92BF92CF92DF92EF92FF920F9304
:104370001F93DF93CF93CDB7DEB7A1970FB6F89415
:10438000DEBF0FBECDBF6C01042FE52FCB01122F76
:1043900019A2223008F41AE021E2E22EF12CEC0EF0
:1043A000FD1E812E9924AA24BB2403C0022FE32FD3
:1043B000CA01602F7E2FA50194010E949828129FA8
:1043C000802D1124081B0894E108F1080A3014F428
:1043D000005D01C0095CF70100832115310541052D
:1043E000510521F7C601B7010E947621A1960FB6AB
:1043F000F894DEBF0FBECDBFCF91DF911F910F911B
:10440000FF90EF90DF90CF90BF90AF909F908F90F4
:1044100008952115310549F4DC01ED91FC910190DD
:10442000F081E02D642F199508950E94AF21089521
:104430009A01AB0160E070E00E9409220895CF92DA
:10444000DF92EF92FF920F931F93CF93DF93EC01D4
:104450007A018B012115310541F4E881F981019040
:10446000F081E02D642F19951AC02A303105A9F486
:1044700077FF12C06DE20E9492216C0144275527FC
:10448000BA014E195F09600B710BCE012AE00E9440
:10449000AF21C80ED91E04C02AE00E94AF216C01D2
:1044A000C601DF91CF911F910F91FF90EF90DF90A8
:1044B000CF9008959A01FB01AF01662757FD6095E3
:1044C000762F0E941F2208951F920F920FB60F920F
:1044D0000BB60F9211242F933F934F935F936F93DB
:1044E0007F938F939F93AF93BF93EF93FF938091AD
:1044F000CB039091CC03009729F0E091CB03F0918E
:10450000CC031995FF91EF91BF91AF919F918F913E
:104510007F916F915F914F913F912F910F900BBEC3
:104520000F900FBE0F901F9018951F920F920FB60D
:104530000F920BB60F9211242F933F934F935F93DB
:104540006F937F938F939F93AF93BF93EF93FF935B
:104550008091CD039091CE03009729F0E091CD0397
:10456000F091CE031995FF91EF91BF91AF919F917B
:104570008F917F916F915F914F913F912F910F900C
:104580000BBE0F900FBE0F901F9018951F920F92A9
:104590000FB60F920BB60F9211242F933F934F93A8
:1045A0005F936F937F938F939F93AF93BF93EF939B
:1045B000FF938091CF039091D003009729F0E09171
:1045C000CF03F091D0031995FF91EF91BF91AF9177
:1045D0009F918F917F916F915F914F913F912F911B
:1045E0000F900BBE0F900FBE0F901F9018951F924B
:1045F0000F920FB60F920BB60F9211242F933F9389
:104600004F935F936F937F938F939F93AF93BF93DA
:10461000EF93FF938091D1039091D203009729F0FB
:10462000E091D103F091D2031995FF91EF91BF91E1
:10463000AF919F918F917F916F915F914F913F913A
:104640002F910F900BBE0F900FBE0F901F901895DB
:104650001F920F920FB60F920BB60F9211242F9349
:104660003F934F935F936F937F938F939F93AF93FA
:10467000BF93EF93FF938091C7039091C803009776
:1046800029F0E091C703F091C8031995FF91EF91CC
:10469000BF91AF919F918F917F916F915F914F915A
:1046A0003F912F910F900BBE0F900FBE0F901F9058
:1046B00018951F920F920FB60F920BB60F921124FE
:1046C0002F933F934F935F936F937F938F939F931A
:1046D000AF93BF93EF93FF938091C9039091CA0367
:1046E000009729F0E091C903F091CA031995FF9151
:1046F000EF91BF91AF919F918F917F916F915F915A
:104700004F913F912F910F900BBE0F900FBE0F90C6
:104710001F9018951F920F920FB60F920BB60F9223
:1047200011242F933F934F935F936F937F938F93B6
:104730009F93AF93BF93EF93FF938091D303909197
:10474000D403009729F0E091D303F091D403199595
:10475000FF91EF91BF91AF919F918F917F916F9159
:104760005F914F913F912F910F900BBE0F900FBE15
:104770000F901F9018951F920F920FB60F920BB6C5
:104780000F9211242F933F934F935F936F937F93D7
:104790008F939F93AF93BF93EF93FF938091D50334
:1047A0009091D603009729F0E091D503F091D603BC
:1047B0001995FF91EF91BF91AF919F918F917F914B
:1047C0006F915F914F913F912F910F900BBE0F9082
:1047D0000FBE0F901F901895CF93DF930E94C625B0
:1047E0000E941518C0E0D0E00E9474182097E1F3F1
:1047F0000E940000F9CFCF93DF938230910510F42F
:1048000082E090E0E091E003F091E10340E050E0CD
:1048100020E030E026C06081718168177907E0F000
:104820006817790781F4828193812115310531F070
:10483000D90113969C938E9312972BC09093E1030A
:104840008093E00326C04115510519F064177507E0
:1048500018F4AB01E901DF019F0172816381E72F49
:10486000F62F3097C1F64115510501F1481B590B40
:104870004430510580F412968D919C9113972097A6
:1048800019F09B838A8304C09093E1038093E00333
:10489000FD01329631C0FD01E40FF51F8193919324
:1048A0004250504011965C934E9326C02DB73EB7B0
:1048B00028573040E0914A02F0914B02E217F3078B
:1048C000C8F4A9014E1B5F0B4817590798F09C01CB
:1048D0002E5F3F4F4217530768F02E0F3F1F309354
:1048E0004B0220934A0230934D0220934C02819355
:1048F000919302C0E0E0F0E0CF01DF91CF91089505
:10490000CF93DF93009709F491C0FC013297138293
:1049100012826091E0037091E1036115710581F4E9
:1049200020813181280F391F80914A0290914B02DA
:104930008217930799F5F0934B02E0934A0276C0F1
:10494000DB0180E090E002C0CD01D901AE17BF07C6
:1049500048F412962D913C91139721153105A1F73A
:10496000CD0121C0B383A283EF01499159919E01EA
:10497000240F351FA217B30779F42D913C9111979D
:10498000240F351F2E5F3F4F3183208312962D91C8
:104990003C91139733832283009729F4F093E1032A
:1049A000E093E00343C0DC011396FC93EE9312976F
:1049B0004D915D91A40FB51FEA17FB0769F42081A3
:1049C0003181240F351F2E5F3F4FEC01398328833F
:1049D000228133813B832A83E0E0F0E002C0FB01C7
:1049E000BC01DB0112968D919C9113970097B9F74A
:1049F0009B012E5F3F4F8D919C911197820F931FCA
:104A000040914A0250914B024817590779F4309768
:104A100029F41092E1031092E00302C01382128283
:104A20002250304030934B0220934A02DF91CF91C5
:104A300008951F920F920FB60F9211242F933F9358
:104A40008F939F93AF93BF938091DB039091DC038F
:104A5000A091DD03B091DE033091DF030196A11D2B
:104A6000B11D232F2D5F2D3720F02D570196A11D4D
:104A7000B11D2093DF038093DB039093DC03A093AD
:104A8000DD03B093DE038091D7039091D803A0910A
:104A9000D903B091DA030196A11DB11D8093D7030C
:104AA0009093D803A093D903B093DA03BF91AF9149
:104AB0009F918F913F912F910F900FBE0F901F905C
:104AC00018958FB7F8942091DB033091DC03409167
:104AD000DD035091DE038FBFB901CA0108959FB76E
:104AE000F8942091D7033091D8034091D903509185
:104AF000DA0386B5A89B06C08F3F21F02F5F3F4F9A
:104B00004F4F5F4F9FBF542F432F322F2227280F25
:104B1000311D411D511D82E0220F331F441F551FBF
:104B20008A95D1F7B901CA010895EF92FF920F93C8
:104B30001F93CF93DF937B018C010E946F25EB01C4
:104B40000FC00E946F256C1B7D0B83E0683E7807C9
:104B500038F00894E108F10801091109C851DC4F47
:104B6000E114F1040105110561F7DF91CF911F9167
:104B70000F91FF90EF900895019739F0880F991FDA
:104B8000880F991F02970197F1F70895789484B5DB
:104B9000826084BD84B5816084BD85B5826085BD39
:104BA00085B5816085BDEEE6F0E08081816080831F
:104BB000E1E8F0E010828081826080838081816002
:104BC0008083E0E8F0E0808181608083E1EBF0E0C9
:104BD000808184608083E0EBF0E08081816080836D
:104BE000E1E9F0E080818260808380818160808360
:104BF000E0E9F0E0808181608083E1EAF0E080819B
:104C000082608083808181608083E0EAF0E080813F
:104C100081608083E1E2F1E0808182608083808135
:104C200081608083E0E2F1E0808181608083EAE757
:104C3000F0E08081846080838081826080838081D5
:104C4000816080838081806880831092C100089594
:104C5000863308F0865390917B00282F2695269561
:104C6000269530E02170307043E0220F331F4A95C3
:104C7000E1F7977F922B90937B00877090914E0283
:104C80009295990F990F907C982B90937C0080912E
:104C90007A00806480937A0080917A0086FDFCCF50
:104CA0002091780030917900932F80E030E0282B1C
:104CB000392BC9010895893009F449C08A30A0F41C
:104CC000843051F1853040F4823079F1833000F541
:104CD000813009F063C026C0873079F1883098F5BB
:104CE000863009F05BC025C08D3009F442C08E309B
:104CF00028F48B30B1F18C30C0F52DC0803109F42F
:104D000042C0813109F445C08F3009F047C037C037
:104D1000809180008F7703C0809180008F7D809389
:104D20008000089584B58F7702C084B58F7D84BDDF
:104D300008958091B0008F7703C08091B0008F7D7F
:104D40008093B0000895809190008F7707C0809184
:104D500090008F7D03C080919000877F80939000AA
:104D600008958091A0008F7707C08091A0008F7D6B
:104D700003C08091A000877F8093A0000895809158
:104D800020018F7703C0809120018F7D80932001C7
:104D9000089580912001877F809320010895EF92EC
:104DA000FF92CF93DF9390E0FC01EB58FA4F4491D0
:104DB000815D9A4FFC018491882389F190E0880FEE
:104DC000991FFC01EF51FB4F25913491D90185507A
:104DD0009B4FFC0125913491E22EE7017E01F32ED9
:104DE000E701662349F49FB7F8948C91409584239A
:104DF0008C93888184230BC0623059F49FB7F89458
:104E00008C91242F209582238C938881842B8883F6
:104E100005C09FB7F8948C91842B8C939FBFDF9132
:104E2000CF91FF90EF9008950F931F93DF93CF934F
:104E30000F92CDB7DEB7282F30E0F901E554FA4FD5
:104E40008491F901EB58FA4F1491215D3A4FF90121
:104E500004910023D9F0882321F069830E945B2606
:104E60006981E02FF0E0EE0FFF1FE550FB4F8591C9
:104E70009491DC019FB7F894662321F48C911095EE
:104E8000812302C08C91812B8C939FBF0F90CF9177
:104E9000DF911F910F91089540D008F481E00895AB
:104EA000E89409C097FB3EF49095809570956195C4
:104EB0007F4F8F4F9F4F9923A9F0F92F96E9BB277A
:104EC0009395F695879577956795B795F111F8CFF6
:104ED000FAF4BB0F11F460FF1BC06F5F7F4F8F4F61
:104EE0009F4F16C0882311F096E911C0772321F057
:104EF0009EE8872F762F05C0662371F096E8862FEF
:104F000070E060E02AF09A95660F771F881FDAF745
:104F1000880F9695879597F90895990F0008550F72
:104F2000AA0BE0E8FEEF16161706E807F907C0F02F
:104F300012161306E407F50798F0621B730B840B37
:104F4000950B39F40A2661F0232B242B252B21F411
:104F500008950A2609F4A140A6958FEF811D811DB1
:104F6000089597F99F6780E870E060E008959FEFEB
:104F700080EC089500240A941616170618060906F0
:104F8000089500240A9412161306140605060895BF
:104F9000092E0394000C11F4882352F0BB0F40F447
:104FA000BF2B11F460FF04C06F5F7F4F8F4F9F4F87
:104FB000089557FD9058440F551F59F05F3F71F009
:104FC0004795880F97FB991F61F09F3F79F0879570
:104FD0000895121613061406551FF2CF4695F1DFF9
:104FE00008C0161617061806991FF1CF8695710589
:104FF000610508940895E894BB2766277727CB01BD
:1050000097F908950BD0C4CFB5DF28F0BADF18F0B8
:10501000952309F0A6CFABCF1124EECFCADFA0F3C2
:10502000959FD1F3950F50E0551F629FF001729F3D
:10503000BB27F00DB11D639FAA27F00DB11DAA1F5C
:10504000649F6627B00DA11D661F829F2227B00DA9
:10505000A11D621F739FB00DA11D621F839FA00D34
:10506000611D221F749F3327A00D611D231F849F84
:10507000600D211D822F762F6A2F11249F575040DB
:105080008AF0E1F088234AF0EE0FFF1FBB1F661F76
:10509000771F881F91505040A9F79E3F510570F02F
:1050A00060CFAACF5F3FECF3983EDCF3869577950F
:1050B0006795B795F795E7959F5FC1F7FE2B880F2A
:1050C000911D9695879597F90895629FD001739FDA
:1050D000F001829FE00DF11D649FE00DF11D929F94
:1050E000F00D839FF00D749FF00D659FF00D9927D3
:1050F000729FB00DE11DF91F639FB00DE11DF91FF7
:10510000BD01CF0111240895AA1BBB1B51E107C0AB
:10511000AA1FBB1FA617B70710F0A61BB70B881F47
:10512000991F5A95A9F780959095BC01CD010895D6
:10513000A1E21A2EAA1BBB1BFD010DC0AA1FBB1F9B
:10514000EE1FFF1FA217B307E407F50720F0A21B0D
:10515000B30BE40BF50B661F771F881F991F1A947A
:1051600069F760957095809590959B01AC01BD01A4
:10517000CF0108950790F691E02D199466277727BF
:105180000C9467291F93FC0199278827BC01E89498
:1051900011911032E9F3193010F01E30C8F31B32B0
:1051A00051F01D3249F4689406C00E945229610FE3
:1051B000711D811D911D119110531A30B0F33EF4F1
:1051C00090958095709561957F4F8F4F9F4F1F9160
:1051D0000895803209F0911108C280528F55E0F78E
:1051E0000895911102C2803219F089508550D0F78C
:1051F0000895FB01DC018D9181341CF08B350CF49A
:10520000805E659161341CF06B350CF4605E861B2A
:10521000611189F3990B0895FC010590615070406C
:105220000110D8F7809590958E0F9F1F0895FB0170
:10523000DC018D91019080190110D9F3990B08952B
:10524000FC016150704001900110D8F78095909555
:105250008E0F9F1F0895FA01A191B081009719F454
:105260001097E1F0CD01DC01CD010D90002011F48B
:10527000C00113C0FB012191222319F02015D9F799
:10528000F3CFFB012191201519F41E92119606C04F
:105290002223C1F70D900020A1F7D001FA01A193BC
:1052A000B0830895592F482F372F262F660F771F69
:1052B000881F991F660F771F881F991F620F731F22
:1052C000841F951F660F771F881F991F08956F927F
:1052D0007F928F929F92AF92BF92CF92DF92EF9286
:1052E000FF920F931F93DF93CF930F92CDB7DEB74B
:1052F0005B016115710521F0DB018C9311969C9384
:10530000482F592F6A01F601E1906F018F018E2D10
:1053100090E00E94F1280097B1F7FE2DFD3229F4AC
:10532000D601ED908D0121E007C0BE2DBB3219F4EE
:10533000F601E1908F0120E068010894C108D108CE
:10534000C60161E076E043E050E029830E94F82A3C
:105350002981009711F572E0E72EF12CE00EF11E85
:10536000C70164E076E045E050E00E94F82A298118
:10537000009729F467E0E62EF12CE00EF11EA1144F
:10538000B10421F0D5011196FC92EE9220FF0FC1DD
:1053900030E020E090E88FEF12C1C60169E076E0CE
:1053A00043E050E029830E94F82A2981009731F0D8
:1053B00060E070E0CB01662477240AC0A114B10438
:1053C00009F4F9C00E5F1F4FF50111830083F3C08C
:1053D0003E2D30533A30A0F52260E22FF0E0AF01CD
:1053E0004870507022FF07C04115510571F50894AF
:1053F000611C711C2AC04115510519F008946108FF
:1054000071086B017C0152E0CC0CDD1CEE1CFF1C12
:105410005A95D1F76C0D7D1D8E1D9F1D660F771F50
:10542000881F991F630F711D811D911D6839F9E94E
:105430007F07F9E98F07F9E19F0738F0246005C07D
:105440003E3F39F423FD3FC02860D801ED908D0127
:10545000BFCF353311F03531B1F5F80131913D321F
:1054600011F4206102C03B3241F4D80111963C9105
:105470001197319642E050E002C041E050E03053D5
:105480003A3020F08F01041B150B1DC040E050E0A6
:10549000BCE040385B075CF4DA01AA0FBB1FAA0F1F
:1054A000BB1F4A0F5B1F440F551F430F511D319106
:1054B00030538F013A3060F324FF03C0509541957B
:1054C0005F4F640E751EC22EDD2421FF08C0A1149B
:1054D000B10429F001501040F501118300830E94AE
:1054E00050277B018C01F3E0CF22DD2433E0C3168B
:1054F000D10421F417FB109517F91095C801B701D5
:1055000020E030E0A9010E944C27882309F44AC01A
:1055100077FE09C040E2C42E46E0D42E7094619418
:105520007108739404C038E3C32E36E0D32E26E00E
:10553000822E912C90E2A92EB12C0FC0F60125915C
:10554000359145915491C801B7010E940228E62E79
:10555000F72E082F192F6A187B086A147B0474F73A
:10556000B594A7940894810891088114910429F0B6
:105570008CEF9FEFC80ED91EF0CFB701C801282FBE
:10558000220F292F221F2F3F39F020E030E0A90100
:105590000E944C27882331F482E290E09093E30349
:1055A0008093E2033E2D2F2D902F812F08C030E0F5
:1055B00020E090E803C030E020E090EC8FE7F901B4
:1055C000AC016F2F722F852F942F0F90CF91DF9109
:1055D0001F910F91FF90EF90DF90CF90BF90AF9011
:1055E0009F908F907F906F900895992788270895B6
:1055F000FB01DC014150504088F08D9181341CF05A
:105600008B350CF4805E659161341CF06B350CF4C5
:10561000605E861B611171F3990B0895881BFCCFA6
:04562000F894FFCF2C
:105624005B474320322E3031625D002000003F0092
:105634006C6F674C6F6773436D64203A3A207072E5
:10564400696E74696E67206C6F67206C6973742E61
:105654002E2E200A002563002E00600960096009CF
:1056640060096009600960096009E40364000100DD
:105674000000009B054C21190549056D0589052F7E
:105684000509056907960600000000F91219114C76
:1056940012A512E6100812C2119011141349119E9A
:1056A400100000000065165214AF149F15CE151398
:1056B40016D115D51503155115D215D315D4153A90
:0256C4001400D0
:00000001FF
