:100000000C94C2060C9451960C9482960C94B39660
:100010000C94E4960C9415970C9446970C9477974F
:100020000C94A8970C94F3060C94F3060C94F30626
:100030000C94F3060C94F3060C94F3060C94111B29
:100040000C94F3060C94F3060C94F3060C94F3064C
:100050000C94F3060C94F3060C94F3060C94069996
:100060000C94F3060C945A7A0C94997A0C94F30637
:100070000C94F3060C94F3060C94F3060C94F3061C
:100080000C94F3060C94F3060C94F3060C94F3060C
:100090000C94EB7A0C942A7B0C94F3060C94720A61
:1000A0000C94F3060C943E1B0C94F3060C94F3068C
:1000B0000C94F3060C94F3060C946B1B0C94F3064F
:1000C0000C94F3060C94F3060C94F3060C94F306CC
:1000D0000C94F3060C94F3060C94F3060C94F306BC
:1000E0000C94F306036EDB363D9A9999993DABAAC1
:1000F000AA2A3E000000803F084AD73B3BCE016E53
:1001000084BCBFFDC12F3D6C74319ABD56833DDA6E
:100110003D00C77F11BED9E4BB4C3E916BAAAABE7D
:10012000000000803F072C7AA5BA6CC590DA3B939B
:1001300065FC8BBC53F810FD3C5692834DBD879DEA
:100140003AB63DCBC9BF5BBE73DA0FC93F05A84CB9
:10015000CDB2D44EB93836A9020C50B99186880870
:100160003CA6AAAA2ABE000000803F00407A10F3F5
:100170005A00A0724E18090010A5D4E80000E876D5
:1001800048170000E40B54020000CA9A3B0000002C
:10019000E1F505000080969800000040420F000045
:1001A00000A08601000000102700000000E8030006
:1001B0000000006400000000000A000000000001D0
:1001C00000000000002C76D888DC674F0823DFC1D0
:1001D000DFAE59E1B1B796E5E3E453C63AE651998B
:1001E0007696E8E6C28426EB898C9B62ED407C6FB4
:1001F000FCEFBC9C9F40F2BAA56FA5F490055A2A6B
:10020000F75C936B6CF9676DC11BFCE0E40D47FE76
:10021000F520E6B500D0ED902E030094357705006B
:1002200080841E080000204E0A000000C80C3333F2
:1002300033330F986E12831141EF8D2114893BE601
:100240005516CFFEE6DB18D1844B381BF77C1D908A
:100250001DA4BBE424203284725E228100C9F124F3
:10026000ECA1E53D276E616E00696E6600676574FE
:100270004E756D4C6F6773203A3A2066696C654E17
:10028000756D626572203D3D2030584646464620D9
:100290000A006765744E756D4C6F6773203A3A209B
:1002A0006C6173745F70616765203D3D2031200A89
:1002B00000020050524F445543545F49440000002F
:1002C000000000001A0000000000050141434353F4
:1002D00043414C000000000000000000001C000032
:1002E00000000005024143434F4646530000000012
:1002F000000000000000280000000000050347592E
:10030000524F464653000000000000000000003439
:10031000000000000001044D5055364B5F46494C2B
:10032000544552000000000040000000000000FFA3
:1003300000000000000000000000000000000000BD
:100340000000000000000043616C69627261746922
:100350006F6E206661696C65642028252E316620E9
:10036000252E316620252E316620252E316620254A
:100370002E316620252E3166290A0043616C6962A0
:10038000726174696F6E20737563636573736675EC
:100390006C0A00555345523A20506C616365204108
:1003A000504D20255320616E642070726573732058
:1003B000616E79206B65792E0A006F6E2069742753
:1003C00073206261636B006E6F7365207570006EE1
:1003D0006F736520646F776E006F6E20697427738A
:1003E0002072696768742073696465006F6E2069A4
:1003F000742773206C6566742073696465006C658E
:1004000076656C0020002A00496E697420416363A0
:10041000656C000A6779726F20646964206E6F747E
:1004200020636F6E76657267653A20646966663D23
:100430002566206470730A002A00496E697420479B
:1004400079726F00245047434D442C31362C302CA8
:10045000302C302C302C302A36410D0A00245053D9
:1004600052463130302C302C33383430302C382C4C
:10047000312C302A334300204E4D4541200020537B
:100480004952462000204D544B2000204D544B3102
:100490003620002075626C6F782000009600000006
:1004A000E1000080250000C01200004F4B002450E6
:1004B0005352463130332C302C302C312C312A32EF
:1004C000350D0A24505352463130332C312C302C08
:1004D000302C312A32350D0A2450535246313033F4
:1004E0002C322C302C302C312A32360D0A24505329
:1004F00052463130332C332C302C302C312A3237C9
:100500000D0A24505352463130332C342C302C31C8
:100510002C312A32300D0A24505352463130332CBC
:10052000352C302C312C312A32300D0A24505352C4
:10053000463130332C362C302C302C312A32320DCF
:100540000A24505352463130332C382C302C302C66
:10055000312A32430D0A24505352463135312C3161
:100560002A33460D0A24505352463130362C32314C
:100570002A30460D0A0024504D544B3331342C3070
:100580002C302C312C312C302C302C302C302C3089
:100590002C302C302C302C302C302C302C302C307B
:1005A0002A32380D0A24504D544B3333302C302A24
:1005B00032450D0A24504D544B3331332C312A32FD
:1005C000450D0A24504D544B3330312C322A3245DC
:1005D0000D0A0024505542582C34302C6767612C8A
:1005E000302C312C302C302C302C302A37420D0A54
:1005F00024505542582C34302C7674672C302C31D2
:100600002C302C302C302C302A37460D0A245055F3
:1006100042582C34302C726D632C302C302C302C02
:10062000302C302C302A36370D0A004750524D43BB
:100630000047504747410047505654470024505503
:1006400042582C34312C312C303030332C30303077
:10065000312C33383430302C302A32360AB5620629
:10066000010300010601124F0004024750535F4787
:1006700041494E000000000000000000240000007E
:10068000803F01034750535F555345000000000071
:10069000000000000028000000803F04045941577A
:1006A0005F500000000000000000000000001C007F
:1006B000CDCCCC3E040552505F500000000000003D
:1006C000000000000000002000CDCCCC3E01065709
:1006D000494E445F4D4158000000000000000000FA
:1006E0002A000000000001074241524F5F55534568
:1006F00000000000000000000029000000000005CC
:10070000085452494D0000000000000000000000A5
:1007100000003A000000000000FF000000000000A0
:1007200000000000000000000000000000000000C9
:10073000006164645F7472696D2061667465722023
:10074000523A25342E326620503A25342E32660A2B
:10075000000A6164645F7472696D206265666F721D
:100760006520523A25342E326620503A25342E32F6
:10077000660A00416363656C205B583A25342E326B
:100780006620593A25342E3266205A3A25342E32C4
:10079000665D206C656E3A25342E3266204779728C
:1007A0006F205B583A25342E326620593A25342E74
:1007B0003266205A3A25342E32665D2054656D70BB
:1007C0003A25342E32660A004779726F204F6666EA
:1007D0007365747320583A2531302E38662009200D
:1007E000593A2531302E38662009205A3A253130C1
:1007F0002E38660A00416363656C205363616C6543
:1008000020583A2531302E3866200920593A2531B2
:10081000302E38662009205A3A2531302E38660AA3
:10082000000A416363656C204F66667365747320CC
:10083000583A2531302E3866200920593A25313072
:100840002E38662009205A3A2531302E38660A00A3
:10085000202025530A00436F6D6D616E64733A006A
:100860002553203E3E2000496E76616C696420630A
:100870006F6D6D616E642C207479706520276865DA
:100880006C70270065786974002553203E3E200077
:1008900068656C70002553203E3E20004C6F670059
:1008A00065726173650000000000000000005A8A54
:1008B0007072696E74000000000000000000029475
:1008C0006C6973740000000000000000000086895D
:1008D00074657374000000000000000000006F9257
:1008E000696D75434D44000000000000000052890E
:1008F00074657374436D70730000000000005B87C3
:100900007465737441687273000000000000778A98
:100910006C6F6741687273436D64203A3A20723A93
:1009200025342E31662020703A25342E3166207908
:100930003A25342E31662064726966743D28253567
:100940002E31662025352E31662025352E3166293B
:10095000206864673D252E3166200A002E000A6C4F
:100960006F6754657374436D64203A3A20777269F7
:1009700074696E67206C6F67732E006C6F675465C7
:100980007374436D64203A3A207061636B65742020
:10099000636F6E74656E7473203A3A200A006C6F50
:1009A0006754657374436D64203A3A2073697A65BD
:1009B000206F66206F6E65207061636B6574203DEB
:1009C000202564200A004C6F672025303464205BAA
:1009D00073746172742025303464207C7C20656ED1
:1009E0006420253034645D200A000A2575206C6F70
:1009F00067730A000A4E6F206C6F67730A0A000A59
:100A00006C6F675072696E74436D64203A3A20646B
:100A10006F6E650A006C6F675072696E74436D6427
:100A2000203A3A2064756D70696E67206C6F67209C
:100A30006E722025640A006C6F675072696E744391
:100A40006D64203A3A20626164206C6F67206E7595
:100A50006D6265720A006C6F675072696E74436DE7
:100A600064203A3A2064756D70696E6720616C6C21
:100A70000A00636F6D706C657465200A006C6F67A7
:100A80004572617365436D64203A3A206572617303
:100A9000696E6720666C6173682E2E2E20006C6F65
:100AA00067486561643B54696D653B526F6C6C3B94
:100AB00050697463683B5961773B44726966745846
:100AC0003B4472696674593B44726966745A3B4888
:100AD000656164696E673B416363583B4163635979
:100AE0003B4163635A3B4779726F583B4779726F5A
:100AF000593B4779726F5A3B727750574D3B6C7731
:100B000050574D3B7461696C50574D3B5468726F40
:100B100074746C653B0A006C6F6744756D704C6F44
:100B2000674E72203A3A206C6F6720686173202507
:100B30006420706167657320616E642025642065A0
:100B40006E74726965730A002C006C6F675072696D
:100B50006E74444656656E646F72202D3E204D6162
:100B60006E7566616374757265723A004C6F6720CA
:100B70003E3E2000646F6E65200A006C6F67496E10
:100B80006974203A3A20696E697469616C697A699E
:100B90006E67207465726D696E616C2E2E2E20005A
:100BA0006C6F67496E6974203A3A204E6577206C05
:100BB0006F672073746172746564200A00636F6DDF
:100BC000706C657465200A006C6F67496E697420EB
:100BD0003A3A206572617365206E65656465642CC0
:100BE0002065726173696E67205F44617461466C51
:100BF0006173682E2E2E2000646F6E65200A006CD3
:100C00006F67496E6974203A3A20696E6974696148
:100C10006C697A696E6720666C6173682E2E2E206F
:100C20000000002100240027002A002D003000339E
:100C30000001010000040107010A01000022002553
:100C40000028002B002E00310034000201000005B6
:100C50000108010B01000020002300260029002CC0
:100C6000002F003200000100000301060109010508
:100C7000050505070508080808020202020A0A0815
:100C8000080404040401010101010101010303033B
:100C90000303030303040707070C0C0C0C0C0C0CD8
:100CA0000C0202020206060606060606060B0B0BDF
:100CB0000B0B0B0B0B01021020200808102040101A
:100CC0002040800201020108040201010204081010
:100CD000204080804020100804020180040201802E
:100CE0004020100804020108040201010204081057
:100CF00020408001020408102040800000090A0200
:100D0000080B0C0D070603040100000000000000A2
:100D100000000000000000000000000000000000D3
:100D20000000000000000011100F00000000000093
:100D300000000000000000000000000000000000B3
:100D400000494E46494E4954594E414ECDCCCC3DBA
:100D50000AD7233C17B7D13877CC2B329595E624A8
:100D60001FB14F0A000020410000C84200401C464D
:100D700020BCBE4CCA1B0E5AAEC59D74A60A5A3A78
:100D8000527F8E9411241FBECFEFD1E2DEBFCDBFC4
:100D900000E00CBF17E0A0E0B2E0EEE0F4E401E018
:100DA0000BBF02C007900D92A834B107D9F71CE021
:100DB000A8E4B7E001C01D92AB36B107E1F71DE032
:100DC000C4E8DDE000E006C022970109FE010BBF88
:100DD0000E94549FCC37D10780E00807A9F70E94F2
:100DE000D9970C9405A20C940000283008F027E055
:100DF0003327DA01990F311D87FD91600096610557
:100E0000710539F432602E5F3D9330E32A95E1F7A6
:100E100008959F3F30F080387105610509F03C5F0F
:100E20003C5F3D93913008F08068911DDF93CF9334
:100E30001F930F93FF92EF92192F987F9695E92FAA
:100E400096959695E90FFF27EB53FE4F9927332789
:100E5000EE24FF24A701E70105900894079428F4E5
:100E6000360FE71EF81E491F511D660F771F881F9A
:100E7000991F0694A1F70590079428F4E70EF81E31
:100E8000491F561FC11D770F881F991F661F0694A3
:100E9000A1F70590079428F4F80E491F561FC71FA5
:100EA000D11D880F991F661F771F0694A1F7059023
:100EB000079420F4490F561FC71FD81F990F661FAC
:100EC000771F881F0694A9F784911095177041F039
:100ED000D695C79557954795F794E7941A95C1F716
:100EE000EBE6F1E068941590159135916591959137
:100EF00005907FE27395E118F10A430B560BC90B7D
:100F0000D009C0F7E10CF11E431F561FC91FD01DA9
:100F10007EF4703311F48A95E6CFE894015030F0F6
:100F2000080F0AF40027021708F4202F2395022F38
:100F30007A3328F079E37D932A95E9F710C07D9301
:100F40002A9589F60694979567953795179517947E
:100F5000E118F10A430B560BC90BD00998F0239501
:100F60007E9173957A3308F070E37C932013B8F781
:100F70007E9170617D9330F0839571E37D9370E392
:100F80002A95E1F71124EF90FF900F911F91CF91D7
:100F9000DF91992787FD90950895FA01AA272830B7
:100FA00051F1203181F1E8946F936E7F6E5F7F4F36
:100FB0008F4F9F4FAF4FB1E03ED0B4E03CD0670FB2
:100FC000781F891F9A1FA11D680F791F8A1F911D05
:100FD000A11D6A0F711D811D911DA11D20D009F455
:100FE00068943F912AE0269F11243019305D319397
:100FF000DEF6CF010895462F4770405D4193B3E080
:101000000FD0C9F7F6CF462F4F70405D4A3318F026
:10101000495D31FD4052419302D0A9F7EACFB4E0D7
:10102000A6959795879577956795BA95C9F700978F
:101030006105710508959B01AC010A2E0694579530
:10104000479537952795BA95C9F7620F731F841F87
:10105000951FA01D089585E361E00E94019B85E333
:1010600061E00E94BC9A8CB580618CBD8CB58064B7
:101070008CBD84E361E00E94BC9A83E361E00E943E
:10108000BC9A08952CB5982F93702C7F922B9CBD01
:101090002DB590E0959587959595879581702E7FD4
:1010A000822B8DBD0895589A599AE9EBF0E0808122
:1010B0008E7F808380818D7F808388E48093B800D9
:1010C00085E48093BC00089570934C0760934B07B0
:1010D0000895662311F488E401C08CE08093B80081
:1010E0000895FC01ACEBB0E01C9285E48C9383A1E5
:1010F0008F5F83A30895EF92FF920F931F93CF9377
:10110000DF93EC010E944E997B018C0184E980936E
:10111000BC0018C00097D1F00E944E996E197F094B
:10112000800B910B20914B0730914C0740E050E031
:10113000621773078407950728F0CE010E94710893
:1011400081E009C080914B0790914C072091BC0031
:1011500024FDE0CF80E0DF91CF911F910F91FF90B0
:10116000EF900895DF92EF92FF920F931F93CF932A
:10117000DF93EC01D62E0E944E997B018C01DD207D
:1011800011F084EC01C084E88093BC0018C0009783
:10119000D1F00E944E996E197F09800B910B20911E
:1011A0004B0730914C0740E050E06217730784070B
:1011B000950728F0CE010E94710881E00BC0809154
:1011C0004B0790914C072091BC0027FFE0CF809106
:1011D000B900887FDF91CF911F910F91FF90EF9021
:1011E000DF900895EF92FF920F931F93CF93DF93B9
:1011F000EC016093BB000E944E997B018C0184E856
:101200008093BC0018C00097D1F00E944E996E19CF
:101210007F09800B910B20914B0730914C0740E0E8
:1012200050E0621773078407950728F0CE010E94EB
:10123000710881E012C080914B0790914C0720917A
:10124000BC0027FFE0CF8091B900887F883221F071
:101250008091B900887F01C080E0DF91CF911F911C
:101260000F91FF90EF900895EF92FF920F931F93CD
:10127000CF93DF93EC016093BB000E944E997B01FA
:101280008C0184E88093BC0018C00097D1F00E94C4
:101290004E996E197F09800B910B20914B0730916D
:1012A0004C0740E050E0621773078407950728F069
:1012B000CE010E94710881E013C080914B0790918C
:1012C0004C072091BC0027FFE0CF8091B900887FB8
:1012D000883129F08091B900887F803441F480E022
:1012E000DF91CF911F910F91FF90EF900895809122
:1012F000B900887FF5CFEF92FF920F931F93CF93A2
:10130000DF93EC010E944E997B018C0184EA80936B
:10131000BC0018C00097D1F00E944E996E197F0949
:10132000800B910B20914B0730914C0740E050E02F
:10133000621773078407950728F0CE010E94710891
:1013400081E013C080914B0790914C072091BC0025
:1013500027FFE0CF8091B900887F883029F0809105
:10136000B900887F803141F480E0DF91CF911F91F7
:101370000F91FF90EF9008958091B900887FF5CF8D
:10138000AF92BF92DF92EF92FF920F931F93DF9382
:10139000CF930F92CDB7DEB75C01F42EE22E109200
:1013A000480710924907222311F4EE24E3948E2D6E
:1013B0008150F50182831182C50169830E947B09F6
:1013C000F50181836981882309F04FC0D62EDD0C99
:1013D000C5016D2D0E943409F5018183882309F030
:1013E00044C0C5016F2D0E94F208F5018183882356
:1013F000E1F5C5010E947B09F50181838823A9F5E8
:101400006D2D6F5FC5010E943409F501818388232A
:1014100011F4FF2421C0F50128C0F5018281F816DE
:1014200049F4C50160E00E94B208F5018183883566
:1014300049F01BC0C50161E00E94B208F50181833B
:10144000803599F48091BB00F80181938F01F3946A
:10145000F0924807F0924A07FE14F8F2C5010E9484
:101460007B08F5018183882319F093A19F5F93A3E3
:101470000F90CF91DF911F910F91FF90EF90DF9030
:10148000BF90AF900895FF920F931F93CF93DF9378
:10149000EC01062F142FF22E19820E947B098983FA
:1014A0008823D1F4602F660FCE010E94340989830E
:1014B000882391F4CE01612F0E94F208898388234A
:1014C00059F4CE016F2D0E94F2088983882321F4FC
:1014D000CE010E947B088983DF91CF911F910F91EC
:1014E000FF9008951F920F920FB60F9211248F93C1
:1014F0009F938091B90090E0887F90708834910527
:10150000B9F08934910554F48033910589F088331A
:10151000910581F08032910591F40AC088379105D8
:1015200049F0803B910531F08836910541F402C0C5
:1015300084E903C01092BC0085E48093BC009F91B5
:101540008F910F900FBE0F901F90189508952F92B6
:101550003F924F925F926F927F928F929F92AF9243
:10156000BF92CF92DF92EF92FF920F931F93CF9390
:10157000DF93EC018F8D882329F4A8A0B9A0CAA01D
:10158000DBA060C12CAD3DAD4EAD5FAD88AD99AD7A
:10159000AAADBBAD281739074A075B0709F448C154
:1015A000EE8DF0E0CF010B9627E030E0B9010E940C
:1015B000049F8C01CF010996B9010E94049F7C0110
:1015C000CF010C96B9010E94049F3C01CF010896FF
:1015D000B9010E94049F4C01CF010D96B9010E94F0
:1015E000049F1C01CF010796B9010E94049F2C01A2
:1015F000D801AA0FBB1FAA0FBB1FAC0FBD1FF7015D
:10160000EE0FFF1FEE0FFF1FEC0FFD1F12966D91E7
:101610007D918D919C9115972281338144815581D3
:101620000E94399B20E030E040E251E40E94FE9DA0
:101630005B016C01D8011996AA0FBB1FAA0FBB1F33
:10164000AC0FBD1FF7013996EE0FFF1FEE0FFF1F06
:10165000EC0FFD1F6D917D918D919C9120813181C9
:1016600042815381621B730B840B950B0E94B79CC4
:101670009B01AC01C601B5010E941E9C5B016C017F
:10168000D301AA0FBB1FAA0FBB1FAC0FBD1FF401D4
:10169000EE0FFF1FEE0FFF1FEC0FFD1F12966D9157
:1016A0007D918D919C911597228133814481558143
:1016B0000E94399B20E030E040E851E40E94FE9D0A
:1016C0007B018C01D3011996AA0FBB1FAA0FBB1F68
:1016D000AC0FBD1FF4013996EE0FFF1FEE0FFF1F79
:1016E000EC0FFD1F6D917D918D919C912081318139
:1016F00042815381621B730B840B950B0E94B79C34
:101700009B01AC01C801B7010E941E9C9B01AC016A
:10171000C601B5010E943A9B5B016C01D101AA0F81
:10172000BB1FAA0FBB1FAC0FBD1FF201EE0FFF1FA7
:10173000EE0FFF1FEC0FFD1F12966D917D918D91A5
:101740009C91159722813381448155810E94399B58
:1017500020E030E040EC50E40E94FE9D7B018C01D3
:10176000D1011996AA0FBB1FAA0FBB1FAC0FBD1F3B
:10177000F2013996EE0FFF1FEE0FFF1FEC0FFD1F5A
:101780006D917D918D919C91208131814281538118
:10179000621B730B840B950B0E94B79C9B01AC01E1
:1017A000C801B7010E941E9C9B01AC01C601B50196
:1017B0000E943A9B20E030E040E05DE30E94FE9D05
:1017C000B62FA72FF82FE92FA62EB72EC82ED92E69
:1017D0002B2F3A2F4F2F5E2F0E94AC9E8823C1F4EF
:1017E00086017501E89417F9C801B7012FEF3FEFA3
:1017F0004FE75FE70E94AC9E8823A1F4C801B701C0
:101800002FEF3FEF4FE75FE70E94179C181654F445
:101810000F2EF0E0AF2EF0E0BF2EF0E0CF2EF0E084
:10182000DF2EF02D1F8EA8A2B9A2CAA2DBA20AC089
:101830000F2EF0E0AF2EF0E0BF2EF0E0CF2EF0E064
:10184000DF2EF02D6A2D7B2D8C2D9D2DDF91CF91DC
:101850001F910F91FF90EF90DF90CF90BF90AF90CE
:101860009F908F907F906F905F904F903F902F90C0
:101870000895EF92FF920F931F93CF93DF93EC01A4
:101880008B0106C0A881B981ED91FC91CE0119951B
:10189000F8010F5F1F4F64916623A1F7DF91CF918D
:1018A0001F910F91FF90EF900895CF93DF93EC017C
:1018B0000E94390CCE010E94FA94DF91CF910895D5
:1018C000DF93CF93CDB7DEB7FE013A968E819F812D
:1018D00060E0488559859F010E94010FCF91DF91FB
:1018E0000895DF93CF93CDB7DEB7FE013A968E8190
:1018F0009F8161E0488559859F010E94010FCF912A
:10190000DF910895FB019A0161E0AF010E94010F90
:1019100008950F931F93DC01ED91FC910288F389E8
:10192000E02D20E030E000E010E019951F910F91CC
:101930000895FC01838D882371F00788F08DE02DD8
:101940002081318182819381281B390B848195818B
:101950002823392302C02FEF3FEFC9010895FC016E
:10196000838D882391F0018CF28DE02D20813181CF
:1019700082819381281B390B209530958481958134
:10198000282339232F5F3F4F02C02FEF3FEFC901BC
:101990000895FC01838D882351F00788F08DE02D98
:1019A00020813181828193812817390721F42FEF1B
:1019B0003FEFC901089582819381A681B781A80F65
:1019C000B91F2C9182819381019644815581842392
:1019D00095239383828330E0ECCFFC01838D8823B1
:1019E00051F00788F08DE02D208131818281938133
:1019F0002817390721F42FEF3FEFC901089582819D
:101A000093810680F781E02DE80FF91F208130E0F7
:101A1000F4CFFC01A789B08D12968D919C911397FC
:101A200011969C938E93018CF28DE02D8081918193
:101A3000938382830895FC01838D8823A9F1A18D6E
:101A4000B28D8D919C911197019614962D913C9198
:101A5000159782239323248D222339F012962D91FA
:101A60003C91139782179307F9F012962D913C91B0
:101A7000139782179307C9F32D913C9111971696EE
:101A80000D90BC91A02DA20FB31F6C93A18DB28DB0
:101A900011969C938E93A289B3898C919689892BF8
:101AA0008C9321E030E002C020E030E0C9010895CD
:101AB00021E030E002C0220F331F8A95E2F78091C7
:101AC000B107822B8093B10708956F927F928F9216
:101AD000AF92CF92EF92FF920F931F93DF93CF932A
:101AE000CDB7DEB73C01862FFA01D30113961C92C5
:101AF0001E92129748EE53E060E070E014964D930A
:101B00005D936D937C93179747ED55E011965C9329
:101B10004E931D96FC93EE931C971F963C932E9329
:101B20001E9751961C930E9350975396FC92EE92EB
:101B300052975496CC9254975596AC925597569688
:101B40008C925697282F30E093E0220F331F9A95FE
:101B5000E1F7A9014F58584F58965C934E93579709
:101B60002F56384F5A963C932E9359970E94580DF2
:101B7000C30140E051EE60E070E00E94890CCF911B
:101B8000DF911F910F91FF90EF90CF90AF908F90CA
:101B90007F906F9008950F931F93CF93DF93EC0185
:101BA0001B821A828A819B8199838883E1E021E0EC
:101BB00030E001C0EF5FA9010E2E02C0440F551F97
:101BC0000A94E2F7862F972FF2E081309F0710F0FA
:101BD00080E092E04817590768F301E010E002C086
:101BE000000F111FEA95E2F7015010408E819F818E
:101BF000009739F02C813D812017310789F00E9430
:101C00006D981D830C83C80101960E94E8979C0182
:101C10009F838E8381E02115310519F480E001C096
:101C200081E0DF91CF911F910F910895AF92BF9204
:101C3000CF92DF92EF92FF920F931F93CF93DF9398
:101C4000EC015A016B0179018B8D8823A1F12115DB
:101C5000310539F4EF89F88DE480F5800894E11CB2
:101C6000F11C0115110531F4E98DFA8D04811581FE
:101C70000F5F1F4FEF89F88D848195810196E816DB
:101C8000F90691F4E98DFA8D848195810196081702
:101C9000190751F4EA89FB8990818E892D89822B5D
:101CA00080958923808328C0E881F9810088F189A3
:101CB000E02DCE0119958F89988DE114F10419F466
:101CC00070E8E72EF12CB7010E94CB0D882361F05C
:101CD000898D9A8D0115110511F400E110E0B8010C
:101CE0000E94CB0D882341F4E881F9810088F189B5
:101CF000E02DCE0119954CC0E98DFA8D1382128228
:101D00008281938191838083EF89F88D138212827F
:101D1000828193819183808381E08B8F1A141B04CD
:101D20001C041D0454F5E889F98980E0A81681EEA9
:101D3000B80680E0C80680E0D80631F181E090E086
:101D40000C8802C0880F991F0A94E2F7808360E034
:101D500079E08DE390E0A60195010E94179F215044
:101D60003040404050405695479537952795EC8533
:101D7000FD853083EE85FF852083EA89FB8980819C
:101D80009D89892B808304C0108220E130E0EFCF51
:101D9000DF91CF911F910F91FF90EF90DF90CF9047
:101DA000BF90AF900895CF93DF93EC011B821A820E
:101DB0008A819B81998388831D821C828E819F8169
:101DC000009721F00E946D981F821E82DF91CF91B3
:101DD0000895CF93DF93EC01EA89FB8990818E8986
:101DE0002D89822B8095892380838F89988D0E94ED
:101DF000D30E898D9A8D0E94D30E1B8EDF91CF91C9
:101E000008952F923F924F925F926F927F928F929E
:101E10009F92AF92BF92CF92DF92EF92FF920F9379
:101E20001F93DF93CF93CDB7DEB764970FB6F894C7
:101E3000DEBF0FBECDBF7C016A8B5F874E87A901D5
:101E40001E010894211C311C02C04C855D85EE8565
:101E5000FF858A8980FD659180FF6191FF87EE870C
:101E6000662309F4E1C3653251F4982F90FD859102
:101E700090FF8191FF87EE87853201F510C06A30AF
:101E800071F4D701ED91FC910190F081E02DC70133
:101E90006DE04B8B5C8B19956AE04B895C89D701AF
:101EA000ED91FC910190F081E02DC7014B8B5C8B93
:101EB00019954B895C895D874C87C7CF10E0DD247D
:101EC00000E00032B0F48B3269F08C3228F48032BA
:101ED00051F0833271F40BC08D3239F0803349F404
:101EE00001602CC00260046029C0086027C0006146
:101EF00025C007FD2FC0982F90539A3098F406FF05
:101F000008C0812F880F182F110F110F180F190FEC
:101F100015C08D2D880FD82EDD0CDD0CD80ED90EF6
:101F200000620CC08E3221F406FD7EC3006406C040
:101F30008C3611F4006802C0883661F4EE85FF85A6
:101F40009A8990FD859190FF8191FF87EE87882384
:101F500009F0B7CF982F9554933018F40061805E44
:101F600006C0982F9556933008F0E5C10F7E06FF06
:101F700016E06FE3C62EC022853619F4A0E4CA2A03
:101F800007C0863619F4B0E8CB2A02C011111150EF
:101F9000C7FE05C01C3340F4712E739407C018307F
:101FA00038F4212F772407C03CE3732E27E003C0C9
:101FB000772427E017E0FA013496FD87EC87DA01F1
:101FC0006D917D918D919C91A101072D0E94F50647
:101FD0005C018980E82DF0E0F98BE88B80FE03C07E
:101FE000F889F3FF06C0C1FC06C0C2FE06C000E2CD
:101FF00005C00DE203C00BE201C000E088899989A9
:102000008C709070009709F444C0002311F084E0B4
:1020100001C083E08D1578F4D81AC3FC0DC0D70138
:10202000ED91FC910190F081E02DC70160E21995DE
:10203000DA94A9F701C0DD24002349F0D701ED911E
:10204000FC910190F081E02DC701602F1995B889AE
:10205000B3FD03C009E612E012C005E612E00FC0AE
:10206000A114B10409F06052D701ED91FC910190E7
:10207000F081E02DC70119950F5F1F4F05C0AC2CF3
:10208000BB24B0E1AB22BB24F8016491662341F785
:10209000C8C2C7FE0EC07A0CF889F4FF04C08A815A
:1020A000813309F47A94171454F5872D893050F54B
:1020B0002DC0C6FC2BC0812F90E08A159B053CF0FB
:1020C0009CEFA9169FEFB90614F0A0E8CA2A1123C5
:1020D00059F0E2E0F0E0EC0FFD1FE10FF11D80810F
:1020E000803311F41150F3CFC7FE10C0712E7394DA
:1020F000812F90E0A816B90644F41A1907C0772476
:10210000739404C028E0722E01C010E0C7FE06C020
:102110001A141B0434F4C501019605C085E090E053
:1021200002C081E090E001110196112331F0212FCE
:1021300030E02F5F3F4F820F931F2D2D30E082172D
:10214000930714F4D81A01C0DD244C2C5524C20185
:1021500089709070009769F40AC0D701ED91FC91E5
:102160000190F081E02DC70160E21995DA94DD203D
:10217000A1F7002349F0D701ED91FC910190F08186
:10218000E02DC701602F199543FC0DC00AC0D7018F
:10219000ED91FC910190F081E02DC70160E319956C
:1021A000DA94DD20A1F7C7FE54C04501B7FE02C096
:1021B0008824992425010894411C511C4818590869
:1021C000420C531CF501E719F1093F01012F10E002
:1021D000109501951F4FFFEF8F16FFEF9F0649F4F3
:1021E000D701ED91FC910190F081E02DC7016EE2E5
:1021F0001995A814B90434F0681479041CF4F20198
:10220000608101C060E30894810891080894411C32
:10221000511C801691064CF0D701ED91FC91019074
:10222000F081E02DC7011995D6CF8A149B0441F4A3
:102230008A81863320F4853319F4B889B4FF61E3C9
:10224000D701ED91FC9111970190F081E02DC7012C
:1022500070C06A81613311F0BFEE8B22CE2C0F2D3E
:10226000D701ED91FC910190F081E02DC701199506
:102270001123D9F0D701ED91FC910190F081E02D6F
:10228000C7016EE2199592E0792EF101E70DF11D7B
:1022900060817394D701ED91FC910190F081E02D64
:1022A0008C2D902F1995115081F7D701ED91FC914C
:1022B00011970190F081E02D44FE02C065E401C059
:1022C00065E68C2D902F1995B7FC05C0A114B104BB
:1022D00041F484FE06C0B094A194B108B3946DE2B9
:1022E00001C06BE2D701ED91FC910190F081E02DEE
:1022F0008C2D902F199560E305C06F5FE6EFFFEF1F
:10230000AE0EBF1EFAE0AF16B104BCF7D701ED91D7
:10231000FC910190F081E02D8C2D902F1995D70123
:10232000ED91FC916A2D605D0190F081E02D8C2D86
:10233000902F199576C1833631F0833781F083353C
:1023400009F060C021C0FA013296FD87EC87DA01FE
:102350008C918983410181E0A82EB12C13C0FA0130
:102360003296FD87EC87DA018D909C90119706FFDD
:1023700003C0612F70E002C06FEF7FEFC4010E94C5
:10238000EF9F5C010F7714C0FA013296FD87EC874E
:10239000DA018D909C90119706FF03C0612F70E0C9
:1023A00002C06FEF7FEFC4010E94D49F5C01006800
:1023B00003FD24C00AC0D701ED91FC910190F0818A
:1023C000E02DC70160E21995DA948D2D90E0A816F2
:1023D000B90688F313C0F40107FD659107FF619109
:1023E0004F01D701ED91FC910190F081E02DC701E3
:1023F0001995D110DA940894A108B108A114B10478
:1024000051F70FC1843611F0893661F507FF0BC013
:10241000FA013496FD87EC87DA016D917D918D91FB
:102420009C9113970CC0FA013296FD87EC87DA0174
:102430006D917C911197882777FD8095982F0F7665
:1024400097FF08C090958095709561957F4F8F4F4D
:102450009F4F0068A1012AE030E00E94CD07C82EFE
:10246000C21842C0853721F40F7E2AE030E020C038
:10247000097F8F36A9F0803720F4883509F0D4C061
:102480000BC0803721F0883709F0CEC001C0006151
:1024900004FF09C0046007C004FF08C0066006C04E
:1024A00028E030E005C020E130E002C020E132E069
:1024B00007FF0BC0FA013496FD87EC87DA016D91B6
:1024C0007D918D919C91139709C0FA013296FD87F9
:1024D000EC87DA016D917C9180E090E0A1010E948F
:1024E000CD07C82EC2180F7706FF09C00E7FC11690
:1024F00030F404FF06C002FD04C00F7E02C08C2C25
:1025000001C0812E802F90E004FF0CC0FE01EC0D75
:10251000F11D2081203311F4097E09C0839402FF4C
:1025200006C004C086789070009709F08394A02EAE
:10253000BB2403FD18C000FF13C08D1428F41C2D0C
:102540001D0D18198D2C0CC01C2D0AC0D701ED9142
:10255000FC910190F081E02DC70160E21995839410
:102560008D14A0F304C08D1410F4D81801C0DD241C
:10257000A4FE1CC00E2D8F2CD701ED91FC91019073
:10258000F081E02DC70160E31995A2FE2EC0D701AE
:10259000ED91FC9111970190F081E02DA1FE02C018
:1025A00068E501C068E7802F982D13C0C5018678C3
:1025B00090700097D1F0A1FC02C060E201C06BE214
:1025C00007FD6DE2D701ED91FC910190F081E02DC6
:1025D000C70119950AC0D701ED91FC910190F081D6
:1025E000E02DC70160E319951150C116A0F3CA94FC
:1025F000D701ED91FC91D101AC0DB11D0190F0819D
:10260000E02DC7016C911995CC2089F70AC0D7013C
:10261000ED91FC910190F081E02DC70160E21995E8
:10262000DA94DD20A1F711CC64960FB6F894DEBFE2
:102630000FBECDBFCF91DF911F910F91FF90EF9013
:10264000DF90CF90BF90AF909F908F907F906F90D2
:102650005F904F903F902F900895CF93DF93EC01C0
:1026600081E08A8384E090E09D838C83798768870A
:102670001C86E881F9810190F081E02DCE01199549
:10268000E881F9812E850280F381E02DCE016A81F7
:1026900040E050E01995E881F9810280F381E02D56
:1026A000CE016A8141E050E02D851995E881F981DC
:1026B00028890280F381E02DCE016A8142E050E05A
:1026C0001995E881F9810280F381E02DCE016A81BC
:1026D00043E050E02F851995DF91CF910895CF9376
:1026E000DF93EC011D821C82E881F98148855985C0
:1026F0000480F581E02D6A8120E01995888599850F
:102700000196998788872E893F892817390710F401
:1027100081E08C878A81813011F482E001C081E000
:102720008A83DF91CF910895CF93DF93EC01262F19
:102730008C85882309F069C0E881F9814C815D812D
:102740000280F381E02DCE016A8119958C819D81F3
:1027500001969D838C832C893D898217930708F409
:1027600054C084E090E09D838C83E881F9814885A2
:1027700059850480F581E02DCE016A8120E019950C
:10278000888599850196998788872E893F8928179A
:10279000390710F481E08C878A81813011F482E05E
:1027A00001C081E08A83E881F9812E850280F3816E
:1027B000E02DCE016A8140E050E01995E881F98171
:1027C0000280F381E02DCE016A8141E050E02D8549
:1027D00019952F8538892F5F3F4F388B2F87E881D8
:1027E000F9810280F381E02DCE016A8142E050E060
:1027F000232F1995E881F9810280F381E02DCE0124
:102800006A8143E050E02F851995DF91CF910895BB
:10281000EF92FF920F931F93CF93DF93EC017A0116
:102820008B01272F552727FD5095352F452F622FD8
:102830000E9494139801552737FD5095452FCE01DE
:10284000622F0E949413552717FD5A95412F302F60
:102850002F2DCE01622F0E949413CE016E2D0E9467
:102860009413DF91CF911F910F91FF90EF900895F6
:102870001F93CF93DF93EC0181E08B8384E090E0A2
:102880009F838E837B876A87E881F9810190F0813D
:10289000E02DCE011995E881F9814A855B85068096
:1028A000F781E02DCE016B8119958A859B85019674
:1028B0009B878A87E881F9810084F185E02DCE012C
:1028C0006B8140E050E01995182F8D871E86E881B6
:1028D000F9810084F185E02DCE016B8141E050E06B
:1028E0001995312F20E090E0822B932B9E878D87C6
:1028F000E881F9810084F185E02DCE016B8142E011
:1029000050E01995182F8F87188AE881F981008483
:10291000F185E02DCE016B8143E050E01995312F18
:1029200020E090E0822B932B988B8F87DF91CF91C3
:102930001F9108950F931F93CF93DF93EC01E881CC
:10294000F9810190F081E02D1995E881F9814E819E
:102950005F810084F185E02DCE016B811995182FE0
:102960008E819F8101969F838E832C893D8982175A
:10297000930708F456C084E090E09F838E83E8813B
:10298000F9814A855B850680F781E02DCE016B8158
:1029900019958A859B8501969B878A872E893F8911
:1029A0002817390710F41B861A86E881F9810084FC
:1029B000F185E02DCE016B8140E050E01995082FA4
:1029C0008D871E86E881F9810084F185E02DCE0196
:1029D0006B8141E050E01995302F20E090E0822B90
:1029E000932B9E878D87E881F9810084F185E02D06
:1029F000CE016B8142E050E01995082F8F87188A2D
:102A0000E881F9810084F185E02DCE016B8143E0FE
:102A100050E01995302F20E090E0822B932B988B7B
:102A20008F87812FDF91CF911F910F910895EF92A2
:102A3000FF920F931F93CF93DF93EC010E949A14A0
:102A400090E0A0E0B0E0EE24F82E092F1A2FCE017E
:102A50000E949A1490E0A0E0B0E08E299F29A02B5C
:102A6000B12BEE24F82E092F1A2FCE010E949A14B2
:102A700090E0A0E0B0E08E299F29A02BB12BEE249E
:102A8000F82E092F1A2FCE010E949A14282F30E019
:102A900040E050E02E293F29402B512BB901CA01BB
:102AA000DF91CF911F910F91FF90EF900895EF92DA
:102AB000FF920F931F93CF93DF93EC017B0101E013
:102AC00010E010C0E881F9810484F585E02DCE0185
:102AD000B801199561E070E080E090E0F701199588
:102AE0000F5F1F4F6E897F896F5F7F4FCB01E3E0E0
:102AF00096958795EA95E1F78017910718F7CE012B
:102B00000E942D13CE0141E150E262E178E20E9481
:102B10000814CE010E946F13DF91CF911F910F9186
:102B2000FF90EF900895CF93DF93EC016E897F893A
:102B30006F5F7F4F0E943814CE010E94171521E06D
:102B4000613130E2730732E1830738E2930709F419
:102B500020E0822FDF91CF910895CF93DF93EC0196
:102B60006E897F890E94381481E02D853E859FEF14
:102B70002F3F390709F480E0DF91CF9108958F92BC
:102B80009F92AF92BF92CF92DF92EF92FF920F93FC
:102B90001F93CF93DF93EC01AE88BF8861E070E0B4
:102BA0000E943814ED84FE8400E010E08701FF24C9
:102BB000EE248F859889A0E0B0E0E82AF92A0A2B54
:102BC0001B2B41E0842E912C2DC06501C80CD91C13
:102BD000D694C794CE01B6010E9438148D859E8587
:102BE000A0E0B0E0DC01992788272F85388940E0F4
:102BF00050E0822B932BA42BB52B803020E0920742
:102C00002FEFA2072FEFB20718F080E090E0DC0171
:102C10008E159F05A007B10710F4560103C07C0173
:102C20008D014601C501881999098230910568F620
:102C30006501CE01B5010E9438148D859E85A0E006
:102C4000B0E0DC01992788272F85388940E050E0E3
:102C5000822B932BA42BB52B803020E092072FEFF3
:102C6000A2072FEFB20728F4E816F9060A071B0798
:102C700008F06401C601DF91CF911F910F91FF9081
:102C8000EF90DF90CF90BF90AF909F908F9008957E
:102C9000CF93DF93EC010E94BF15BC01CE010E94CF
:102CA00038148D859E85DF91CF9108950F931F93E2
:102CB000CF93DF93EC010E94BF15182F092FCE018F
:102CC000612F702F0E943814CE010E944816009781
:102CD00031F02D853E858FEF2F3F380769F581E074
:102CE00090E09E878D87988B8F87CE0161E070E0A2
:102CF0001CC021E030E0388B2F87CE01612F702F70
:102D000014C0C801692F702F8FEF6F3F780711F43F
:102D100060E070E02F5F3F4F3E872D8781E090E0BD
:102D2000988B8F876F5F7F4FCE010E942D13DF91AD
:102D3000CF911F910F9108954F85588942305105C9
:102D400000F7D7CFEF92FF920F931F93CF93DF93AC
:102D5000EC010E94BF158130910529F482E498E0CE
:102D600062E972E00FC0CE0161E070E00E943814A9
:102D70008D859E852FEF8F3F920741F482E498E086
:102D80006DE672E00E94390C80E024C0CE010E9402
:102D9000BF157C01CE01B7010E9438140D851E8538
:102DA000B7016E5F7F4FCE010E9438142D853E859E
:102DB0000217130738F4CE0161E070E00E94381466
:102DC0002D853E850217130721F0802F8F5F821B10
:102DD00001C081E0DF91CF911F910F91FF90EF90A3
:102DE00008956F927F928F929F92AF92BF92CF92EF
:102DF000DF92EF92FF920F931F93CF93DF93EC013B
:102E00005B010E94AD15882391F0CE0161E070E076
:102E10000E9438148D859E85A816B90640F4CE010F
:102E20000E94BF15082F192FCE88DF8807C0CE015A
:102E30000E94BF15C82ED92E01E010E0350188246C
:102E400099244301772466248FEF9FEFA0E0B0E040
:102E5000682A792A8A2A9B2A28C07601E00EF11E68
:102E6000F694E794CE01B7010E9438148D859E85B3
:102E7000A0E0B0E0DC01992788272F85388940E061
:102E800050E0822B932BA42BB52B803020E09207AF
:102E90002FEFA2072FEFB20728F4681679068A06EB
:102EA0009B0610F0870101C06701C601801B910BD2
:102EB0008230910590F67601CE01B6010E94381459
:102EC0008D859E858A159B0569F07801CE01B80134
:102ED0000E9438148D859E858A159B0519F0EE2475
:102EE000EA94FE2CC701DF91CF911F910F91FF90C3
:102EF000EF90DF90CF90BF90AF909F908F907F909A
:102F00006F9008958F929F92BF92CF92DF92EF922F
:102F1000FF920F931F93CF93DF93EC01B62E8A019C
:102F200069010E94A216E82EFF2421E0E216F104B6
:102F3000F1F46E897F89CE010E9438148D859E85BB
:102F4000EFEF8F3F9E0751F4F801F182E082CE014E
:102F50006B2D70E00E94F116F6011AC0CE016B2DA8
:102F600070E00E94F116F6019183808322C0FB2D50
:102F7000F13089F46E897F89CE010E9438148D85E5
:102F80009E852FEF8F3F920789F481E090E0F80152
:102F90009183808325C08B2C9924CE010E944816F2
:102FA0008E199F0901968816990629F4CE010E9470
:102FB000BF150196ECCF74010894E108F108CE0129
:102FC000B7010E94F1160196F801918380831816CB
:102FD000190634F00894E108F1081E141F047CF36C
:102FE000F801208131818E899F8901962817390740
:102FF00019F02115310529F481E090E0F801918361
:103000008083CE016B2D70E00E94F116F601918352
:1030100080831816190634F0F80180819181F60139
:1030200091838083DF91CF911F910F91FF90EF905B
:10303000DF90CF90BF909F908F9008958EBD0DB47C
:1030400007FEFDCF8EB5089541E0FC012689378942
:10305000FFE02F3F3F0708F440E0842F08951F93BF
:10306000CF93DF93EC01162F888D998D009751F047
:10307000DC01ED91FC910190F081E02DBE011995EC
:103080008823D1F08091300185FFFCCF1093360169
:103090008091300187FFFCCF10913601A88DB98D4A
:1030A000109759F0ED91FC9111970280F381E02D7A
:1030B000CD01BE01199501C010E0812FDF91CF91A4
:1030C0001F9108958CE161E00E94019B08958CE1BD
:1030D00060E00E94019B0895FF920F931F93CF938E
:1030E000DF93EC01062F142FF52E0E946718013094
:1030F00019F4CE0164ED02C0CE0166ED0E942F18D6
:10310000CE0160E00E942F18CE016F2D0E942F1873
:10311000CE01612F0E942F18CE0160E00E942F186F
:10312000CE0160E00E942F18182FCE010E94621875
:10313000812FDF91CF911F910F91FF900895EF9212
:10314000FF920F931F93CF93DF93EC01062F142F61
:10315000F52EE22E0E946718013019F4CE0164E8C2
:1031600002C0CE0167E80E942F18CE0160E00E94E5
:103170002F18CE016F2D0E942F18CE01612F0E94B3
:103180002F18CE016E2D0E942F18CE010E946218BA
:10319000DF91CF911F910F91FF90EF9008951F93B2
:1031A000CF93DF93EC010E946718CE016FE90E9474
:1031B0002F18CE016FEF0E942F18898BCE016FEF71
:1031C0000E942F18182F8A8B1B8ACE016FEF0E9446
:1031D0002F18312F20E090E0822B932B9B8B8A8B32
:1031E000CE016FEF0E942F18CE010E946218DF916E
:1031F000CF911F9108951F93CF93DF93EC010E940D
:103200006718CE0167ED0E942F18CE0160E00E9482
:103210002F18182FCE010E946218812FDF91CF91B5
:103220001F9108950E94FB18807808950F931F93B3
:10323000CF93DF93EC018B010E946718CE0167ECFE
:103240000E942F18CE0164E90E942F18CE0160E879
:103250000E942F18CE016AE90E942F18CE010E9409
:103260006218CE010E94671806C061E070E080E03D
:1032700090E0F8011995CE010E9412198823A9F354
:10328000CE010E946218DF91CF911F910F91089596
:103290000F931F93CF93DF93EC018B010E9467186C
:1032A000CE0160E50E942F188C899D8922E0803034
:1032B000920769F4B80194E0769567959A95E1F7DD
:1032C000CE010E942F18602F6295607F0DC0B8015B
:1032D00083E0769567958A95E1F7CE010E942F18D5
:1032E000602F6295660F607ECE010E942F18CE017E
:1032F00060E00E942F18CE010E946218CE010E9449
:103300006718CE010E9412198823D9F3CE010E94BA
:103310006218DF91CF911F910F9108950F931F9322
:10332000CF93DF93EC018B010E946718CE0161E817
:103330000E942F188C899D8922E08030920761F4C9
:10334000B801660F672F661F770B7195CE010E943B
:103350002F18602F660F0CC0B80126E07695679590
:103360002A95E1F7CE010E942F18602F660F660F95
:10337000CE010E942F18CE0160E00E942F18CE01CE
:103380000E946218CE010E946718CE010E94121995
:103390008823D9F3CE010E946218DF91CF911F914B
:1033A0000F910895CF92DF92FF920F931F93DF93B7
:1033B000CF930F92CDB7DEB76C018A01F22E6983ED
:1033C0000E9467186981613019F4C60163E802C080
:1033D000C60166E80E942F18F60184899589F2E0FB
:1033E00080309F0761F4B801660F672F661F770B67
:1033F0007195C6010E942F18602F660F0CC0B8018E
:1034000046E0769567954A95E1F7C6010E942F1828
:10341000602F660F660FC6010E942F18C60160E07C
:103420000E942F18C6010E946218C6010E946718E8
:10343000FF2029F0C6010E9412198823D9F3C60182
:103440000E9462180F90CF91DF911F910F91FF9012
:10345000DF90CF900895EF92FF920F931F93DF9329
:10346000CF930F92CDB7DEB77C018A0169830E94AA
:1034700067186981613019F4C70163E502C0C701AB
:1034800065E50E942F18F70184899589F2E0803064
:103490009F0761F4B801660F672F661F770B719560
:1034A000C7010E942F18602F660F0CC0B801E6E01C
:1034B00076956795EA95E1F7C7010E942F18602F6E
:1034C000660F660FC7010E942F18C70160E00E94B7
:1034D0002F18C7010E946218C7010E946718C70110
:1034E0000E9412198823D9F3C7010E9462180F9015
:1034F000CF91DF911F910F91FF90EF900895CF939F
:10350000DF93EC01CE010E9412198823D9F3DF91D9
:10351000CF9108950E94FB1890E081709070A4E014
:10352000880F991FAA95E1F720E132E0281B390B9B
:10353000C9010895CF93DF93EC011F8A1E8A8EE0A4
:1035400061E00E94BC9A8FE060E00E94BC9A8CE12E
:1035500061E00E94BC9A89E261E00E94BC9A81E22B
:1035600060E00E94BC9A89E260E00E94019B61E0F9
:1035700070E080E090E00E94829989E261E00E9420
:10358000019BCE010E946218109235011092340105
:103590008091040184608093040180EC8093320167
:1035A00088E1809331011092350110923401CE01EF
:1035B0000E948A1A9D8B8C8BE881F9810288F3899D
:1035C000E02DCE0119958B898F71873019F48FEF1B
:1035D0009FE104C0863021F48FEF9FE09F8B8E8B9C
:1035E000DF91CF9108951092B3071092B207109215
:1035F000B5071092B4071092B7071092B607089556
:103600006330710550F4FB01EE0FFF1FEE54F84FCD
:103610005183408320E030E002C02FEF3FEFC9012B
:1036200008951F920F920FB60F920BB60F921124AE
:103630002F933F934F935F936F937F938F939F93BA
:10364000AF93BF93EF93FF93E091B207F091B3076D
:10365000309709F01995FF91EF91BF91AF919F912C
:103660008F917F916F915F914F913F912F910F902B
:103670000BBE0F900FBE0F901F9018951F920F92C8
:103680000FB60F920BB60F9211242F933F934F93C7
:103690005F936F937F938F939F93AF93BF93EF93BA
:1036A000FF93E091B407F091B507309709F01995B1
:1036B000FF91EF91BF91AF919F918F917F916F910A
:1036C0005F914F913F912F910F900BBE0F900FBEC6
:1036D0000F901F9018951F920F920FB60F920BB676
:1036E0000F9211242F933F934F935F936F937F9388
:1036F0008F939F93AF93BF93EF93FF93E091B607A0
:10370000F091B707309709F01995FF91EF91BF91AC
:10371000AF919F918F917F916F915F914F913F9169
:103720002F910F900BBE0F900FBE0F901F9018950A
:103730003091C807E9EBF7E020E006C08191919154
:1037400086179707A9F02F5F2317C0F39FB7F89448
:103750008091C807853058F4E82FF0E0EE0FFF1F86
:10376000E754F84F718360838F5F8093C8079FBFD2
:1037700008957093C4076093C307089581E0809310
:10378000C90708951092C90708959091C90781E06B
:1037900089270895CF92DF92EF92FF920F931F93A4
:1037A000CF93DF938091B8078093B20078940E9402
:1037B0005C997B018C018091C707882359F0E091C7
:1037C000C307F091C407309709F442C0C801B7019C
:1037D00019953EC081E08093C7078091C90788236F
:1037E00061F539EBC32E37E0D32EC0E0D0E00AC03C
:1037F000D601ED91FD916D01309719F0C801B70127
:10380000199521968091C80790E0C817D90784F3CD
:103810008FB7F894E091C507F091C6071092C607DC
:103820001092C5078FBF309741F081E08093C907A0
:10383000C801B70119951092C907E091C307F0912B
:10384000C407309719F0C801B70119951092C7073E
:10385000DF91CF911F910F91FF90EF90DF90CF906C
:103860000895CF93DF93EB018091C707882321F45C
:103870008091C907882331F0D093C607C093C5074C
:1038800080E00AC081E08093C9070E945C99FE0134
:1038900019951092C90781E0DF91CF91089529E031
:1038A00036E0FC01318320836093B8070895CB0193
:1038B000E0E7F0E010821092B00026E02093B10023
:1038C0001092B20021E027BB20831092C40710920F
:1038D000C3071092C9071092C7071092BA07109237
:1038E000B9071092BC071092BB071092BE07109246
:1038F000BD071092C0071092BF071092C207109226
:10390000C10760E070E04AEC5BE10E94001B089593
:10391000EF92FF920F931F937B018C01A8019701F7
:103920000E94AC9E8823C9F4C801B70120E030E0B2
:1039300040E85FE30E94F39D87FF14C0C801B70110
:1039400020E030E040E85FEB0E94179C18167CF402
:10395000C801B7010E949E9B0EC060E070E080E04D
:1039600090E009C06BED7FE089EC9FE304C06BED54
:103970007FE089EC9FEB1F910F91FF90EF900895EE
:10398000EF92FF920F931F930E946B9EF62E072FCC
:10399000182FE92E2F2D302F412F5E2D0E94AC9E27
:1039A000882321F0FF2400E010E0EE246F2D702F1B
:1039B000812F9E2D1F910F91FF90EF9008952F92D0
:1039C0003F924F925F926F927F928F929F92AF92AF
:1039D000BF92CF92DF92EF92FF920F931F93DF93EC
:1039E000CF93CDB7DEB766970FB6F894DEBF0FBEA4
:1039F000CDBF9E8B8D8B2A013B0148015901C90126
:103A0000B8010E941B9C69837A838B839C83C501C8
:103A1000B4010E94619E6D877E878F87988BC3015A
:103A2000B2010E94619E6D837E838F839887C3015C
:103A3000B2010E941B9C69877A878B879C87C7018C
:103A4000B6010E94619E4B015C01C701B6010E9454
:103A50001B9C2B013C0169817A818B819C81A30194
:103A600092010E94FE9DED89FE89608371838283AD
:103A700093836D817E818F8198852D853E854F85CD
:103A800058890E94FE9D162F072F382E292EA80137
:103A90009101652F742F832F922FA30192010E9411
:103AA000FE9D6B017C0169857A858B859C85A501CE
:103AB00094010E94FE9D9B01AC01C701B6010E94CA
:103AC000399BED89FE896483758386839783698535
:103AD0007A858B859C852D853E854F8558890E94EA
:103AE000FE9D698B7A8B8B8B9C8BA30192010E942C
:103AF000FE9D6B017C016D817E818F819885A50182
:103B000094010E94FE9D9B01AC01C701B6010E9479
:103B10003A9BED89FE8960877187828793876981E7
:103B20007A818B819C81A50194010E94FE9DED8983
:103B3000FE896487758786879787A8019101652F1D
:103B4000742F832F922FA50194010E94FE9D6B017B
:103B50007C0169857A858B859C85A30192010E94F1
:103B6000FE9D9B01AC01C701B6010E943A9BED8905
:103B7000FE89608B718B828B938B59894A893B8933
:103B80002C89652F742F832F922FA50194010E94F9
:103B9000FE9D6B017C016D817E818F819885A301E3
:103BA00092010E94FE9D9B01AC01C701B6010E94DB
:103BB000399BED89FE89648B758B868B978B8D8500
:103BC0009E85AF85B889B058808F918FA28FB38FB3
:103BD0006D817E818F81988529813A814B815C81BD
:103BE0000E94FE9DED89FE89648F758F868F978F69
:103BF00069857A858B859C8529813A814B815C8199
:103C00000E94FE9DED89FE8960A371A382A393A308
:103C100066960FB6F894DEBF0FBECDBFCF91DF9191
:103C20001F910F91FF90EF90DF90CF90BF90AF90DA
:103C30009F908F907F906F905F904F903F902F90CC
:103C40000895CF92DF92EF92FF920F931F93CF933D
:103C5000DF93EC017B018A0169014115510561F097
:103C6000688D798D8A8D9B8D0E94881C9058F801F3
:103C70006083718382839383E114F10479F06C8D06
:103C80007D8D8E8D9F8D28A139A14AA15BA10E94B7
:103C9000C49BF7016083718382839383C114D10431
:103CA00079F06C857D858E859F85288139814A8153
:103CB0005B810E94C49BF60160837183828393833E
:103CC000DF91CF911F910F91FF90EF90DF90CF90F8
:103CD00008952F923F924F925F926F927F928F92B0
:103CE0009F92AF92BF92CF92DF92EF92FF920F938B
:103CF0001F93DF93CF93CDB7DEB728970FB6F89415
:103D0000DEBF0FBECDBF8C0178876F83DA01CD9007
:103D1000DD90ED90FC90139714968D909D90AD9052
:103D2000BC90179718968D919D910D90BC91A02DE8
:103D300089839A83AB83BC83C701B601EF81F88581
:103D400024853585468557850E94FE9D2B013C01C3
:103D5000C501B401AF81B88550962D913D914D912B
:103D60005C9153970E94FE9D9B01AC01C301B2017F
:103D70000E943A9B2B013C0169817A818B819C8155
:103D8000EF81F88524893589468957890E94FE9DEF
:103D90009B01AC01C301B2010E943A9B362E272E33
:103DA0008D839E83C701B601AF81B88558962D914A
:103DB0003D914D915C915B970E94FE9D2B013C01D2
:103DC000C501B401EF81F885248D358D468D578D61
:103DD0000E94FE9D9B01AC01C301B2010E943A9B6F
:103DE0002B013C0169817A818B819C81AF81B885EF
:103DF00090962D913D914D915C9193970E94FE9DDF
:103E00009B01AC01C301B2010E943A9B462E772E62
:103E1000682E592EC701B601EF81F88520813181C6
:103E2000428153810E94FE9D6B017C01C501B4015A
:103E3000AF81B88514962D913D914D915C91179766
:103E40000E94FE9D9B01AC01C701B6010E943A9BF6
:103E50006B017C0169817A818B819C81EF81F8857E
:103E600020853185428553850E94FE9D9B01AC01D2
:103E7000C701B6010E943A9BD8016D937D938D9343
:103E80009C931397A1013D812E81852F942FA32F01
:103E9000B22FF80184839583A683B783842D972D51
:103EA000A62DB52D80879187A287B387C801289654
:103EB0000FB6F894DEBF0FBECDBFCF91DF911F913B
:103EC0000F91FF90EF90DF90CF90BF90AF909F90B9
:103ED0008F907F906F905F904F903F902F900895BC
:103EE0002F923F924F925F926F927F928F929F920A
:103EF000AF92BF92CF92DF92EF92FF920F931F93F8
:103F0000DF93CF93CDB7DEB728970FB6F894DEBF17
:103F10000FBECDBF8C0178876F83DA01CD90DD9025
:103F2000ED90FC90139714968D909D90AD90BC9061
:103F3000179718968D919D910D90BC91A02D898316
:103F40009A83AB83BC83C701B601EF81F8852481D6
:103F50003581468157810E94FE9D2B013C01C501A0
:103F6000B401AF81B88550962D913D914D915C91F2
:103F700053970E94FE9D9B01AC01C301B2010E94B8
:103F80003A9B2B013C0169817A818B819C81EF8175
:103F9000F885248D358D468D578D0E94FE9D9B01A1
:103FA000AC01C301B2010E943A9B362E272E8D83AD
:103FB0009E83C701B601AF81B88518962D913D91BA
:103FC0004D915C911B970E94FE9D2B013C01C50108
:103FD000B401EF81F88524893589468957890E9483
:103FE000FE9D9B01AC01C301B2010E943A9B2B01D3
:103FF0003C0169817A818B819C81AF81B8859096E3
:104000002D913D914D915C9193970E94FE9D9B0156
:10401000AC01C301B2010E943A9B462E772E682E56
:10402000592EC701B601EF81F88520813181428187
:1040300053810E94FE9D6B017C01C501B401AF81DB
:10404000B8851C962D913D914D915C911F970E94D2
:10405000FE9D9B01AC01C701B6010E943A9B6B011A
:104060007C0169817A818B819C81EF81F885208D2B
:10407000318D428D538D0E94FE9D9B01AC01C70185
:10408000B6010E943A9BD8016D937D938D939C93CA
:104090001397A1013D812E81852F942FA32FB22F3D
:1040A000F80184839583A683B783842D972DA62D4D
:1040B000B52D80879187A287B387C80128960FB650
:1040C000F894DEBF0FBECDBFCF91DF911F910F914E
:1040D000FF90EF90DF90CF90BF90AF909F908F9028
:1040E0007F906F905F904F903F902F9008952F9208
:1040F0003F924F925F926F927F928F929F92AF9278
:10410000BF92CF92DF92EF92FF920F931F93DF93B4
:10411000CF93CDB7DEB766970FB6F894DEBF0FBE6C
:10412000CDBF9E8B8D8B8B017A01FB0164817581E4
:1041300086819781FA0124813581468157810E94C9
:104140003A9BD62EC72EB82EA92EF8016085718510
:1041500082859385F70120853185428553850E94AC
:104160003A9B962E872E782E692EF80164857585E8
:1041700086859785F70124853585468557850E9474
:104180003A9B562E472E382E292EF80160897189C8
:1041900082899389F70120893189428953890E9454
:1041A0003A9B69837A838B839C83F8016489758940
:1041B00086899789F70124893589468957890E941C
:1041C0003A9B6D837E838F839887F801608D718D14
:1041D000828D938DF701208D318D428D538D0E94FC
:1041E0003A9B69877A878B879C87F801648D758DE8
:1041F000868D978DF701248D358D468D578D0E94C4
:104200003A9B6D877E878F87988BF80160A171A19B
:1042100082A193A1F70120A131A142A153A10E9443
:104220003A9B698B7A8B8B8B9C8BF80160817181B7
:1042300082819381F70120813181428153810E94E3
:104240003A9BED89FE896083718382839383A60103
:104250009501852F942FA32FB22F84839583A68356
:10426000B783A4019301852F942FA32FB22F8087AA
:104270009187A287B387A2019101852F942FA32F45
:10428000B22F84879587A687B78759814A813B815A
:104290002C81852F942FA32FB22F808B918BA28BF3
:1042A000B38B5D814E813F812885852F942FA32F6D
:1042B000B22F848B958BA68BB78B59854A853B850E
:1042C0002C85852F942FA32FB22F808F918FA28FB3
:1042D000B38F5D854E853F852889852F942FA32F29
:1042E000B22F848F958FA68FB78F59894A893B89C2
:1042F0002C89852F942FA32FB22F80A391A3A2A343
:10430000B3A3CF0166960FB6F894DEBF0FBECDBF44
:10431000CF91DF911F910F91FF90EF90DF90CF90A1
:10432000BF90AF909F908F907F906F905F904F90D5
:104330003F902F900895EF92FF920F931F93DF937A
:10434000CF93CDB7DEB7A4970FB6F894DEBF0FBEFC
:10435000CDBF7C01AB018E010F5F1F4FC801B701BC
:104360000E9477202E2D3F2DD901F80184E2019083
:104370000D928150E1F7C701A4960FB6F894DEBF05
:104380000FBECDBFCF91DF911F910F91FF90EF90A6
:1043900008954F925F926F927F928F929F92AF9209
:1043A000BF92CF92DF92EF92FF920F931F93DF9312
:1043B000CF93CDB7DEB7E0970FB6F894DEBF0FBE50
:1043C000CDBF8C017B01DC0114968D919D910D90E8
:1043D000BC91A02D8DA39EA3AFA3B8A7DB01189617
:1043E0008D919D910D90BC91A02D89A79AA7ABA707
:1043F000BCA7F80180849184A284B384DB01149665
:104400008D919D910D90BC91A02D8DA79EA7AFA7DA
:10441000B8AB6DA17EA18FA198A529A53AA54BA502
:104420005CA50E94FE9D2B013C01C501B4012DA598
:104430003EA54FA558A90E94FE9D9B01AC01C3015A
:10444000B2010E94399B69837A838B839C83F70135
:104450004080518062807380D801CD90DD90ED90D6
:10446000FC90C501B401A30192010E94FE9D4B0185
:104470005C01C701B60129A53AA54BA55CA50E9420
:10448000FE9D9B01AC01C501B4010E94399B6D8367
:104490007E838F839887C701B6012DA53EA54FA5C2
:1044A00058A90E94FE9D6B017C016DA17EA18FA188
:1044B00098A5A30192010E94FE9D9B01AC01C7013A
:1044C000B6010E94399B69877A878B879C87D801C0
:1044D00050968D919D910D90BC91A02D8DA39EA382
:1044E000AFA3B8A7F801C488D588E688F788BC01CF
:1044F000CD0129A53AA54BA55CA50E94FE9D4B01C7
:104500005C01C701B6012DA53EA54FA558A90E9483
:10451000FE9D9B01AC01C501B4010E94399B6D87D2
:104520007E878F87988BD8011C968D909D90AD903B
:10453000BC901F97C701B601A30192010E94FE9D86
:104540006B017C01C501B40129A53AA54BA55CA569
:104550000E94FE9D9B01AC01C701B6010E94399BE0
:10456000698B7A8B8B8B9C8BC501B4012DA53EA5E5
:104570004FA558A90E94FE9D6B017C016DA17EA1F3
:104580008FA198A5A30192010E94FE9D9B01AC0101
:10459000C701B6010E94399B6D8B7E8B8F8B988FE4
:1045A000D8015C968D919D910D90BC91A02D8DA30D
:1045B0009EA3AFA3B8A7F801C0A0D1A0E2A0F3A02A
:1045C000BC01CD0129A53AA54BA55CA50E94FE9D85
:1045D0004B015C01C701B6012DA53EA54FA558A909
:1045E0000E94FE9D9B01AC01C501B4010E94399B54
:1045F000698F7A8F8B8F9C8FD80158968D909D9064
:10460000AD90BC905B97C701B601A30192010E94D7
:10461000FE9D6B017C01C501B40129A53AA54BA5FE
:104620005CA50E94FE9D9B01AC01C701B6010E94E2
:10463000399B6D8F7E8F8F8F98A3C501B4012DA5F7
:104640003EA54FA558A90E94FE9D6B017C016DA15E
:104650007EA18FA198A5A30192010E94FE9D9B01BE
:10466000AC01C701B6010E94399B69A37AA38BA351
:104670009CA3C801BE016F5F7F4F0E949B21E09603
:104680000FB6F894DEBF0FBECDBFCF91DF911F9163
:104690000F91FF90EF90DF90CF90BF90AF909F90E1
:1046A0008F907F906F905F904F9008956F927F9260
:1046B0008F929F92AF92BF92CF92DF92EF92FF9232
:1046C0000F931F93CF93DF93EC016830710509F4CA
:1046D000EDC0693071052CF56430710509F494C0A2
:1046E000653071056CF46230710509F456C06330B1
:1046F00071050CF060C06130710509F09AC13AC0D3
:104700006630710509F4A5C0A880B980CA80DB8035
:10471000EC80FD800E811F81673071050CF0ABC00D
:1047200081C06C30710509F413C16D307105ACF4B2
:104730006A30710509F4D6C0A880B980CA80DB80D0
:10474000EC80FD800E811F81688479848A849B843B
:104750006B3071050CF0D3C0AEC06E30710509F43A
:1047600024C16E3071050CF4FDC06F30710509F085
:1047700060C12EC1E880F9800A811B81AC80BD80B8
:10478000CE80DF80C801B701A60195010E943A9B47
:1047900023EF34E045E35FE34FC088819981AA812C
:1047A000BB812C813D814E815F81505828833983A4
:1047B0004A835B835BC0E880F9800A811B81AC80FF
:1047C000BD80CE80DF80C801B701A60195010E949F
:1047D000399B23EF34E045E35FE30E94FE9D6C8349
:1047E0007D838E839F83C801B701A60195010E9436
:1047F0003A9B23EF34E045E35FEB0E94FE9D688324
:1048000079838A839B8315C188819981AA81BB8121
:10481000B05888839983AA83BB838C819D81AE81A4
:10482000BF8123C0C601B501A80197010E943A9B30
:1048300023EF34E045E35FEB0E94FE9D6C837D83B4
:104840008E839F83C801B701A60195010E94399B01
:1048500028C088819981AA81BB812C813D814E81AC
:104860005F81288339834A835B83B0588C839D831F
:10487000AE83BF83DEC0C801B701A60195010E94C7
:10488000399B23EF34E045E35FE30E94FE9D6C8398
:104890007D838E839F83C601B501A80197010E9485
:1048A0003A9B23EF34E045E35FE3A7CF8C819D8102
:1048B000AE81BF8187C0C601B501A80197010E94E2
:1048C000399B23EF34E045E35FE30E94FE9D6C8358
:1048D0007D838E839F83C601B501A80197010E9445
:1048E0003A9B23C088819981AA81BB812C813D811B
:1048F0004E815F81288339834A835B8364C0C8010A
:10490000B701A60195010E943A9B23EF34E045E3ED
:104910005FE30E94FE9D6C837D838E839F83C8012D
:10492000B701A60195010E94399B23EF34E045E3CE
:104930005FE30E94FE9D688379838A839B8397FA55
:10494000909497F89094688679868A869B8671C041
:1049500088819981AA81BB81B05888839983AA8371
:10496000BB835EC0E880F9800A811B81AC80BD807A
:10497000CE80DF80C601B501A80197010E94399B56
:1049800023EF34E045E35FE30E94FE9D6C837D836B
:104990008E839F83C801B701A60195010E943A9BAF
:1049A00023EF34E045E35FEB35C088819981AA812C
:1049B000BB812C813D814E815F8150582883398392
:1049C0004A835B83B0588C839D83AE83BF8328C0AA
:1049D000E880F9800A811B81AC80BD80CE80DF80B9
:1049E000C801B701A60195010E943A9B23EF34E06C
:1049F00045E35FEB0E94FE9D6C837D838E839F83E6
:104A0000C801B701A60195010E94399B23EF34E04C
:104A100045E35FE30E94FE9D688379838A839B83DD
:104A200088859985AA85BB85B05888879987AA8784
:104A3000BB87DF91CF911F910F91FF90EF90DF9097
:104A4000CF90BF90AF909F908F907F906F90089580
:104A50002F923F924F925F926F927F928F929F928E
:104A6000AF92BF92CF92DF92EF92FF920F931F937C
:104A7000DF93CF93CDB7DEB72E970FB6F894DEBF96
:104A80000FBECDBF9E878D87DA01FB012481358162
:104A90004681578129833A834B835C831896AD9076
:104AA000BD90CD90DC901B97E084F1840285138546
:104AB00014962D913D914D915C9117972D833E83D6
:104AC0004F8358872D913D914D915C9129873A876D
:104AD0004B875C87608071808280938069817A8156
:104AE0008B819C81A60195010E94FE9D1B012C01DA
:104AF000C801B7012D813E814F8158850E94FE9DDE
:104B00009B01AC01C201B1010E94399BED85FE857C
:104B10006083718382839383C801B70129853A85B5
:104B20004B855C850E94FE9D7B018C01C401B30115
:104B3000A60195010E94FE9D9B01AC01C801B70131
:104B40000E94399BED85FE856483758386839783F8
:104B5000C401B3012D813E814F8158850E94FE9D85
:104B60007B018C0169817A818B819C8129853A85C1
:104B70004B855C850E94FE9D9B01AC01C801B7017D
:104B80000E94399BED85FE856087718782879387B8
:104B9000CF012E960FB6F894DEBF0FBECDBFCF91DA
:104BA000DF911F910F91FF90EF90DF90CF90BF901A
:104BB000AF909F908F907F906F905F904F903F90BD
:104BC0002F900895CF92DF92EF92FF920F931F9351
:104BD000CF93DF93EC018B01688179818A819B817E
:104BE000F80120813181428153810E94FE9D6B0139
:104BF0007C016C817D818E819F81F80124813581CA
:104C0000468157810E94FE9D9B01AC01C701B60100
:104C10000E943A9B6B017C01688579858A859B851A
:104C2000F80120853185428553850E94FE9D9B01B8
:104C3000AC01C701B6010E943A9BDF91CF911F9151
:104C40000F91FF90EF90DF90CF900895BC010E94EC
:104C5000E2250E946B9E0895DC01ED91FC91008895
:104C6000F189E02D19950E94B79C2DEB37E346E8BA
:104C700055E30E94FE9D08954F925F926F927F923E
:104C80008F929F92AF92BF92CF92DF92EF92FF925C
:104C90000F931F93CF93DF93EC013B012901480150
:104CA000B701E881F9810688F789E02D19959B8F76
:104CB0008A8FE8A0F9A00AA11BA1ACA0BDA0CEA03C
:104CC000DFA06C8D7D8D8E8D9F8D20E030E0A90161
:104CD0000E94179C882311F5C801B70120E030E03D
:104CE000A9010E94179C8823C9F4C601B50120E0E0
:104CF00030E0A9010E94179C882381F480E090E0B5
:104D0000A0E8BFE38C8F9D8FAE8FBF8F88A399A340
:104D1000AAA3BBA38CA39DA3AEA3BFA381E06816E7
:104D2000710449F0E881F981028CF38DE02DCE0108
:104D3000B201A4011995DF91CF911F910F91FF90BE
:104D4000EF90DF90CF90BF90AF909F908F907F902B
:104D50006F905F904F9008952F923F924F925F9285
:104D60006F927F928F929F92AF92BF92CF92DF927B
:104D7000EF92FF920F931F93DF93CF93CDB7DEB7E0
:104D8000A6970FB6F894DEBF0FBECDBF69A37AA376
:104D90004BA35CA3802F912F9A8F898F822E932E05
:104DA0001E010894211C311C9E01235F3F4F3EA32E
:104DB0002DA331014424552430E83B8F8FE38C8FA1
:104DC000F401E484F58406851785A98DBA8D6D916B
:104DD0007D918D919D91BA8FA98F24E030E0820E54
:104DE000931E20813181428153810E94399BD62EAE
:104DF000C72EB82EA92EC801B701A80197010E949D
:104E0000FE9DD601F5012B2F3A2F4F2F5E2F0E94CA
:104E1000FE9DD601F5012B2F3A2F4F2F5E2F0E94BA
:104E2000FE9D9B01AC01FB8DEC8D642D752D8F2FAC
:104E30009E2F0E94399B6D8F7E8F8F8F98A32B01A1
:104E40008B8F9C8FC801B701A80197010E943A9BE4
:104E5000A80197010E94FE9DD601F5012B2F3A2F44
:104E60004F2F5E2F0E94FE9DD3016D937D938D93F6
:104E70009D933D01C801B70120E030E040E050ECD7
:104E80000E94FE9DD601F5012B2F3A2F4F2F5E2F4A
:104E90000E94FE9DD601F5012B2F3A2F4F2F5E2F3A
:104EA0000E94FE9DF30160877187828793872DA101
:104EB0003EA16216730609F083CF99A18AA1C92E7B
:104EC000D82E9BA18CA1A92EB82EC10148969A8FED
:104ED000898F4101D4014D905D906D907D904D0181
:104EE000C301B201BD8DAE8DFF8DE8A12B2F3A2FEE
:104EF0004F2F5E2F0E94FE9D9B01AC01F601608149
:104F00007181828193810E943A9BD6016D937D933A
:104F10008D939D936D0175018101F801219131916E
:104F2000419151918F01C301B2010E94FE9D9B01ED
:104F3000AC01D7016D917D918D919C910E943A9B1E
:104F4000F70161937193819391937F01298D3A8D3C
:104F50000217130711F788E190E0A80EB91E80161A
:104F6000910609F0B7CFA6960FB6F894DEBF0FBE34
:104F7000CDBFCF91DF911F910F91FF90EF90DF9008
:104F8000CF90BF90AF909F908F907F906F905F90E9
:104F90004F903F902F900895CF93DF93862F972FB8
:104FA000EC01E42FF52F26E030E080E090E0DC011A
:104FB00089939993A993B99380839183A283B383AF
:104FC00084839583A683B78380879187A287B387DD
:104FD00084879587A687B787808B918BA28BB38BAD
:104FE000848B958BA68BB78B2150304078962115FA
:104FF0003105F1F6DF91CF9108952F923F924F92B4
:105000005F926F927F928F929F92AF92BF92CF9258
:10501000DF92EF92FF920F931F93DF93CF93CDB761
:10502000DEB764970FB6F894DEBF0FBECDBF7C83AA
:105030006B8358874F832B873C877A8769875E838A
:105040004D837A83698380E090E08A0101C0C101C9
:105050001C010894211C311C6101CC0CDD1CCC0C02
:10506000DD1CC00ED11E085E1F4F49805A807101A1
:105070009C01220F331F220F331F3E872D87388A52
:105080002F861A8B098B7AC0D6016D917D918D91F7
:105090009D916D01ED81FE8120813181428153819D
:1050A0000E941E9C662E272E782E392E20E030E09E
:1050B000A9010E94179C882309F457C0662D722D00
:1050C000872D932DA981BA812D913D914D915C91B0
:1050D0000E94FE9D9B01AC01F20164817581868175
:1050E00097810E94399BD20114966D937D938D9385
:1050F0009C931797C701880F991F880F991F800FDE
:10510000911FAD84BE84A00EB11E47019C8B8B8B7A
:10511000C801850157017C01662D722D872D932DC5
:10512000F80120813181428153810E94FE9D9B01C3
:10513000AC01AB89BC896D917D918D919C910E9450
:10514000399BEB89FC896083718382839383089404
:10515000811C911C7896FC8BEB8B085E1F4FF6E050
:105160008F169104C9F6870175010894E11CF11CA2
:1051700024E030E0420E531E085E1F4F36E0E31677
:10518000F1040CF481CF2F84388809891A89898128
:105190009A8104969A838983AD81BE815C96BE8391
:1051A000AD83B6E02B16310409F051CF2B813C8141
:1051B000285E3F4F8F81988588589F4F8C010C5EE9
:1051C0001F4F3C0185E0E82EF12C0F2EF0E02F2E32
:1051D000F0E03F2EF0E84F2EFFE35F2EF02D3A83F4
:1051E0002983E981FA819291829172916291FA8385
:1051F000E983D8012D913D914D915C910E941E9CB7
:10520000E981FA816083718382839383D8012D922F
:105210003D924D925C921397AB80BC808824992478
:105220008F017A8269826D012AC0E981FA816081E9
:10523000718182819381D8012D913D914D915C9135
:105240000E94FE9D9B01AC01F5016081718182810C
:1052500093810E94399BD5016D937D938D939D938E
:105260005D01E981FA8180E090E0DC018193919316
:10527000A193B193FA83E9830894811C911C8E1445
:105280009F049CF21A83098386010894E108F108BF
:105290000C51104028EE3FEF620E731E3FEFE316F5
:1052A0003FEFF30609F09DCF3B852C85832F922F8E
:1052B000FC0120E030E049855A85BF01FA01819167
:1052C0009191A191B191AF01FB0181939193A19330
:1052D000B193BF012F5F3F4F2630310579F76496B8
:1052E0000FB6F894DEBF0FBECDBFCF91DF911F91F7
:1052F0000F91FF90EF90DF90CF90BF90AF909F9075
:105300008F907F906F905F904F903F902F90089577
:105310002F923F924F925F926F927F928F929F92C5
:10532000AF92BF92CF92DF92EF92FF920F931F93B3
:10533000DF93CF93CDB7DEB76E970FB6F894DEBF8D
:105340000FBECDBF7C017A87698758874F8364E69B
:1053500070E080E090E029853A85F901199500D048
:105360000F9202E418E0ADB7BEB712961C930E93ED
:10537000119788E094E014969C938E9313970E9463
:10538000710C80E090E0DC01F70180A791A7A2A753
:10539000B3A784A795A7A6A7B7A780AB91ABA2ABED
:1053A000B3AB80E090E0A0E8BFE3848F958FA68F39
:1053B000B78F80A391A3A2A3B3A384A395A3A6A30D
:1053C000B7A30F900F900F900F901B8A1C8AFAEFD3
:1053D000FD8B23E42E8B1F8A188E3AEF398F83E4DE
:1053E0008A8F1D861E869AEF9F87A3E4A88B198259
:1053F0000B8F1C8FFE8EED8E11C0BA81BB8BEB81A3
:10540000EC8BFC81FD8B2D812E8B9F8A888E798E73
:105410003E813A8F1D87CE86BF86A88AAD8DBE8D10
:10542000ED91FC9111970084F185E02DCD01199546
:10543000ED8DFE8D12850385F484E584C680B780EA
:10544000F085FB87AD8DBE8D1996BC91BC87ED8D27
:10545000FE8DA2803380F481F98BAD8DBE8D1596C3
:10546000BC91BA8B62E3D62E64E170E080E090E0FC
:10547000E985FA851995AD8DBE8DED91FC91119759
:105480000084F185E02DCD01199539892A896A2D8D
:10549000732D832F922F26E636E646E65FE30E94C1
:1054A000FE9DA62E972E882E792E3B852C856C2D61
:1054B0007B2D832F922F26E636E646E65FE30E9499
:1054C000FE9DC62EB72E682E592EA8019701652F76
:1054D000702F832F9E2D26E636E646E65FE30E9478
:1054E000FE9D162F072FF82EE92EED8DFE8D628181
:1054F0007381848195812DEC3CEC4CEC5DE30E9442
:10550000FE9D9B01AC016A2D792D882D972D0E945F
:105510003A9B6A837B838C839D83A62E372E898B4F
:105520009A8BAD8DBE8D16966D917D918D919C91CE
:1055300019972DEC3CEC4CEC5DE30E94FE9D9B0129
:10554000AC016C2D7B2D862D952D0E943A9B962EBD
:10555000872E782E9E83C62EB72E8B879C87ED8D47
:10556000FE8D62857385848595852DEC3CEC4CEC35
:105570005DE30E94FE9D9B01AC01D801F7016B2FFA
:105580007A2F8F2F9E2F0E943A9B662E472E582EE1
:10559000292E162F072FF82EE92EF981F53011F557
:1055A00000D00F92EB8DADB7BEB71196EC9311976B
:1055B000FC8D1296FC93129726E034E014963C93EF
:1055C0002E9313970E94710C0F900F900F900F90D5
:1055D0008F819885009781F081E0AF81B885FD01CA
:1055E00019950AC0B981BA303CF0EF81F88530973F
:1055F00011F080E019951982F981FF5FF983DA943F
:1056000009F032CF662D742D852D922D2AE038EECB
:105610004CE151E40E943A9B162FC72EB82EA92EBA
:105620005B894C893D892E89652F742F832F922F9A
:10563000BA81AB810C81FD802B2F3A2F402F5F2D3B
:105640000E94399B1B012C01E89457F85F89488D13
:10565000398D2A8D652F742F832F922FD401FE80D0
:105660002B2F382D472D5F2D0E94399B9B01AC01BC
:105670005F77C201B1010E943A9B1B012C015D853D
:105680004E853F852889652F742F832F922FF50132
:10569000212F3C2D4F2F5E2F0E94399B9B01AC0187
:1056A0005F77C201B1010E943A9B662E572E482EA9
:1056B000392E5A814B813C812D81652F742F832F88
:1056C000922FD4012B2F382D472D5F2D0E94F39D53
:1056D00018162CF40A81FB80EC80DD8004C0092DB3
:1056E000F82CE72CDE80602F7F2D8E2D9D2D212F15
:1056F0003C2D4B2D5A2D0E94F39D181624F0012F9E
:10570000FC2CEB2CDA2C64EF71E080E090E0298532
:105710003A85F9011995662D752D842D932D20E07C
:1057200030E040E850E40E94F39D18160CF465CE7A
:10573000602F7F2D8E2D9D2D20E030E04AE753E431
:105740000E94F39D18160CF458CEED8CFE8C5A81F5
:105750004B813C812D81852F942FA32FB22FF701F0
:1057600080A791A7A2A7B3A7A4012E81852F982D6A
:10577000A72DB22F84A795A7A6A7B7A79501812F1C
:105780009C2DA32FBA2D80AB91ABA2ABB3AB00D0B5
:105790000F9282E498E0ADB7BEB712969C938E93B9
:1057A000119784E094E014969C938E9313970E9433
:1057B000710C0F900F900F900F906E960FB6F8949B
:1057C000DEBF0FBECDBFCF91DF911F910F91FF9034
:1057D000EF90DF90CF90BF90AF909F908F907F9091
:1057E0006F905F904F903F902F9008952F923F922F
:1057F0004F925F926F927F928F929F92AF92BF92E1
:10580000CF92DF92EF92FF920F931F93DF93CF938C
:10581000CDB7DEB7E9970FB6F894DEBF0FBECDBFA8
:105820008C0178A36F8F5F8B4E8B64E670E080E015
:1058300090E02F8D38A1F901199500D00F9282E4E4
:1058400098E0ADB7BEB712969C938E9311978AE3FA
:1058500094E014969C938E9313970E94710C80E0B1
:1058600090E0DC01F80184AB95ABA6ABB7AB80AFA1
:1058700091AFA2AFB3AF84AF95AFA6AFB7AF0F9064
:105880000F900F900F9079E1E72EF12CCE88DF88F2
:10589000C114D10419F081E0F601199564E170E0BA
:1058A00080E090E02F8D38A1F9011995D801ED9194
:1058B000FC910084F185E02DC8011995C114D10433
:1058C00019F080E0F601199564E170E080E090E065
:1058D000EF8DF8A119950894E108F108E114F1049D
:1058E000B9F619A21AA21BA21CA21DA21EA21FA2D7
:1058F00018A619A61AA61BA61CA6198E1A8E1B8EF0
:105900001C8E188E19AA1AAA1BAA1DA61EA61FA6AF
:1059100018AA1E8E1D8E1A8A1B8A1C8A1D8A38019F
:1059200011C0FE85F9A32F852AA338893BA3898955
:105930008CA3BDA2AEA29FA29D8598A7F9A6EAA6B8
:10594000DBA6CCA680E090E0DC0189879A87AB8754
:10595000BC878D839E83AF83B88789839A83AB830B
:10596000BC8300D00F92E2E4F8E0ADB7BEB7129668
:10597000FC93EE93119728E334E014963C932E9316
:1059800013970E94710C0F900F900F900F90EE24C0
:10599000FF2410E0DD24CC24BB24198A1CAA1D8618
:1059A0001E861F86188A00E0D301ED91FC910084C9
:1059B000F185E02DC30119955D854E853F852889C8
:1059C000652F742F832F922FF30126853785408909
:1059D00051890E943A9BA62E972E882E592E6D87AC
:1059E0007E878F87988B39892CA96C2D7B2D832FEF
:1059F000922FD30152962D913D914D915C915597E7
:105A00000E943A9B6DAB7EAB8FAB98AFC62EB72E84
:105A1000898B9CAB6E2D7F2D812F9D2DF3012689C7
:105A20003789408D518D0E943A9B462E372E282E65
:105A300099AFE62EF72E182FD92E802F68E20E94FC
:105A4000E49E943149F42E893F892115310579F07E
:105A500081E0F90119950BC0992349F48E899F893A
:105A6000009729F080E0AE89BF89FD01199565E0B6
:105A700070E080E090E0EF8DF8A119950F5F083C91
:105A800009F092CF6A2D792D882D952D20E030E0F8
:105A900048E453E40E941E9CF62EE72ED82EC92E11
:105AA0005DA94EA93FA928AD652F742F832F922F92
:105AB00020E030E048E453E40E941E9CB62EA72E5E
:105AC000982E9D8729AD642D732D822D922F20E075
:105AD00030E048E453E40E941E9C6E877F87888BE9
